:020000040800F2
:10000000A808002089020008673500088F2A000828
:100010006535000841080008133F00080000000093
:100020000000000000000000000000007F38000811
:10003000430800080000000069350008F93800088E
:10004000A3020008A3020008A3020008A3020008FC
:10005000A3020008A3020008A3020008A3020008EC
:10006000A3020008A3020008A3020008A3020008DC
:10007000A3020008A3020008A3020008A3020008CC
:10008000A302000800000000A3020008A302000869
:10009000A3020008A3020008A3020008A3020008AC
:1000A000A3020008A3020008A3020008A30200089C
:1000B00099390008A5390008A3020008A302000826
:1000C000A3020008A3020008A3020008A30200087C
:1000D000A3020008A3020008A3020008A30200086C
:1000E000A3020008A3020008A3020008A30200085C
:1000F000A3020008A3020008A302000800000000F9
:1001000000000000A302000800000000A302000895
:10011000A302000800000000B1390008A302000893
:10012000A3020008A3020008A3020008A30200081B
:10013000A30200080000000000000000A302000865
:10014000A3020008A3020008000000000000000055
:10015000000000000000000000000000000000009F
:10016000000000000000000000000000A3020008E2
:10017000A3020008000000000000000000000000D2
:1001800000000000A30200080000000000000000C2
:10019000000000000000000000000000000000005F
:1001A0000000000000000000A3020008A3020008F5
:1001B000A3020008A3020008A30200080000000038
:1001C00000000000A3020008000000000000000082
:1001D000A3020008A302000800F002F800F044F8AF
:1001E0000AA090E8000C82448344AAF10107DA4592
:1001F00001D100F039F8AFF2090EBAE80F0013F0A0
:10020000010F18BFFB1A43F001031847D85800002C
:10021000F8580000103A24BF78C878C1FAD85207BD
:1002200024BF30C830C144BF04680C607047000070
:100230000023002400250026103A28BF78C1FBD8EF
:10024000520728BF30C148BF0B607047642900F0D7
:10025000AD80732900F0AB81002070471FB504F01A
:100260004BFB1FBD10B510BD00F0A5F91146FFF7FF
:10027000F5FF03F05FFE00F0C3F903B4FFF7F2FFF0
:1002800003BC00F0CBF9000009488047094800474B
:10029000FEE7FEE7FEE7FEE7FEE7FEE7FEE7FEE736
:1002A000FEE7FEE704480549054A064B7047000093
:1002B00089390008D9010008A8020020A8080020F8
:1002C000A8040020A80400200FB41CB5074B06AA00
:1002D0007B4469460090059800F03FF9002069468C
:1002E00000F04EF91CBC5DF814FB0000AD020000EC
:1002F0002DE9F0410E460446002020622046E168C8
:10030000884730B3252805D0D4E901219047206AD9
:10031000401CF2E7E168204600278847050018D016
:10032000A5F14100192802D820354FF40067324664
:10033000294620462760FFF789FF40B1012804D0F5
:10034000F61D26F007060836D8E7361DD6E72846FC
:10035000DAE7206ABDE8F08170B50C460546012A4F
:1003600005D02878800600D5EA69002302E0012341
:1003700005E05B1C934202D2E05C0028F9D1A86939
:10038000E618C01AA861286A184428622846AFF304
:10039000008004E0D5E9012114F8010B9047B44234
:1003A000F8D32846AFF3008070BD00002DE9F0417E
:1003B0000646002410687529314616A510D0AFF303
:1003C0000080002802DA404213A507E031688A075E
:1003D00001D512A502E0490704D511A5012401E0C9
:1003E000AFF3008000210A2206F1240709E0B0FBE8
:1003F000F2FCB0FBF2F302FB1C00303078541846DC
:10040000491C0028F3D123462A463046BDE8F04176
:1004100000F044B8000000002D0000002B00000098
:100420002000000030B505460B462A4613F8014B64
:1004300012F8010B08B1A042F8D01CB1002802D07C
:100440006D1CF1E7284630BD4FF0000200B51346A1
:1004500094469646203922BFA0E80C50A0E80C50E4
:10046000B1F12001BFF4F7AF090728BFA0E80C5095
:1004700048BF0CC05DF804EB890028BF40F8042B8E
:1004800008BF704748BF20F8022B11F0804F18BFFB
:1004900000F8012B70477047704770472DE9F0470F
:1004A0000D4699469246044600F1240801688806E4
:1004B00004D5E06921F01001216000E00120A8428C
:1004C00001DD471B00E00027A1697A1902EB090052
:1004D000081AA0612078C00602D42046AFF300803D
:1004E000002608E0D4E901211AF806009047206AA6
:1004F000401C761C20624E45F4DB2078C0060AD5ED
:100500002046AFF3008006E0D4E901213020904777
:10051000206A401C2062381EA7F10107F4DC07E0C6
:10052000D4E9012118F805009047206A401C206298
:10053000281EA5F10105F3DC2046AFF300802078EA
:10054000000602D50220BDE8F0870120FBE700008D
:1005500001694A1C02610878704700B58FB0CDE987
:1005600001310021059105497944CDE90310114677
:100570006846FFF7BDFE0FB000BD0000E5FFFFFFBE
:100580000A6802F8010B0A60704710B5436913B19D
:10059000AFF3008001E0FFF7DFFE012010BD12780D
:1005A00000F124010A7000224A700122EDE711686F
:1005B0004FF0FF32E9E7754600F02CF8AE46050033
:1005C0006946534620F00700854618B020B5FFF76E
:1005D00069FEBDE820404FF000064FF000074FF0E5
:1005E00000084FF0000B21F00701AC46ACE8C00951
:1005F000ACE8C009ACE8C009ACE8C0098D4670475A
:1006000010B50446AFF300802046BDE81040FFF768
:1006100034BE000000487047440200200149182001
:10062000ABBEFEE7260002007047000070B504462E
:10063000006881688268C1F3400112F0010F28D080
:1006400039BB816801F00D01012914D18168124A7A
:100650001140891C816021680320086000F08CFE35
:10066000054612E000F088FE401B02280DD92068E4
:100670008068C00709D0E06D40F01000E065206E92
:1006800040F001002066012070BD20688068C0072E
:10069000E8D1002070BD0000C0FFFF7F70B50446A8
:1006A0000068816811F0010F2DD18168174A11424D
:1006B0001AD18168D5432940491C816000F05CFE55
:1006C00006461BE0816811F0010F03D181682940C3
:1006D000491C816000F050FE801B02280ED9206862
:1006E0000068C043C00709D0E06D40F01000E0652D
:1006F000206E40F001002066012070BD2068016876
:10070000C943C907DED1002070BD00003F00008052
:100710002DE9F0413A492DED0A8B0A89002A2BD1A7
:10072000088100F0F3F8B0EE408AF0EE608A35A15F
:100730003748FFF777FE364C3C259FED36CB9FEDD3
:1007400037BB9FED38AB394F9FED399B962610B1E3
:100750003878022814D038A12D48FFF763FE00280E
:100760000AD03878022807D153EC192B51EC180B1A
:1007700003F068FE28D22564BDEC0A8BBDE8F08149
:1007800053EC192B51EC180B03F05CFE01D2E5631E
:10079000F2E753EC1C2B51EC180B03F08DFF01D248
:1007A000E663E9E753EC192B51EC180B03F0BAFFA1
:1007B00053EC1B2B03F082FE53EC1A2B03F0F4FBDB
:1007C00003F0FEFDE063D7E753EC1C2B51EC180B54
:1007D00003F072FF01D22664CEE753EC192B51ECE3
:1007E000180B03F09FFF53EC1B2B03F067FE53EC39
:1007F0001A2B03F0D9FB03F0E3FD2064BCE70000F3
:10080000980100207365745F6869676800000000E4
:10081000000200200000000000000840000000006E
:10082000008046400000000000004E4018000020FC
:10083000000000000000F03F7365745F6C6F77008C
:10084000FEE77047002240F6B83306E00021491C5D
:1008500089B29942FBD3521C92B28242F6D37047BE
:1008600072B6FEE770B51E491E4C1F4D2DED028B72
:10087000CA889FED1E8B002A2FD1C88095ED000BF2
:100880009FED1C1B51EC100B53EC112B03F014FFCC
:1008900001D2C82020E095ED000B53EC182B51EC51
:1008A000100B03F0CFFD01D21E2015E095ED000BDB
:1008B00053EC182B51EC100B03F034FF9FED0F1B82
:1008C00053EC112B03F0FAFD9FED0E1B53EC112B93
:1008D00003F06AFB03F074FD2062BDEC028B70BD77
:1008E0009801002000020020D80100200000000034
:1008F00000408F400000000000409F40000000606A
:100900008FC2C53F0000000000003E4010B50B48FC
:1009100000F0B8FB094800F077FA03F080FD9FED86
:10092000081B53EC112B03F0C9FD9FED071B53EC83
:10093000112B03F0C3FD41EC100B10BD1C00002077
:10094000000000000000303F0000006066660A40C2
:10095000F8B500260446009690F858000D46012888
:100960000BD0012084F858002046FFF75FFE0100FD
:10097000E06D04D040F010002AE00220F8BD20F421
:10098000885040F00200E06520688268134B1A40EE
:1009900005F080431A4342F000428260104A20680A
:1009A0000EE0009B5B1C0093934209D3E06D20F0A6
:1009B000020040F01000E06584F858600120F8BDA6
:1009C0008368DB0FEDD1E06D20F0020040F0010004
:1009D000E06584F858600846F8BD0000C0FFFF3F9E
:1009E00002DE04002DE9F84F00270446009790F836
:1009F0005800DFF8E0930D46B846012811D00126D3
:100A000084F85860206802F009FC60B1E06D40F0A5
:100A10002000E0655FF0010784F858803846BDE8A3
:100A2000F88F0220FBE7D5E900210C23206803EAB8
:100A300091131844036B01F01F014FF01F0C0CFAC7
:100A400001FCC2F3846223EA0C038A40134303636C
:100A5000206802F0E3FB8246206802F0DBFB5AEAE2
:100A600000003CD1AA6829682068B2F1004F37D055
:100A700002F0D8FB2068416921F000414161206803
:100A80006969C268C2F3C102520091402A69042A0E
:100A900031D000EB82002B68026EDFF83CC303F01C
:100AA000F84302EA0C020B431A4342F0004101668C
:100AB00020682A69A96900EB8200026E22F0807228
:100AC0000A430266297F22682869012910D0002183
:100AD00002EB8000026E22F000720A4302667DE0A3
:100AE000002202F09FFB2068416941F00041C5E708
:100AF0004FF00071ECE7002102F086FB4003206814
:100B00004FF0000172D002F07FFB90FAA0F0B0FA33
:100B100080F1286842036ED090FAA0F0B0FA80F01D
:100B2000814204D100221146206802F08AFB012193
:100B3000206802F069FB400320684FF001015DD09E
:100B400002F062FB90FAA0F0B0FA80F1286842034C
:100B500059D090FAA0F0B0FA80F0814204D100227E
:100B60000121206802F06DFB0221206802F04CFB9D
:100B7000400320684FF0020148D002F045FB90FA94
:100B8000A0F0B0FA80F12868420344D090FAA0F0B7
:100B9000B0FA80F0814204D100220221206802F0E4
:100BA00050FB0321206802F02FFB400320684FF028
:100BB000030133D002F028FB90FAA0F0B0FA80F1E4
:100BC000286842032FD090FAA0F0B0FA80F081425A
:100BD00004D100220321206802F033FB20688168E1
:100BE00011F0010F22D0ACE000E004E002F00CFBB9
:100BF000C0F384618DE7C0F3846091E702F004FBE9
:100C0000C0F38461A2E7C0F38460A6E702F0FCFAB7
:100C1000C0F38461B7E7C0F38460BBE702F0F4FA85
:100C2000C0F38461CCE7C0F38460D0E72A7B2968F5
:100C300050F8B03FC1F3120C23EA0C0302F0180C79
:100C4000664A22FA0CF20A4013430360E9684945F8
:100C500077D1286841031CD090FAA0F1B1FA81F154
:100C6000491C01F01F0109294FEA403132D80029FF
:100C700012D000BF90FAA0F1B1FA81F101F10101A7
:100C800001F01F0106FA01F609D100BFC0F384612B
:100C900009E0C0F38461E3E7C0F38461EEE790FA12
:100CA000A0F1B1FA81F101F1010101F01F0146EA61
:100CB000816102D1C0F3846003E090FAA0F0B0FA41
:100CC00080F000F1010000F01F0000EB400041EA5D
:100CD000005132E000290ED090FAA0F1B1FA81F172
:100CE00001F1010101F01F0106FA01F606D100BF72
:100CF000C0F3846106E0C0F38461F1E790FAA0F1EB
:100D0000B1FA81F101F1010101F01F0146EA8161AF
:100D100002D1C0F3846003E090FAA0F0B0FA80F052
:100D200000F1010000F01F002D4A00EB400002EB33
:100D3000005041EA000141F00071AA68206802F009
:100D400071FA28482A6802423FF466AE2648816854
:100D5000264B01F0E0719A4202D0254B9A421CD1F9
:100D60000B021AD42268B2F1A04F7FF455AE82680C
:100D700041F4000122F0E0720A4382601D481E49DE
:100D80000068B0FBF1F0401C00EB4000800000E088
:100D9000401E00900028FBD13EE6184D184BAA4299
:100DA00007D1CD0105D422689A42F5D041F0807177
:100DB00009E0144DAA42EFD14A02EDD422689A42CA
:100DC000EAD041F48001826822F0E0720A43826036
:100DD00022E6000000007F4000F0FF03FFFF070055
:100DE000000020FE0000088000030050000021C326
:100DF0001000C0900C000020400D0300000052C7FE
:100E000000010050000084CB0068006C70470000B7
:100E1000F8B54FF0000504002E46009502D0E06DB5
:100E200010B107E00120F8BD204600F0EFF826667B
:100E300084F8586020688168C1F3407119B18168F5
:100E40006A4A1140816020688168C1F3007189B9E4
:100E50008168674A114041F0805181606548664968
:100E60000068B0FBF1F04000801C00E0401E0090E4
:100E70000028FBD120688168C1F3007141B9E16DA0
:100E800041F01001E165216E41F00101216601256B
:100E900002F0C4F9E16DC90600D430B1E06D40F054
:100EA0001000E06501252846F8BDE06D20F4807053
:100EB00040F00200E0652068806810F0010F11D159
:100EC0004FF0A04080684D4900F00100896801F0B2
:100ED0000101084306D14A486168826822F47C1205
:100EE0000A438260E168E06B627F0843A16841EADF
:100EF0004231084394F8241040EA0140012904D10A
:100F0000218D404A02EB41410843E16A29B101F4D5
:100F10007871226B014342EA01002168CA683A4BAA
:100F20001A400243CA6020680169626B21F0406187
:100F300011430161206802F071F90646206802F051
:100F400069F930432ED1207F94F83810800340EAAD
:100F500041022068C16844F2020399431143C16011
:100F600020690028206801690AD041F480310161BC
:100F7000206850F8C01F22696FF30D01114307E08C
:100F800021F480310161206850F8C01F6FF30D011A
:100F9000016094F8400001280CD02068016921F01C
:100FA00001010161606901282068016B21F00F01D6
:100FB00011D013E0D4E911010843D4E9131211430D
:100FC000084321680A6940F2FC739A43104340F0D9
:100FD00001000861E6E7226A521E11430163E06DD9
:100FE00020F0020040F00100E0655CE7C0FFFF5F19
:100FF000C0FFFF7F0C000020400D030000010050E7
:10100000000300500000FEFF0740F0FF10B598B04D
:101010000446142111A8FFF717FA44216846FFF788
:1010200013FA15492068884223D1C4014005009471
:101030000F90684600F09EFA08B1FFF711FC0F48C8
:10104000C16C41F40051C164C16C01F400511691AE
:10105000C16C41F00201C164C06C11A900F0020032
:1010600016900320CDE9114000201390044800F0B1
:1010700095F818B010BD00000001005000100240AB
:10108000000400482DE9F04104463848806800F02B
:101090001F05206802F0C2F818B102210846BDE819
:1010A000F08194F8580001280CD0012084F85800F1
:1010B0002046FFF7F3FA01004FF0000304D084F854
:1010C0005830EBE70220EAE7E06D40F6016290431A
:1010D00040F48070E065264A20684FF0A0469042B8
:1010E00001D1374600E00746874200D01DB9E76DC1
:1010F00027F48017E765E76DFF0404D5276E27F016
:101100000607276600E023661C27076084F858302E
:101110002068904201D1334600E00346834215D057
:10112000A5B1052D12D0092D10D0E36D43F4801325
:10113000E365904200D13046C0688001AED5E06DD5
:1011400020F4005040F48050E065A7E7C2689201A7
:1011500005D5E26D22F4005242F48052E2658268C5
:10116000044B1A40121D826098E7000000030050F3
:1011700000010050C0FFFF7F70B5044600F0FCF88E
:101180000546601C02D004484068044400F0F4F8AE
:10119000401BA042FAD370BD000000202DE9FC4F97
:1011A000DFF8A0A1002301250AF1040B03244FF06E
:1011B0000F0C0BF1040EBDE005FA03F632406FD0C0
:1011C0004F68012F05D0022F03D0112F01D0122F0D
:1011D00017D1D0F808905F0004FA07F829EA080947
:1011E0000097D1F80C8008FA07F848EA0908C0F817
:1011F00008804768B7430E79C6F300169E403E4309
:101200004660C6684FEA430804FA08F7BE430197F0
:101210008F6807FA08F73743C7604E68022E01D07F
:10122000122E13D1DE0800EB86060096366A5F07A1
:10123000FF0E0CFA07F926EA0906D1F8109009FA10
:1012400007F949EA0609009EC6F820900668019F42
:10125000BE430F7907F0030707FA08F73743076023
:101260004E68F60065D5384E376E47F00107376691
:10127000366E23F0030706F001060096334E3E4417
:10128000B146B6689F074FEA17780CFA08F7BE43D5
:10129000B0F1904F05D02E4FB84204D1012717E08E
:1012A00047E0002714E02B4FB84201D102270FE09E
:1012B000294FB84201D103270AE0284FB84201D193
:1012C000042705E0264FB84201D1052700E0062794
:1012D00007FA08F73743C9F80870DAF8006057468C
:1012E000D1F8048096435FEAC83800D516433E60C3
:1012F000DBF800605F46D1F8048096435FEA8838E7
:1013000000D516433E60DEF800607746D1F80480D1
:1013100096435FEAC82800D516433E60094F0C3754
:101320003E68D1F8048096435FEA882800D51643CA
:101330003E605B1C0A6832FA03F67FF43DAFBDE8FD
:10134000FC8F00000004014000100240000001403A
:101350000004004800080048000C00480010004845
:10136000001400480069084000D0012070470AB10D
:101370008161704781627047014880687047000052
:101380000000002002488168426811448160704773
:101390000000002010B50024032000F073F80F2097
:1013A00000F008F808B1012401E000F025F820461B
:1013B00010BD000070B50E4E05460024706898B14F
:1013C0004FF47A71B1FBF0F00A490968B1FBF0F013
:1013D00000F040FD40B9102D06D200222946501ED3
:1013E00000F030F8356000E00124204670BD0000B8
:1013F000000000200C0000200A4882B0016E41F07D
:1014000001010166016E01F001010091816D41F061
:1014100080518165806D00F08050009002B000F036
:10142000A1B8000000100240002809DB00F01F02F4
:10143000012191404009800000F1E020C0F8001136
:1014400070470000F0B40E4B1B680C46C3F3022338
:10145000C3F10705042D00D90425191D072901D260
:10146000002300E0DB1E012606FA05F1491E21409B
:1014700099409E40761E16403143F0BC02F04ABDB2
:101480000CED00E0064900F0070208684FF6FF0384
:10149000184040EA0220034A1043086070470000E9
:1014A0000CED00E00000FA052B492C4B0A683221B4
:1014B0004A432B4940B1B0F5007F086829D020F499
:1014C000C06040F480602CE00868C0F3412002282E
:1014D00004D051F8800F20F4807022E0D1F8800011
:1014E00020F48070C1F88000086820F4C06040F4E7
:1014F00000700860B2FBF3F0401C00E0401E4A6937
:10150000520501D50028F9D1486940050AD50320C4
:101510007047C0F34120022806D051F8800F40F4F4
:101520008070086000207047D1F8800040F480701F
:10153000C1F88000086820F4C06040F400700860C2
:10154000B2FBF3F0401C00E0401E4A695205DBD5B7
:101550000028F9D1D8E700000C00002040420F001D
:10156000007000400248816841F48041816070470A
:10157000007000402DE9F8430446006800269D4DA8
:1015800000035ED5A86D0027C00008D4A86D40F008
:101590008050A865A86D012700F080500090DFF80A
:1015A0005892D9F8001041F48071C9F80010FFF783
:1015B000E3FE804606E000BFFFF7DEFEA0EB08007A
:1015C00002282BD8D9F80000C005F5D5D5F8900031
:1015D00010F4407014D0216C814211D0D5F89000E5
:1015E000D5F8901020F4407041F48031C5F8901087
:1015F000D5F8901021F48031C5F89010C5F890000E
:10160000C00711D0FFF7B8FE804641F2883907E0E5
:10161000FFF7B2FEA0EB0801494501D903260BE014
:10162000D5F890008007F3D5D5F89000216C20F410
:1016300040700843C5F890001FB1A86D20F080509D
:10164000A8652078C00707D0D5F88800616820F029
:1016500003000843C5F888002078800707D5D5F82F
:101660008800A16820F00C000843C5F888002078A5
:10167000400707D5D5F88800E16820F0300008431E
:10168000C5F888002078000707D5D5F888002169BB
:1016900020F0C0000843C5F888002078800607D5F0
:1016A000D5F88800616920F440600843C5F88800D7
:1016B0002078400607D5D5F88800A16920F440506D
:1016C0000843C5F888002078000607D5D5F88800BB
:1016D000E16920F440400843C5F888002088C0052F
:1016E00007D5D5F88800216A20F440300843C5F8B2
:1016F00088002088800507D5D5F88800616A20F425
:1017000040200843C5F88800208840050FD5D5F84B
:101710008800A16A20F440100843C5F88800A06A38
:10172000B0F5801F03D1E86840F48010E86020889D
:1017300000050FD5D5F88800E16A20F44000084381
:10174000C5F88800E06AB0F5800F03D1E86840F47E
:101750008010E8602088C0040FD5D5F88800216B80
:1017600020F040700843C5F88800206BB0F1807FFE
:1017700003D1E86840F48010E86020884FF00061F1
:1017800080040ED5D5F88800626B20F040601043CD
:10179000C5F88800606B884203D1E86840F4801087
:1017A000E860208840040ED5D5F88800A26B20F0B0
:1017B00040601043C5F88800A06B884203D1E868F8
:1017C00040F48010E860208800040FD5D5F8880028
:1017D000E16B20F040500843C5F88800E06BB0F1A1
:1017E000805F03D1E86840F48030E8603046BDE8AF
:1017F000F883000000100240007000402DE9F0471F
:101800000E4605004FF0000725D0DFF8AC81D8F870
:10181000000000F00F00B0420CD2D8F8001021F008
:101820000F013143C8F80010D8F8000000F00F0095
:10183000B04210D12968614CC80741F2883A5AD0A9
:101840006868DFF87C91032808D0022820682DD032
:10185000400500282CDB0120BDE8F08720688001CE
:10186000F9D5E06800F00302E068C0F30310401C03
:10187000032A19D0534A00BFB2FBF0F0E268C2F36A
:1018800006225043E268C2F34162521C5200B0FB90
:10189000F2F0484517D9A06810F0F00F0CD0880777
:1018A00011D5A86840B10EE0474AE5E78003D0E7CC
:1018B00000F092F8484506D9A06820F0F00040F00A
:1018C0008000A0608027A068696820F003000843BA
:1018D000A060FFF751FD814606E000BFFFF74CFD19
:1018E000A0EB090151453AD8A068696800F00C00E6
:1018F000B0EB810FF2D12868810714D5400703D5DA
:10190000A06840F4E060A0602878000705D5A068D2
:1019100020F4605040F4E060A060A068A96820F066
:10192000F000084304E0802F03D1A06820F0F0000D
:10193000A060D8F80010404601F00F01B14216D95E
:10194000016821F00F0131430160FFF715FD0746E3
:1019500007E000BFFFF710FDC11B514501D903206F
:101960007AE7D8F8000000F00F00B042F2D12878F2
:10197000400705D5A068E96820F4E0600843A0604E
:101980002878000706D5A068296920F4605040EA4D
:10199000C100A06000F020F8A1680C4AC1F3031157
:1019A000515C01F01F01C8400949086009480068FE
:1019B000BDE8F047FFF7FEBC0020024000100240E7
:1019C00000B4C4040024F40000366E01024900088B
:1019D0000C00002000000020184910B58868C0F3F2
:1019E00081021748012A0BD08A68164BC2F3810284
:1019F000022A06D08A68C2F38102032A03D000209B
:101A000010BD184610BDCA6802F00304CA68C2F3CC
:101A10000312521C032C02D0B0FBF2F001E0B3FB26
:101A2000F2F0CA68C968C2F306225043C1F34161AB
:101A3000491C4900B0FBF1F010BD0000001002404D
:101A40000024F40000366E012DE9F84304007AD03A
:101A50002078FA4DC00747D0A868E96800F00C006C
:101A600001F003010C2802D0082817D001E0032957
:101A700014D06068B0F5803F17D0B0F5A02F28686B
:101A800017D020F480302860286820F48020286057
:101A90006068E0B1FFF770FC064614E02868800338
:101AA00022D560680028D2D01EE0286840F480303B
:101AB000EDE740F480202860F7E700BFFFF75CFC0B
:101AC000801B642870D828688003F7D50CE0FFF7E6
:101AD00053FC064605E000BFFFF74EFC801B642860
:101AE000F0D828688003F7D4207880074CD5A86800
:101AF000E96800F00C0001F003010C2802D0042872
:101B00000DD001E002290AD0E068002828682BD017
:101B100040F480702860FFF72FFC064619E0286823
:101B2000400502D5E068002891D06868217C20F04B
:101B3000FE4040EA01606860C1480068FFF73AFC77
:101B4000002800D120E076E1FFF716FC801B022878
:101B5000B8D828684005F7D56868217C20F0FE4099
:101B600040EA016068600FE020F480702860FFF7B1
:101B700003FC064605E000BFFFF7FEFB801B0228C2
:101B8000A0D828684005F7D42078000729D56069D7
:101B90000028D5F8940013D040F00100C5F8940057
:101BA000FFF7EAFB064606E090E000BFFFF7E4FB24
:101BB000801B022886D8D5F894008007F6D510E05F
:101BC00020F00100C5F89400FFF7D6FB064604E0BC
:101BD000FFF7D2FB801B022878D8D5F89400800745
:101BE000F6D42078400761D5A86D0026C00008D43F
:101BF000A86D40F08050A865A86D012600F08050C7
:101C0000009090480168C90511D40168804641F4EC
:101C100080710160FFF7B0FB074604E0FFF7ACFB03
:101C2000C01B022852D8D8F80000C005F6D5A0681D
:101C3000012815D00528D5F8900016D020F0010015
:101C4000C5F89000D5F8900020F00400C5F8900089
:101C5000A06841F28838B8B1FFF78EFB07460EE066
:101C6000D5F8900040F00100F0E740F00400C5F81E
:101C70009000F5E7FFF780FBC11B414526D8D5F85A
:101C800090008007F6D50CE0FFF776FB074604E0EE
:101C9000FFF772FBC11B414518D8D5F890008007AB
:101CA000F6D41EB1A86D20F08050A865207880067B
:101CB00029D5A0690028D5F8980013D040F001007C
:101CC000C5F89800FFF758FB064606E077E000BF2E
:101CD000FFF752FB801B022877D8D5F898008007C1
:101CE000F6D510E020F00100C5F89800FFF744FB9E
:101CF000064604E0FFF740FB801B022865D8D5F8B4
:101D000098008007F6D4E069F0B3A968C1F38101B7
:101D1000032961D00228286820F0807028600BD049
:101D2000E86820F00300E860E86847490840E86098
:101D3000FFF722FB04464BE0FFF71EFB064604E0DC
:101D4000FFF71AFB801B02283FD828688001F7D4D0
:101D5000F4E908016FF00F0202EB01110843218A38
:101D60005204490802EB4151A26841EA02210843AA
:101D7000217D4FF07E42490802EB41610843217BFF
:101D800040EAC160E96800E062E0304A114008437F
:101D9000E860286840F080702860E86840F0807053
:101DA000E860FFF7E9FA044605E000BFFFF7E4FA50
:101DB000001B022809D828688001F7D548E004E014
:101DC000FFF7DAFA001B022802D90320BDE8F883E6
:101DD00028688001F4D43BE00128F7D0E868226A43
:101DE00000F00301914226D1616A00F0F00209017E
:101DF000103991421FD1A26A00F4FE41B1EB022FCB
:101E000019D194F82C2000F07841B1EBC26F12D1B7
:101E1000218E00F4C00249084905A1F50011914244
:101E200009D194F8341000F0C06049084906A1F1C6
:101E3000007181420CD00120C8E700000010024070
:101E40000000002000700040FFFFEEFE0C809F01AC
:101E50000020BBE710B5401EB0F1807F01D3012008
:101E600010BD4FF0E02460610F21601702F052F8BE
:101E70000020A06107202061002010BD704770473E
:101E80007047704770477047F0B590F83C20012AC2
:101E90003AD0012580F83C50022280F83D200368AA
:101EA0005A689C68194E1A4FB34201D0BB4204D104
:101EB00022F4700C4A6842EA0C02DFF858C002EAC9
:101EC0000C02D1F800C04CEA020CC3F804C002684E
:101ED000B2420DD0B2F1804F0AD00F4B9A4207D0D8
:101EE0000E4B9A4204D0BA4202D00D4B9A4204D112
:101EF000896824F080031943916080F83D500021E7
:101F000080F83C100846F0BD0220F0BD002C0140D6
:101F1000003401408FFFFFFD000400400008004036
:101F200000400140704710B5040003D094F83D0014
:101F300010B107E0012010BD002084F83C002046CD
:101F400000F022F8022084F83D00211D206801F0F5
:101F500035FD012084F8480084F83E0084F83F00F5
:101F600084F8400084F8410084F8420084F843007B
:101F700084F8440084F8450084F8460084F847005B
:101F800084F83D00002010BD10B586B00446142131
:101F90006846FEF759FA21682748B1F1804F29D0E9
:101FA000264A914235D1816D41F002018165816DF2
:101FB00001F002010591C16C41F00201C164C06CE5
:101FC000002100F002000590102000900220CDE9D1
:101FD0000101CDE9031069461948FFF7DFF8002237
:101FE00011461D20FFF72EFA5FF01D00FFF71CFAC7
:101FF00006B010BD816D41F001018165806D002248
:1020000000F00100059011461C20FFF71BFA1C2070
:10201000ECE70C4A9142EBD1816D41F010018165F2
:10202000806D002200F01000059011463620FFF769
:1020300009FA3620DAE700000010024000040040F0
:10204000000400480010004090F83D10012901D024
:1020500001207047022180F83D100168CA6842F0F3
:102060000102CA600068104988420ED0B0F1804F6A
:102070000BD00E49884208D00D49884205D00D4941
:10208000884202D00C49884207D181680B4A11402E
:10209000062906D0B1F5803F03D0016841F0010167
:1020A0000160002070470000002C01400004004047
:1020B00000080040003401400040014007000100DA
:1020C00070B5044690F83C00012814D0012584F82E
:1020D0003C50022084F83D0022689068344B184040
:1020E00020F47F4090600868702827D010DC10F042
:1020F0000F0F03D04AE04FF0020070BD4FEA2012EC
:10210000072A43D2DFE802F05050505048313900DE
:10211000284BC21A984247D009DCB0F5805F35D011
:10212000B0F5005F15D0B0F1101F2FD13CE0102AA0
:102130003AD0202A38D0502A28D135E0CB68D1E9CE
:102140000121206801F09FFC2068816841F077013F
:1021500009E0CB68D1E90121206801F094FC2068F6
:10216000816841F48041816010E0CA684968206854
:1021700001F034FE5021206806E0CA6849682068F2
:1021800001F074FE6021206801F088FC84F83D5065
:10219000002084F83C0070BDCA684968206801F0DE
:1021A0001DFE40212068EFE7226801461046EBE75C
:1021B00088FFCEFF200010002DE9F04706462DEDE8
:1021C000028B00682A4988424ED1307F01284BD1CA
:1021D000284C274894F8201034308846012931D003
:1021E00000682349606138310F68214A0021243298
:1021F000E76111602169401A02F011F9894649EC42
:10220000100B054653EC102B9FED1B0B51EC100BE4
:1022100001F07EFFC4E90001A06949EC185B381A9F
:1022200002F0FDF853EC182B01F072FF9FED141B28
:1022300053EC112B02F042F9B8F1000FC4E902018E
:1022400010D003E0016821610068A0615FF0000028
:1022500084F820003046BDEC028B0021BDE8F04739
:1022600000F0CCB80120F3E7BDEC028BBDE8F087AD
:1022700000040040D80100200000000080842E41AE
:1022800000000000000059402DE9F041054690F89B
:102290003C000C46012836D0012085F83C008AB36A
:1022A000042A42D02868082A51D0D4E90023E168E2
:1022B000066A26F480560662C669076A26F44076E6
:1022C00046EA03234FF6FF7606EA013123F4704312
:1022D00019434FF4204627F4204306EA02321A43FA
:1022E000C16102622868C16921F44061C161286846
:1022F000C169A26841EA0221C161002085F83C0061
:10230000BDE8F08101E00220FAE7D4E90012E368B9
:10231000286801F075FD2868816921F00C01816150
:1023200028688169A26811430FE0D4E90012E368CC
:10233000286801F0ADFD2868816921F44061816160
:1023400028688169A26841EA02218161D5E7D4E960
:102350000027267B016A21F480710162C169036A4A
:1023600021F00301394321F0F00731074FF42066D3
:1023700047EA116123F4206306EA02221A43C1618D
:1023800002622868C16921F00C01C1612868C16935
:10239000A2681143B0E710B5040003D094F83D00E3
:1023A00010B107E0012010BD002084F83C00204659
:1023B00000F022F8022084F83D00211D206801F081
:1023C000FDFA012084F8480084F83E0084F83F00BC
:1023D00084F8400084F8410084F8420084F8430007
:1023E00084F8440084F8450084F8460084F84700E7
:1023F00084F83D00002010BD7047000010B5044671
:1024000079B1042912D0082915D00C2918D0102927
:1024100019D094F8430000BF94F84720012817D141
:1024200014E094F83E0094F84420F7E794F83F0055
:1024300094F84520F2E794F8400094F84620EDE740
:1024400094F84100E8E794F84200E5E7012A01D05A
:10245000012010BD022081B3042934D0082937D0CF
:102460000C293AD010293BD084F8430084F8470067
:102470000122206801F0FAFA1B49206888420ED038
:10248000B0F1804F0BD01949884208D018498842D2
:1024900005D01849884202D01749884207D181687F
:1024A000164A1140062906D0B1F5803F03D00168D5
:1024B00041F001010160002010BDFFE784F83E00FB
:1024C00084F84400D4E784F83F0084F84500CFE75F
:1024D00084F8400084F84600CAE784F84100C5E764
:1024E00084F84200C2E70000002C014000040040D4
:1024F0000008004000340140004001400700010096
:1025000010B5044679B1042912D0082915D00C2938
:1025100018D0102919D094F8430000BF94F8472030
:10252000012817D114E094F83E0094F84420F7E70E
:1025300094F83F0094F84520F2E794F8400094F8AE
:102540004620EDE794F84100E8E794F84200E5E71B
:10255000012A01D0012010BD022071B1042915D03B
:1025600008291CD00C2948D0102949D084F84300F0
:1025700084F847000C291BD145E084F83E0084F81C
:1025800044002068C26842F0020210E084F83F0074
:1025900084F845002068C26842F0040207E084F82D
:1025A000400084F846002068C26842F00802C26019
:1025B0000122206801F05AFA1549206888420ED09D
:1025C000B0F1804F0BD01349884208D0124988429D
:1025D00005D01249884202D01149884207D181684A
:1025E000104A1140062906D0B1F5803F03D001689A
:1025F00041F001010160002010BD84F84100B7E7FF
:1026000084F84200B4E72068C26842F01002CEE7C6
:10261000002C01400004004000080040003401404C
:10262000004001400700010070B5044600680169E0
:102630004FF00005C943890715D4C168C94389070C
:1026400011D4E91E0161012020772068806980078C
:10265000204602D0FFF7B0FD04E000F009F9204663
:1026600000F0C8F9257720680169C943490717D4E4
:10267000C168C943490713D46FF004010161022006
:1026800020772068806910F4407F204602D0FFF751
:1026900093FD04E000F0ECF8204600F0ABF925775C
:1026A00020680169C943090716D4C168C9430907ED
:1026B00012D46FF008010161042020772068C069FE
:1026C0008007204602D0FFF777FD04E000F0D0F845
:1026D000204600F08FF9257720680169C943C906B3
:1026E00017D4C168C943C90613D46FF01001016142
:1026F000082020772068C06910F4407F204602D06F
:10270000FFF75AFD04E000F0B3F8204600F072F93C
:10271000257720680169C943C90708D1C168C94341
:10272000C90704D1891E0161204600F065F92068BF
:102730000169C943090609D4C168C943090605D41A
:102740006FF0800101612046FFF799FB2068016965
:10275000C943C90509D4C168C943090605D46FF442
:10276000807101612046FFF789FB20680169C94338
:10277000490609D4C168C943490605D46FF0400130
:102780000161204600F082F920680169C943890689
:1027900009D4C168C943890605D46FF020010161DD
:1027A0002046FFF76DFB20680169C943C90209D4BF
:1027B000C168C943C90205D46FF480110161204684
:1027C000FFF760FB20680169C943890209D4C16829
:1027D000C943890205D46FF4001101612046FFF757
:1027E00050FB20680169C943490209D4C168C94343
:1027F000490205D46FF4800101612046FFF743FBD5
:1028000020680169C94309020BD4C168C9430902A0
:1028100007D46FF4000101612046BDE87040FFF766
:1028200081BB70BD10B586B0044614216846FDF723
:102830000BFE2068B0F1804F15D10C48C16C41F0FF
:102840000101C164C06C694600F0010005900220DE
:1028500000900190002002900390012004904FF01E
:102860009040FEF79BFC06B010BD00000010024037
:10287000704770B5044690F83C000D4601280BD017
:10288000012084F83C000C2A45D007DC5AB1042A08
:102890001BD0082A78D12CE0022070BD102A4ED01F
:1028A000142A71D15DE0206801F002F92068816985
:1028B00041F0080181612068816921F00401816192
:1028C000206881692A69114311E0206801F03EF90E
:1028D0002068816941F4006181612068816921F487
:1028E00080618161206881692A6941EA02218161F0
:1028F0004AE0206801F072F92068C16941F00801DE
:10290000C1612068C16921F00401C1612068C16909
:102910002A69114311E0206801F0A8F92068C16913
:1029200041F40061C1612068C16921F48061C16125
:102930002068C1692A6941EA0221C16124E0206856
:1029400001F0DCF92068016D41F0080101652068A3
:10295000016D21F0040101652068016D2A691143B0
:1029600011E0206801F002FA2068016D41F4006175
:1029700001652068016D21F4806101652068016DA9
:102980002A6941EA02210165002084F83C0070BDFB
:1029900010B5040003D094F83D0010B107E0012009
:1029A00010BD002084F83C00204600F022F80220F0
:1029B00084F83D00211D206801F000F8012084F812
:1029C000480084F83E0084F83F0084F8400084F812
:1029D000410084F8420084F8430084F8440084F8FD
:1029E000450084F8460084F8470084F83D00002044
:1029F00010BD70477047000070B5006820498842DC
:102A00003AD1204D01212846FEF7ACFC1E4C022194
:102A100020702846FEF7A6FC207304212846FEF706
:102A2000A1FC207601214FF09040FEF79BFC84F83A
:102A30002400002101EB410204EB82004368022BD9
:102A400003D314F82250012D07D014F82220502B64
:102A50000BD3012A03D02AB108E0012200E00222B0
:102A6000027203E00322027207E032B100224260E8
:102A7000491CC9B20429DDD370BD5B1C4360F7E774
:102A80000010004000040048A80100207047FEE745
:102A900070B533494A88002A61D1324C324E4880A1
:102AA000217A30780025012913D0022911D0217D07
:102AB00001291FD002291DD094F82010012925D00A
:102AC000022923D094F82C1001293AD0022938D0B9
:102AD0003AE0401CC0B23070022800D9357023A102
:102AE0002648FDF79FFC00282ED0307801282BD1F6
:102AF00023A122E026A12148FDF794FC27A1E0B9FB
:102B00001E48FDF78FFCF8B121A116E01CA11B485F
:102B1000FDF788FC0028F7D122A11848FDF782FCB8
:102B20000028F1D11AA11548FDF77CFC20B91BA1A2
:102B30001248FDF777FC38B11AA11048FDF7C4FB25
:102B400002E008B90D4885625FF0000000EB40012B
:102B500004EB8101401CC0B20D720428F6D370BD95
:102B600098010020A8010020180000206F75745FF4
:102B70007365745F706172610000000000020020E4
:102B80007365745F737461746570617261000000D5
:102B90007365745F68696768000000007365745F3F
:102BA0006C6F7700657869745F7365745F706172CC
:102BB0006100000000B585B014216846FDF744FCB3
:102BC0004FF6FF70009000200321CDE90201019033
:102BD00069460248FEF7E2FA05B000BD0008004869
:102BE00000B585B014216846FDF72EFC4FF6FF7046
:102BF000009001200190032003900020029069467C
:102C00000248FEF7CBFA05B000BD000000080048FE
:102C100070B5002406462146204600F0F5F900F084
:102C200033FA4FF49635304600F002FA641CAC4299
:102C3000F9D370BD30B587B014216846FDF704FCA8
:102C40001E48C16C41F00401C164C16C01F0040173
:102C50000591C16C41F00101C164C16C01F0010139
:102C60000591C16C41F00201C164C06C012500F006
:102C7000020005904FF44870CDE90005002403944C
:102C8000694602940E48FEF789FA280203940090E0
:102C9000CDE901544FF0904469462046FEF77EFA94
:102CA000FFF79EFFA06940F48070A06104481830CF
:102CB000016841F40871016007B030BD00100240A6
:102CC0000004004810B5394988B00A88002A6BD141
:102CD00008803748374C007820B1012827D00228D7
:102CE00040D055E034A1182000F0EAF837A168463A
:102CF000226AFDF7E9FA6946482000F0E1F838A1B8
:102D00006846A26AFDF7E0FA6946602000F0D8F84C
:102D100038A12848FDF786FB002839D139A125487C
:102D2000FDF7D2FA606BE063A06B206430E039A15C
:102D3000182000F0C5F83DA16846E26AFDF7C4FA24
:102D40006946482000F0BCF83DA16846226BFDF7BB
:102D5000BBFA6946602000F0B3F8E06B6063206C5A
:102D6000A06315E03BA1182000F0AAF83EA1684638
:102D7000E26BFDF7A9FA6946482000F0A1F840A1EE
:102D80006846226CFDF7A0FA6946602000F098F8CA
:102D9000084A41A14348FDF797FA08B04149BDE808
:102DA0001040D82000F08CB808B010BD9801002069
:102DB0001800002000020020202020202020204891
:102DC0004541525420202020202020002020202077
:102DD000202020526174653A256420200000000004
:102DE0002020202020202020436F6E3A25642020C0
:102DF00000000000657869745F7365745F706172CC
:102E0000610000006F75745F7365745F706172615B
:102E100000000000202020202020205245434F5257
:102E200044202020202020200000000020202020FE
:102E30002020204D61783A25642020202020200089
:102E4000202020202020204D696E3A25642020205B
:102E500020202000202020202020205041524120EE
:102E6000202020202020000020202020202020487A
:102E70006967683A25642020202020200000000097
:102E8000202020202020204C6F773A25642020200D
:102E9000202020200000000053746174653A2573DF
:102EA000202020006C010020203AD2B2034B02EB1C
:102EB000420203EB021200F019B8000012490008A8
:102EC000F0B50E460746002540F23F1407E02146C4
:102ED0003846FFF7E9FF103C6D1CA4B2761C32782F
:102EE000002A01D0142DF2D3F0BD00002DE9F047E7
:102EF00091468A460026044600F086F8DFF84080B6
:102F0000012700BF00F0C0F85FF0000539F8160097
:102F100007FA05F10842404601D1408800E00088E8
:102F200000F086F86D1C102DF0D3641CE4B25146FD
:102F3000204600F069F8761C182EE3D3BDE8F08730
:102F40001200002010B5FFF775FE002000F014F805
:102F5000084CA080A088A0F50241303906D000F0CE
:102F60008DFB002000F008F8A08010BD00F0FDFAF5
:102F7000F7E700001200002070B51D490A6842F40E
:102F800000720A600A6842F480720A60184C103CB1
:102F9000226842F020022260164A1060086840F061
:102FA0002000086000BF00BF00BF206840F0200084
:102FB0002060206840F480702060FFF7FBFD4FF038
:102FC0009041886A40F48070886200BF00BF00BFF3
:102FD0000848001F006885B2886940F480708861E5
:102FE000FFF7FEFD206840F400702060284670BDA9
:102FF000280400481408004801B5BDF80000014944
:10300000488008BD1200002010B50C460146202063
:1030100000F068F82146BDE81040212000F062B8B9
:1030200001B5BDF800000149088008BD120000206C
:10303000134A116841F400711160114910390B688D
:1030400043F480730B600B6843F020030B600D4B5F
:103050001860106840F02000106000BF00BF00BF83
:10306000086840F020000860086840F4807008603C
:1030700000BF00BF00BF086840F4007008607047E0
:1030800028040048140800481449086840F40070F7
:103090000860086840F480700860104810380268C2
:1030A00042F0200202600E4B22221A600A6842F0AF
:1030B00020020A6000BF00BF00BF016841F020018C
:1030C0000160016841F48071016000BF00BF00BF72
:1030D000016841F400710160704700002804004855
:1030E00014080048184B10B51A6842F400721A60B0
:1030F0001A6842F480721A60134A103A146844F055
:1031000020041460114C2060186840F02000186002
:1031100000BF00BF00BF106840F0200010601068C2
:1031200040F4807010602160186840F02000186042
:1031300000BF00BF00BF106840F0200010601068A2
:1031400040F48070106010BD280400481408004846
:1031500070B5254CA188002944D1244DA0804FF49E
:103160008070297801B1012100F074F829784FF4BA
:103170000070012914D0012100F06CF829784FF477
:10318000806002290ED0012100F064F818A11B48CC
:10319000FDF748F901004FF4006005D0002104E07C
:1031A0000021E9E70021EFE7012100F053F814A125
:1031B0001248FDF737F901004FF4805001D000218B
:1031C00000E0012100F046F8287800280AD1A18902
:1031D0004FF4005009B1002100E00121BDE870402A
:1031E00000F038B870BD00009801002018000020E1
:1031F0007365745F68696768000000000002002062
:103200007365745F6C6F770000EB8100006E00F0F7
:10321000F84070478068C0F3C00070478068C0F312
:1032200080007047042303EAD15310B51844436962
:10323000C1F3045107248C40A3438A4013434361E4
:1032400010BD00EB8100016E21F0004111430166C9
:10325000704700000E4A10B51388012913D083432C
:1032600003F47F400B49108080B208600A4C0122B1
:1032700004212046FEF77BF820460022BDE81040DE
:103280000421FEF774B800F47F401843EAE7000019
:103290001000002014080048000C004830B589B028
:1032A00020216846FDF7D0F819481849002401602C
:1032B0004902C0E90114C46004250461C0E9054560
:1032C000047744770121016280F82440C4620463DA
:1032D00080F83840C46380F84040FDF799FD08B19C
:1032E000FDF7BEFA0B4800900620CDE901047F20CF
:1032F0000594CDE9030569460548FDF773FB0028F1
:1033000001D0FDF7ADFA09B030BD0000000100505A
:103310001C0000200080F03EF0B587B01421684604
:10332000FDF792F82D48C16C41F00401C164C16CF5
:1033300001F004010591C16C41F02001C164C16C30
:1033400001F020010591C16C41F00101C164C16C23
:1033500001F001010591C16C41F00201C164C16C31
:1033600001F002010591C16C41F00801C164C06C1B
:103370001B4E00F008004FF47F44059000222146C8
:103380003046FDF7F4FF174F002204213846FDF7C1
:10339000EEFF0125CDE90045002402946946304640
:1033A0000394FDF7FBFECDE9005469464FF09040D1
:1033B0000295FDF7F3FE07208DE8310069460A48C3
:1033C000FDF7ECFE04200090CDE901546946384633
:1033D0000394FDF7E3FE07B0F0BD000000100240CB
:1033E00000080048000C00480004004810B58EB0EA
:1033F00000240794089409940A940B940C941C21BB
:1034000068460D94FDF720F81D484FF0804101609B
:10341000C721C0E901146321C0E903148461FEF7E8
:1034200082FD08B1FDF71CFA4FF48050079007A900
:103430001348FEF745FE08B1FDF712FA1048FFF7F2
:10344000A7FA08B1FDF70CFA0B940BA90C480D94E0
:10345000FEF71AFD08B1FDF703FA602000900A207C
:10346000CDE901040422694605480494FFF701FAF6
:1034700008B1FDF7F5F90248FFF7D4F90EB010BD19
:103480008800002010B58CB00024059422480494D4
:103490000694079408940A94099400940194029461
:1034A0001C49039401604F21C0E901144FF6FF71DC
:1034B000C0E9031480218161FEF735FD08B1FDF7F5
:1034C000CFF94FF48050049004A91348FEF7F8FD9B
:1034D00008B1FDF7C5F91048FEF75DFF08B1FDF72B
:1034E000BFF9089408A90C480A94FEF7CDFC08B16E
:1034F000FDF7B6F90120CDE90040029400226946AB
:1035000005480394FEF7C0FE002801D0FDF7A8F996
:103510000CB010BD00040040D40000203EB50024D3
:103520000F48009401940D49029401604F21C0E9B5
:10353000011442F20F718461C160FEF7F4FC08B11E
:10354000FDF78EF90094694605480294FEF79CFC4D
:10355000002801D0FDF784F93EBD000000100040B6
:1035600020010020FEE7FEE7704730B50121002072
:10357000FFF7B8FD4FF47A70FDF764F900210120E0
:10358000FFF7B0FD41F290711020FFF7ABFD4FF453
:103590001C516020FFF7A6FD01216120FFF7A2FD6D
:1035A00002214620FFF79EFD48F210011320FFF78D
:1035B00099FD48F2FE011220FFF794FD4FF4A0613F
:1035C0000220FFF78FFD41F230010320FFF78AFD53
:1035D00040F2033421463020FFF784FD214631209C
:1035E000FFF780FD21463220FFF77CFDE51E2946CE
:1035F0003320FFF777FD03213420FFF773FD2146C9
:103600003520FFF76FFD14213620FFF76BFD2146B3
:103610003720FFF767FD21463820FFF763FD21467D
:103620003920FFF75FFD29463A20FFF75BFD0321B4
:103630003B20FFF757FD21463C20FFF753FD4FF499
:10364000A0513D20FFF74EFD4FF400719220FFF78F
:1036500049FD21469320FFF745FD40F60D019020DE
:10366000FFF740FD41F218010320FFF73BFDBDE8E5
:10367000304040F273110720FFF734BD10B543F21C
:103680000801E320FFF72EFD1221E720FFF72AFDB6
:1036900041F23121EF20FFF725FD00210120FFF746
:1036A00021FD4FF4E0610220FFF71CFD41F23001E3
:1036B0000320FFF717FD00210420FFF713FD40F260
:1036C00007210820FFF70EFD00210920FFF70AFD62
:1036D00000210A20FFF706FD00210C20FFF702FD64
:1036E00000210D20FFF7FEFC00210F20FFF7FAFC60
:1036F00000211020FFF7F6FC07211120FFF7F2FC54
:1037000000211220FFF7EEFC00211320FFF7EAFC56
:10371000C820FDF731FD41F290611020FFF7E2FC77
:1037200040F227211120FFF7DDFC3220FDF724FDB8
:103730001D211220FFF7D6FC3220FDF71DFD4FF4AE
:1037400000611320FFF7CEFC14212920FFF7CAFCEB
:103750000B212B20FFF7C6FC3220FDF70DFD0021C9
:103760002020FFF7BFFC00212120FFF7BBFC072131
:103770003020FFF7B7FC40F207713120FFF7B2FCB1
:1037800006213220FFF7AEFC40F204713520FFF72E
:10379000A9FC41F604713620FFF7A4FC0421372070
:1037A000FFF7A0FC00213820FFF79CFC40F20671D7
:1037B0003920FFF797FC40F201713C20FFF792FCA3
:1037C0000F213D20FFF78EFC00215020FFF78AFCDF
:1037D000EF215120FFF786FC00215220FFF782FCE9
:1037E00040F23F115320FFF77DFC4FF41C51602045
:1037F000FFF778FC01216120FFF774FC00216A20AB
:10380000FFF770FC00218020FFF76CFC0021812075
:10381000FFF768FC00218220FFF764FC0021832071
:10382000FFF760FC00218420FFF75CFC002185206D
:10383000FFF758FC10219020FFF754FC0021922044
:10384000FFF750FC03219320FFF74CFC4FF48871E5
:103850009520FFF747FC00219720FFF743FC00214C
:103860009820FFF73FFC41F218010320FFF73AFCD4
:10387000BDE8104040F273110720FFF733BC7047DA
:1038800070B51A4A518900292ED15081184B194818
:1038900001245D78016A25B1C56AA94204DDC162CF
:1038A00006E001635C7003E0056BA94200DA016386
:1038B0009D7815B94B2545629C700E4B446A41F2C8
:1038C00088359B6A5B1CA14205DDC66BB4420ADCED
:1038D000B14206DC07E006DA066CB44203DBB14213
:1038E00001DA83629581416270BD00009801002079
:1038F000180000200002002010B5FDF743FD074925
:10390000002000BF31F8102012B1521E21F8102003
:10391000401CC0B20728F5D310BD0000980100205C
:1039200010B594B038216846FCF78EFD14210EA81E
:10393000FCF78AFD4FF40070FDF7B6FD0120009002
:103940000004019002200324CDE907041421CDE9ED
:103950000A100C900D9009946846FEF775F808B1AE
:1039600072B6FEE70F20CDE90E04002010901190F2
:10397000129002210EA8FDF741FF002801D072B677
:10398000FEE714B010BD00000248016841F4700168
:103990000160704788ED00E00148FEF745BE000079
:1039A000880000200148FEF73FBE0000D400002040
:1039B0000148FEF739BE0000200100202DE9F04348
:1039C0000268234B234D244E244C4FF080499842EB
:1039D00007D0484505D0A84203D0B04201D0A0424C
:1039E00003D122F070074A683A431D4FDFF874C0D4
:1039F000DFF8748098420DD048450BD0A84209D01A
:103A0000B04207D0A04205D0B84203D0604501D0F3
:103A1000404503D122F44075CA682A434D6922F01B
:103A200080022A4302608A68C2620A6882629842FF
:103A300007D0A04205D0B84203D0604501D0404530
:103A400001D10969016301214161BDE8F0830000F2
:103A5000002C0140000400400008004000340140F8
:103A600000400140004401400048014010B501F011
:103A70001F030121046A99408C430462016A9A4041
:103A80001143016210BD10B5846842EA032224F498
:103A90007F440A432243826010BD00008268034BCA
:103AA0001A400A4342F00701816070478FFFCFFF41
:103AB0002DE9F043026A22F001020262056A4368BE
:103AC00082691C4C25F0020522400C6822F003029A
:103AD00014438A68194E2A43174D194FDFF864C002
:103AE000DFF86490A84207D0B04205D0B84203D0B6
:103AF000604501D0484506D122F00808CA6842EA6C
:103B0000080222F00402A84207D0B04205D0B84211
:103B100003D0604501D0484505D14D6923F4407379
:103B20001D438B692B434360846149684163026292
:103B3000BDE8F0838FFFFEFF002C01400034014000
:103B4000004001400044014000480140F0B5026AD5
:103B500022F010020262056A42688369194C1B4E0A
:103B600023400C6823F4407343EA042425F0200327
:103B70008D6843EA0513144DA84201D0B04206D126
:103B8000CF6823F0800343EA071323F04003A842E1
:103B90000AD0B04208D00E4DA84205D00D4DA84223
:103BA00002D00D4DA84207D14D6922F4406242EA8D
:103BB00085028D6942EA85024260846149688163B9
:103BC0000362F0BDFF8FFFFE002C01400034014076
:103BD000004001400044014000480140F0B5026A45
:103BE00022F480720262056A4368C269194C1B4E56
:103BF00022400C6822F00302144325F400728D6801
:103C000042EA0522144DA84201D0B04206D1CF6845
:103C100022F4006242EA072222F48062A8420AD01B
:103C2000B04208D00E4DA84205D00E4DA84202D099
:103C30000D4DA84207D14D6923F4405343EA0513C3
:103C40008D6943EA05134360C4614968C163026238
:103C5000F0BD00008FFFFEFF002C0140003401404A
:103C6000004001400044014000480140F0B5026AB4
:103C700022F480520262056A4268C369194C1B4EE5
:103C800023400C6823F4407343EA042425F40053D2
:103C90008D6843EA0533144DA84201D0B04206D1E5
:103CA000CF6823F4004343EA073323F48043A84258
:103CB0000AD0B04208D00E4DA84205D00D4DA84202
:103CC00002D00D4DA84207D14D6922F4404242EA8C
:103CD00085128D6942EA85124260C46149680164B7
:103CE0000362F0BDFF8FFFFE002C01400034014055
:103CF00000400140004401400048014030B5026AE4
:103D000022F480320262046A4268036D114D2B4036
:103D10000D681D4324F400330C8943EA04430E4C20
:103D2000A0420BD00D4CA04208D00D4CA04205D0B3
:103D30000C4CA04202D00C4CA04204D14C6922F49D
:103D4000803242EA04224260056549688164036268
:103D500030BD00008FFFFEFF002C01400034014009
:103D600000400140004401400048014030B5026A73
:103D700022F480120262046A4268036D114D24F439
:103D800000142B400D6843EA05230D8944EA0554CD
:103D90000D4DA8420BD00D4DA84208D00C4DA842A5
:103DA00005D00C4DA84202D00B4DA84204D14D695C
:103DB00022F4802242EA8522426003654968C16498
:103DC000046230BDFF8FFFFE002C01400034014033
:103DD00000400140004401400048014010B5036A22
:103DE000046A24F001040462846924F0F00444EAC3
:103DF000021423F00A020A438461026210BD00002B
:103E000070B5046A24F0010404628469056A124EE4
:103E1000B0420ED0B0F1804F0BD0104EB04208D05F
:103E20000F4EB04205D00F4EB04202D00E4EB042FF
:103E300003D124F00304144301E044F001041A0701
:103E400024F0F00444EA126225F00A0301F00A01AA
:103E500019438261016270BD002C014000040040E2
:103E600000080040003401400040014010B5036AE2
:103E700023F0100303628369046A23F4704343EA66
:103E8000023224F0A00343EA01118261016210BDF5
:103E900030B5046A24F0100404628469056A24F4CD
:103EA000407444EA022222F470444FF6FF7202EAA0
:103EB00003322243A02425F0A00304EA0111194390
:103EC0008261016230BD0000054864213C22C0E9E6
:103ED0000F12C0E90D12034900200870704700005E
:103EE000000200201800002010B53220FEF7EAFE84
:103EF0006420FFF72DF90A20FEF7CAFD6420FCF7C5
:103F0000B1FC6420FCF704FCBDE810406420FFF71E
:103F1000B7BCFEE70907090E002804DB00F1E0202A
:103F200080F80014704700F00F0000F1E02080F8E6
:103F3000141D7047FDF72EFAFFF7F2FCFFF7ECF9BE
:103F4000FFF7ECFAFFF79EFAFFF750FAFFF7A6F932
:103F5000FEF7F8FF0020FEF75BFE0020FFF74CF8AD
:103F60004FF6FF742046FFF75BF801212046FFF76C
:103F700071F97F210948FCF7EBFC0948FEF764F86A
:103F800000210848FEF7BCFA04210648FEF7B8FAFB
:103F9000FFF79AFFFFF7A8FFFCE700001C000020D6
:103FA00020010020D400002010B591EA030F48BF83
:103FB00083F0004300F1BE83841A71EB030C05D239
:103FC000121943EB0C03001B61EB0C01DFF824E139
:103FD0004FEA1154A4EB135C1EEA430F18BF9EEA8C
:103FE000445F73D023EA0E03DCF1200E21EA045172
:103FF00043F4801332D322FA0CFE10EB0E0023FAA6
:104000000CFE41EB0E01CCF1200E03FA0EFE10EB7C
:104010000E0051F10001B1F5801FCCF1200E32D21B
:1040200001EB045112FA0EF2BDE8104058BF704780
:10403000401C38BF5FEA420218BF7047002814BF17
:1040400020F0010041F100014FEA410313F5001F88
:1040500038BF7047A1F1C04100F028BB012A43EBF3
:104060000302ACF1200CDCF11F0E32BF4FF0000E4A
:1040700023FA0CF310EB030041EB0451B4EB115F96
:10408000D0D0A1EB045101F5801149085FEA30005E
:1040900001EB04510ED350F1000038BF12FA0EFEAE
:1040A00008D1BDE81040C9E7401C38BF5FEA4202B2
:1040B000CAD1C3E7BDE810404FEA410313F5001F22
:1040C00038BF7047A1F1C04100F0F0BA9EEA445FEA
:1040D00008D011EA5E0FBDE8104004BF01F00041B6
:1040E00000207047BDE8104070B500F091FA00BFA5
:1040F00064FBBE3E0000E0FF491058BFC1F14041E3
:104100005B1058BFC3F140438B42EFF30080704710
:104110002DE9C04130B4DFF8A0C23CEA111418BF49
:104120003CEA131400F0EC8081EA03051CEA111448
:1041300044EAD57418BF1CEA131500F0C780A4EB3D
:1041400005044FF0004545EAC12145EAC32341EA91
:10415000505143EA525304F17F74994204F50034FC
:104160004FEAC0204FEAC22208BF904200F09C8074
:104170004FEA13650FF24016765D4FEA134506FBD2
:1041800005F7C7F1807706FB07F74FEAD737A7FB9C
:1041900003687642C8F58038A7FB06CE38BFA8F181
:1041A000010807FB08E64FF0000EA6FB028CE6FBB9
:1041B00003CEDCF1000CCEF1004E38BFAEF1010EA3
:1041C000A6FB0C584FF000074FF00005E6FB0E87EA
:1041D000A1FB08C6A0FB07CE16EB0E0645F10005B5
:1041E000E1FB076515F1E04E7EBFA4F580345FEA80
:1041F00046066D4116F1800745F100054FEA172785
:104200004FEA066647EA0567A6F1DE46B6F1805F2B
:104210004FEA15251FD9384624F0010C05EBC4716F
:10422000BCF1FE6F01EB0C1102D8F0BCBDE80081BF
:1042300024425CBF01F5801E9EEAC47F02D4F0BC1C
:10424000BDE80081244238D4F0BCA1F1C041BDE8F2
:10425000004100F02BBA4FEAD22242EA43524FEA21
:10426000D323A7FB02864FEAD02040EA415007FB48
:1042700003661EEA0E0F4FEAD12105FB026658BF06
:10428000A6EB0056B6EB00564FEA520E4EEAC37E3E
:1042900018EB0E0E56EB530EBDD518EB02085E411F
:1042A0007F1C55F10005B6E74FF480154FF000076D
:1042B0004FF000064FF00008ADE7F0BC4FF00000F3
:1042C00001F1C04101F00041BDE8008111EA0C1F7D
:1042D0000CEA131500D00CE013EA0C1F00F0258047
:1042E0004FF00000F0BC81EA030101F00041BDE89D
:1042F0000081F0BCBDE8004181EA030100F0D6B9BD
:10430000F0BCBDE8004170B500F082F9097EFC3ECA
:1043100000F007B881EA03014FF0000001F000410E
:10432000704781EA030100F0C1B9F0BCBDE800416B
:104330004FF0000021497047FFFDFBF9F7F5F4F25B
:10434000F0EEEDEBE9E8E6E4E3E1E0DEDDDBDAD830
:10435000D7D5D4D3D1D0CFCDCCCBCAC8C7C6C5C48E
:10436000C2C1C0BFBEBDBCBBBAB9B8B7B6B5B4B3A5
:10437000B2B1B0AFAEADACABAAA9A8A8A7A6A5A490
:10438000A3A3A2A1A09F9F9E9D9C9C9B9A99999854
:104390009797969595949393929191908F8F8E8EF7
:1043A0008D8C8C8B8B8A8989888887878685858484
:1043B00084838382828181800000FF070000F87F70
:1043C0004FEA41034FEA5353A3F58063D3F11E0331
:1043D000C8BFD3F1210C0CDD4FF0004242EAC122EC
:1043E00042EA505232FA03FC8CEAE17CACEBE17019
:1043F0007047102BC4BF0020704703F5787CBCF1D8
:10440000FF3F04D06FF0004282EA2100704770B590
:1044100000F0FEF84992248000207047F2E7B0FADD
:1044200080F310FA03F10AD0C3F11D0303F5806392
:104430004FEA41504FEA035202EBD12170474FF04F
:104440000000704751EA030C17D41CF5801F58BFB9
:10445000BCF5801F00F10680994218BF704708BF65
:104460009042704707D711F5801F58BF13F5801F82
:1044700019D499427047894270471CF5801F08D5AE
:10448000BCF5801FF7D58B4218BF704708BF82422A
:1044900070474FF4001C1CEB410F38BF1CEB430F5F
:1044A00001D28B42704770B500F0B2F892244900F7
:1044B0004FF000514FF08053FFF71EBEDFF848C1A8
:1044C00070B51CEA111E1EBF1CEA13159EEA0C0FE4
:1044D00095EA0C0F00F06F8081EA030423EA4C1385
:1044E0004EEAD47E21EA4C1141F4801143F480134A
:1044F000AE44A1FB024CA0FB0365AEF17F7E3619F2
:1045000055EB0C05A1FB034C4CF10003A0FB021C76
:1045100016EB0C06654153F10003094218BF46F043
:10452000010613F4007F0BD14FEA03314FEA053047
:10453000340341EA155140EA16506FF003020AE0D5
:104540004FEAC3214FEAC520F40241EA555140EA3F
:1045500056506FF0020202EB2E4201EB025585EA43
:10456000CE710AD05FEA440C18BF24F0004450F129
:10457000000041F1000120EAD47040F2FE7C624567
:1045800000D270BDA84214BF4FF080444FF04044A9
:10459000002E08BF0024BEF1806FA8BFA1F1C0416A
:1045A000BDE8704080F282804FF0000001F1C04110
:1045B00001F0004170479EEA0C0F0CEA131518BF7A
:1045C00095EA0C0F06D04FF0000081EA030E0EF0C2
:1045D000004170BD00F01CF88900013E00F007B8F2
:1045E00000F009B84FEA430C5FEA5C5C08D081EA4E
:1045F000030100F05BB84FEA410C5FEA5C5CF6D166
:104600004FF00000014970470000FF070000F87FED
:104610000EF1020E2EF0030E5EF8046B364205D446
:10462000012A43EB030515F5001F12D8012841EBC1
:10463000010C1CF5001F0CD80ED14FEAD17C15F5EA
:10464000001F0CEB4C0C0CF1020C08BF4CEBD37CA4
:1046500004E04FF0080C01E04FEAD37C0CEB4C0572
:1046600026FA05F606F00706B6F1040C06D20EEBA4
:10467000860CBDE870404CF0010C6047DFE80CF0A0
:10468000090B02024FF000414FF00000A1F500219C
:1046900070BD19461046012851EB010418BFD4F52E
:1046A000001484BF002001F0004170BD0808A0F58F
:1046B00000114FEA3101704753EA010C17D41CF581
:1046C000801F58BFBCF5801F00F106808B4218BFC9
:1046D000704708BF8242704707D713F5801F58BF45
:1046E00011F5801F19D48B4270479B4270471CF50F
:1046F000801F08D5BCF5801FF7D5994218BF7047B9
:1047000008BF904270474FF4001C1CEB430F38BFAA
:104710001CEB410F01D2994270470FB40CBC03BC93
:10472000FFF7C1BE10B591EA030F48BF83F0004305
:104730003FF542AC841A71EB030C07D212198CF0CE
:10474000004C43EB0C03001B61EB0C01DFF8A4E110
:104750004FEA1154A4EB135C1EEA430F18BF9EEA04
:10476000445F00F0B08023EA6E03524221EA045114
:10477000C3EB6E0338BF5B1EDCF1200E25D322FA9B
:104780000CFE10EB0E0043FA0CFE41EB0E01CCF1D7
:10479000200E03FA0EFE10EB0E0051F10001CCF1D9
:1047A000200E29D412FA0EF201EB0451BDE810409C
:1047B00058BF7047401C1CBFB2F1004F7047002823
:1047C0000CBF491C20F00100704712EB020E43EBB6
:1047D000030218BF4FF0010E4EEA4202ACF1200C6A
:1047E000DCF11E0E54D943FA0CFE10EB0E0051F111
:1047F000FF31CCF11E0ED5D50EF1010E12FA0EFED0
:10480000404141EB010101EB445C5FEA5C5C10D983
:1048100010EBDE7001EB045138BFBEF1004FBDE874
:10482000104018BF704700280CBF491C20F0010041
:10483000704730D24FEAD42C11F5001124F40064F3
:104840001BD0B1FA81F20B3AA41AA41ED2F12003B4
:10485000914030FA03F31943904001EBCC71002CE6
:1048600001EB0451BDE81040A8BF704701F1C04101
:104870004FF0000001F000417047B0FA80F310FAE9
:1048800003F100D110BDE41A173C4805C90AE4E75A
:1048900001EB045110BD491001EB0451BDE810407B
:1048A0004FEA300002E04FF0000170474A0008BFB5
:1048B0000042F8D0B2F5001F28BF704701F0004158
:1048C0004FF0000070479EEA445F07D011EA5E0F88
:1048D000BDE8104004BF002100207047BDE8104033
:1048E00070B5FFF795FE00BF40DFF63E83F0004154
:1048F000104670470000E0FF4FF04070E1EE100AF4
:1049000070470000000000000000010203040607D9
:104910000809000000000000000000000000000086
:104920000000000000000000000000000000000087
:104930000000000000000000000000000000000077
:104940000000000080018001800180018001800161
:1049500080018001800180018001800180010000D0
:104960000000800180010000000000000000000045
:10497000000000000000CC00CC00CC00CC00CC003B
:10498000CC0000000000000000000000000000005B
:104990000000000000000000000000000000000017
:1049A0000000000000000000000000000000600C9B
:1049B000600C600C30063006FE1FFE1F3006380704
:1049C0001803FE1FFE1F180318038C018C018C01B5
:1049D000000000008000E003F80F9C0E8C1C8C1877
:1049E0008C009800F801E007800E801C8C188C1851
:1049F0009C18B80CF00FE00380008000000000005D
:104A000000000000000000000E181B0C110C110625
:104A10001106110311039B018E01C038C06C604464
:104A20006044304430441844186C0C3800000000D6
:104A300000000000E001F0033807180618063003F4
:104A4000F001F000F8009C310E33061E061C061C17
:104A5000063FFC73F0210000000000000000000091
:104A60000000000000000C000C000C000C000C000A
:104A70000C0000000000000000000000000000002A
:104A80000000000000000000000000000000000026
:104A900000000000000200038001C000C0006000B0
:104AA0006000300030003000300030003000300056
:104AB000300060006000C000C00080010003000200
:104AC0000000000020006000C000800180010003A1
:104AD00000030006000600060006000600060006A9
:104AE00000060003000380018001C0006000200078
:104AF0000000000000000000000000000000C000F6
:104B0000C000D806F807E0013003380700000000B5
:104B10000000000000000000000000000000000095
:104B20000000000000000000000000000000800104
:104B30008001800180018001FC3FFC3F80018001F9
:104B400080018001800100000000000000000000E2
:104B50000000000000000000000000000000000055
:104B60000000000000000000000000000000000045
:104B700000000000800180010001000180000000B1
:104B80000000000000000000000000000000000025
:104B900000000000000000000000E007E007000047
:104BA0000000000000000000000000000000000005
:104BB00000000000000000000000000000000000F5
:104BC00000000000000000000000000000000000E5
:104BD00000000000C000C000000000000000000055
:104BE00000000000000C000C000600060006000398
:104BF000000300038003800180018001C000C00029
:104C0000C000600060000000000000000000000024
:104C100000000000E003F007380E180C0C180C1808
:104C20000C180C180C180C180C180C180C18180C64
:104C3000380EF007E0030000000000000000000054
:104C40000000000000018001C001F001980188010E
:104C5000800180018001800180018001800180014C
:104C600080018001800100000000000000000000C1
:104C700000000000E003F80F180C0C180C180018C6
:104C80000018000C000600038001C0006000300026
:104C90001800FC1FFC1F00000000000000000000C6
:104CA00000000000E001F807180E0C0C0C0C000CC2
:104CB0000006C003C007000C001800180C180C18E0
:104CC000180CF807E00300000000000000000000DE
:104CD00000000000000C000E000F000F800DC00C43
:104CE000600C600C300C180C0C0CFC3FFC3F000CF2
:104CF000000C000C000C0000000000000000000090
:104D000000000000F80FF80F180018000C00EC036A
:104D1000FC071C0E001C0018001800180C181C0CB6
:104D2000180EF807E003000000000000000000007B
:104D300000000000C007F00F381C181818000C0005
:104D4000CC03EC0F3C0E1C1C0C180C180C18181C77
:104D5000380EF007E0030000000000000000000033
:104D600000000000FC1FFC1F000C000600060003F2
:104D700080038001C001C000E0006000600070009E
:104D80003000300030000000000000000000000093
:104D900000000000E003F007380E180C180C180C87
:104DA0003806F007F007180C0C180C180C180C1823
:104DB000380CF80FE00300000000000000000000C5
:104DC00000000000E003F007380E1C0C0C180C1853
:104DD0000C181C1C381EF81BE0190018000C000CE5
:104DE0001C0EF807F00100000000000000000000A9
:104DF0000000000000000000000000000000800132
:104E00008001000000000000000000000000000021
:104E10000000800180010000000000000000000090
:104E20000000000000000000000000000000800101
:104E300080010000000000000000000000000000F1
:104E400000008001800100010001800000000000DE
:104E50000000000000000000000000000000000052
:104E600000000010001C800FE003F8001800F8009C
:104E7000E003800F001C0010000000000000000094
:104E80000000000000000000000000000000000022
:104E90000000F81F000000000000F81F00000000E4
:104EA0000000000000000000000000000000000002
:104EB00000000000000000000000000000000000F2
:104EC000000008003800F001C007001F0018001F94
:104ED000C007F001380008000000000000000000DA
:104EE00000000000E003F80F180C0C180C18001854
:104EF000000C000600038001C000C000C0000000DC
:104F00000000C000C0000000000000000000000021
:104F1000000000000000E00718180420C229224AFF
:104F2000114409440944094409221113E20C0240C6
:104F300004201818E0070000000000000000000036
:104F40000000000080038003C006C006C006600C9D
:104F5000600C301830183018F83FF83F1C700C60A7
:104F60000C6006C006C00000000000000000000049
:104F700000000000FC03FC0F0C0C0C180C180C18A3
:104F80000C0CFC07FC0F0C180C300C300C300C30E7
:104F90000C18FC1FFC0700000000000000000000CF
:104FA00000000000C007F01F38381C300C7006608D
:104FB00006000600060006000600060006600C70EB
:104FC0001C30F01FE007000000000000000000009F
:104FD00000000000FE03FE0F060E0618061806303D
:104FE0000630063006300630063006300618061841
:104FF000060EFE0FFE03000000000000000000008F
:1050000000000000FC3FFC3F0C000C000C000C00FA
:105010000C00FC1FFC1F0C000C000C000C000C0012
:105020000C00FC3FFC3F00000000000000000000FE
:1050300000000000F83FF83F1800180018001800A2
:105040001800F81FF81F18001800180018001800A2
:105050001800180018000000000000000000000008
:1050600000000000E00FF83F3C780E6006E007C04B
:105070000300030003FE03FE03C007C006C00EC00A
:105080003CF0F83FE00F00000000000000000000CE
:10509000000000000C300C300C300C300C300C30A8
:1050A0000C30FC3FFC3F0C300C300C300C300C3022
:1050B0000C300C300C30000000000000000000003C
:1050C00000000000800180018001800180018001DA
:1050D00080018001800180018001800180018001C8
:1050E000800180018001000000000000000000003D
:1050F000000000000006000600060006000600068C
:10510000000600060006000600060006180618063F
:105110003807F003E001000000000000000000007C
:105120000000000006300618060C0606060386017D
:10513000C60066007600DE008E0106030606060C39
:1051400006180630066000000000000000000000A5
:1051500000000000180018001800180018001800BF
:10516000180018001800180018001800180018007F
:105170001800F81FF81F00000000000000000000E9
:10518000000000000EE01EF01EF01EF036D836D8EB
:1051900036D836D866CC66CC66CCC6C6C6C6C6C6B9
:1051A000C6C686C386C300000000000000000000E1
:1051B000000000000C301C303C303C306C306C3057
:1051C000CC30CC308C310C330C330C360C360C3CE0
:1051D0000C3C0C380C300000000000000000000007
:1051E00000000000E007F81F1C380E70066003C0C6
:1051F00003C003C003C003C003C003C006600E7039
:105200001C38F81FE007000000000000000000004C
:1052100000000000FC0FFC1F0C380C300C300C3070
:105220000C300C18FC1FFC070C000C000C000C00D0
:105230000C000C000C00000000000000000000004A
:1052400000000000E007F81F1C380E70066003E045
:1052500003C003C003C003C003C007E006630E3FE2
:105260001C3CF83FE0F700C0000000000000000018
:1052700000000000FE0FFE1F063806300630063024
:105280000638FE1FFE0706030606060C061806185B
:10529000063006300660000000000000000000003C
:1052A00000000000E003F80F1C0C0C180C180C0098
:1052B0001C00F803E00F001E0038063006300E30E8
:1052C0001C1CF80FE00700000000000000000000B8
:1052D00000000000FE7FFE7F8001800180018001D0
:1052E00080018001800180018001800180018001B6
:1052F000800180018001000000000000000000002B
:10530000000000000C300C300C300C300C300C3035
:105310000C300C300C300C300C300C300C300C30AD
:105320001818F81FE007000000000000000000004F
:105330000000000003600630063006300C180C1820
:105340000C18180C180C380E300630067007600365
:105350006003C001C0010000000000000000000068
:10536000000000000360C361C361C361663366333C
:1053700066336633663366336C1B6C1B6C1B2C1AEE
:105380003C1E380E380E0000000000000000000037
:10539000000000000FE00C7018303018700C600E28
:1053A000C00780038003C003E006700C301C18188F
:1053B0000C300E6007E0000000000000000000005C
:1053C0000000000003C006600C301C383818300C98
:1053D0006006E007C0038001800180018001800138
:1053E000800180018001000000000000000000003A
:1053F00000000000FC7FFC7F006000300018000C03
:10540000000600038001C0006000300018000C009E
:105410000600FE7FFE7F000000000000000000008C
:1054200000000000E003E003600060006000600036
:10543000600060006000600060006000600060006C
:10544000600060006000600060006000E003E00356
:105450000000000030003000600060006000C0000C
:10546000C000C000C0018001800180010003000372
:10547000000300060006000000000000000000001D
:1054800000000000E003E00300030003000300034A
:1054900000030003000300030003000300030003F4
:1054A000000300030003000300030003E003E00324
:1054B000000000000000C001C00160036003600341
:1054C00030063006180C180C000000000000000028
:1054D00000000000000000000000000000000000CC
:1054E00000000000000000000000000000000000BC
:1054F00000000000000000000000000000000000AC
:1055000000000000FFFFFFFF00000000000000009F
:10551000000000000C000C000C000C000C000C0043
:10552000000000000000000000000000000000007B
:10553000000000000000000000000000000000006B
:105540000000000000000000000000000000F00368
:10555000F8071C0C0C0C000FF00FF80C0C0C0C0CCA
:105560001C0FF80FF0180000000000000000000001
:105570000000000018001800180018001800D803D8
:10558000F80F380C181818181818181818181818B0
:10559000380CF80FD80300000000000000000000E5
:1055A0000000000000000000000000000000C00338
:1055B000F007300E180C1800180018001800180C0E
:1055C000300EF007C00300000000000000000000E3
:1055D0000000000000180018001800180018C01B78
:1055E000F01F301C18181818181818181818181840
:1055F000301CF01FC01B0000000000000000000075
:105600000000000000000000000000000000C003D7
:10561000F00F300C1818F81FF81F18001800381871
:10562000301CF00FC0070000000000000000000068
:1056300000000000800FC00FC000C000C000F007D5
:10564000F007C000C000C000C000C000C000C00023
:10565000C000C000C000000000000000000000000A
:105660000000000000000000000000000000E00D4D
:10567000F80F180E0C0C0C0C0C0C0C0C0C0C0C0C6D
:10568000180EF80FE00D000C0C0C1C06F807F001CA
:105690000000000018001800180018001800D807B3
:1056A000F80F381C1818181818181818181818187F
:1056B000181818181818000000000000000000005A
:1056C00000000000C000C000000000000000C0009A
:1056D000C000C000C000C000C000C000C000C000CA
:1056E000C000C000C000000000000000000000007A
:1056F00000000000C000C000000000000000C0006A
:10570000C000C000C000C000C000C000C000C00099
:10571000C000C000C000C000C000C000F800780099
:10572000000000000C000C000C000C000C000C0C25
:105730000C060C038C01CC006C00FC009C018C035B
:105740000C030C060C0C0000000000000000000020
:1057500000000000C000C000C000C000C000C000C9
:10576000C000C000C000C000C000C000C000C00039
:10577000C000C000C00000000000000000000000E9
:1057800000000000000000000000000000007C3C61
:10579000FF7EC7E383C183C183C183C183C183C14A
:1057A00083C183C183C1000000000000000000002D
:1057B000000000000000000000000000000098074A
:1057C000F80F381C1818181818181818181818185E
:1057D0001818181818180000000000000000000039
:1057E0000000000000000000000000000000C003F6
:1057F000F00F300C1818181818181818181818184E
:10580000300CF00FC003000000000000000000009A
:105810000000000000000000000000000000D803AD
:10582000F80F380C1818181818181818181818180D
:10583000380CF80FD80318001800180018001800CA
:105840000000000000000000000000000000C01B7D
:10585000F01F301C181818181818181818181818CD
:10586000301CF01FC01B001800180018001800188A
:105870000000000000000000000000000000B00771
:10588000F003700030003000300030003000300095
:105890003000300030000000000000000000000078
:1058A0000000000000000000000000000000E00315
:1058B000F003380E180C3800F003C007000C180C69
:1058C000380EF007E00300000000000000000000B8
:1058D0000000000000008000C000C000C000F00711
:1058E000F007C000C000C000C000C000C000C00081
:1058F000C000C0078007000000000000000000009A
:105900000000000000000000000000000000181867
:105910001818181818181818181818181818181807
:10592000381CF01FE019000000000000000000001B
:1059300000000000000000000000000000000C1843
:10594000180C180C180C3006300630066003600383
:105950006003C001C0010000000000000000000062
:105960000000000000000000000000000000C14135
:10597000C141C3616363636363633636363636366B
:105980001C1C1C1C1C1C000000000000000000006F
:1059900000000000000000000000000000001C38B3
:1059A000381C300C6006600360036003600360060F
:1059B000300C381C1C380000000000000000000003
:1059C000000000000000000000000000000018308F
:1059D000301830187018600C600CE00CC006C0065F
:1059E00080038003800380018001C001F00070000B
:1059F0000000000000000000000000000000FC1F8C
:105A0000FC1F000C000600038001C0006000300095
:105A10001800FC1FFC1F0000000000000000000038
:105A20000000000000038001C000C000C000C000F2
:105A3000C000C00060006000300060004000C00096
:105A4000C000C000C000C000C00080010003000012
:105A50000000000080018001800180018001800140
:105A6000800180018001800180018001800180012E
:105A7000800180018001800180018001800180011E
:105A8000000000006000C000C001800180018001B2
:105A90008001800100030003000600030001800173
:105AA00080018001800180018001C0006000000051
:105AB00000000000000000000000000000000000E6
:105AC0000000F010F81F080F0000000000000000A8
:105AD00000000000000000000000000000000000C6
