:020000040800F2
:100000001808002099020008E7420008073A000893
:10001000E5420008ED160008054C0008000000004D
:10002000000000000000000000000000FF45000884
:10003000EF16000800000000E94200080146000831
:10004000B3020008B3020008B3020008B3020008BC
:10005000B3020008B3020008B3020008B3020008AC
:10006000B3020008B3020008B3020008B30200089C
:10007000B3020008B3020008B3020008B30200088C
:10008000B302000800000000B3020008B302000839
:10009000B3020008B3020008B3020008B30200086C
:1000A000B3020008B3020008B3020008B30200085C
:1000B000A1460008AD460008B3020008B3020008DC
:1000C000B3020008B3020008B3020008B30200083C
:1000D000B3020008B3020008B3020008B30200082C
:1000E000B3020008B3020008B3020008B30200081C
:1000F000B3020008B3020008B302000800000000C9
:1001000000000000B302000800000000B302000875
:10011000B302000800000000B9460008B30200085E
:10012000B3020008B3020008B3020008B3020008DB
:10013000B30200080000000000000000B302000845
:10014000B3020008B3020008000000000000000035
:10015000000000000000000000000000000000009F
:10016000000000000000000000000000B3020008D2
:10017000B3020008000000000000000000000000C2
:1001800000000000B30200080000000000000000B2
:10019000000000000000000000000000000000005F
:1001A0000000000000000000B3020008B3020008D5
:1001B000B3020008B3020008B30200080000000008
:1001C00000000000B3020008000000000000000072
:1001D000B3020008B302000800F002F800F04CF887
:1001E0000AA090E8000C82448344AAF10107DA4592
:1001F00001D100F041F8AFF2090EBAE80F0013F098
:10020000010F18BFFB1A43F001031847046A0000EE
:10021000246A0000103A24BF78C878C1FAD852077F
:1002200024BF30C830C144BF04680C607047000070
:100230000023002400250026103A28BF78C1FBD8EF
:10024000520728BF30C148BF0B607047662905F0D0
:10025000A283642900F05480002070471FB505F088
:1002600090FB00F0C1FB04000020002104F0A8FE78
:10027000E0601FBD10B510BD00F0B6FC1146FFF7E1
:10028000EDFF04F057FE00F0D4FC03B4FFF7F2FFDB
:1002900003BC00F017FD00000948804709480047EB
:1002A000FEE7FEE7FEE7FEE7FEE7FEE7FEE7FEE726
:1002B000FEE7FEE704480549054A064B7047000083
:1002C00091460008D90100081802002018080020F3
:1002D00018040020180400200FB41CB5074B06AA10
:1002E0007B4469460090059800F065FB0020694654
:1002F00000F074FB1CBC5DF814FB0000F906000064
:100300002DE9F0410646002410687529314616A5EE
:1003100010D0AFF30080002802DA404213A507E0B6
:1003200031688A0701D512A502E0490704D511A555
:10033000012401E0AFF3008000210A2206F1240726
:1003400009E0B0FBF2FCB0FBF2F302FB1C00303022
:1003500078541846491C0028F3D123462A463046D3
:10036000BDE8F04100F0B9B8000000002D00000029
:100370002B000000200000002DE9F0474FF0000A9C
:1003800089460446C0F820A02046E1688847002836
:1003900076D0252806D0D4E901219047206A401C58
:1003A0002062F1E7E168204600258847C4F81CA0D8
:1003B00006460027C4F818A02A2E09D0304604F0BB
:1003C0004AFC38B304EB8708303EC8F8186019E0DF
:1003D00059F8041B204604EB87029161E1688847C5
:1003E000012F064618D1E069002820DA25F0200503
:1003F0001DE0D8F8180000EB800006EB4000303814
:10040000C8F818002046E1688847064604F023FC37
:100410000028EED1012F0AD02E2E08D12046E16807
:1004200088477F1C0646022F45F02005C4DBA069E3
:10043000002803DA404245F00105A061E80701D039
:1004400025F01005B6B1A6F14100192802D82036D2
:1004500045F400654A463146204625604D46FFF783
:10046000F5FE58B1012806D0ED1D25F0070000F17A
:10047000080989E704E005F1040985E730468AE7C1
:10048000206ABDE8F0874FF0000200B5134694469D
:100490009646203922BFA0E80C50A0E80C50B1F1DC
:1004A0002001BFF4F7AF090728BFA0E80C5048BFF0
:1004B0000CC05DF804EB890028BF40F8042B08BF8E
:1004C000704748BF20F8022B11F0804F18BF00F88A
:1004D000012B70477047704770472DE9F0470D4674
:1004E00099469246044600F124080168880604D51E
:1004F000E06921F01001216000E00120A84201DD47
:10050000471B00E00027A1697A1902EB0900081ACD
:10051000A0612078C00602D42046AFF300800026F8
:1005200008E0D4E901211AF806009047206A401C2F
:10053000761C20624E45F4DB2078C0060AD52046A2
:10054000AFF3008006E0D4E9012130209047206A13
:10055000401C2062381EA7F10107F4DC07E0D4E953
:10056000012118F805009047206A401C2062281ECF
:10057000A5F10105F3DC2046AFF3008020780006EA
:1005800002D50220BDE8F0870120FBE770472DE986
:10059000FF4F0C461E464FF0FF378BB0D2E90001EB
:1005A000DDF860800A908A46C1F30A5505B93D46D8
:1005B000002108464FF00000BAF1000F00F440009F
:1005C00005DA00EB80004FF4400101EA50004FEAE9
:1005D0009059B9F1010F00DDB9460A9850EA4A0076
:1005E0000ED044F61050A5F2FF3545432F14B8F154
:1005F000000F1ED07542291E1EDDC9F100021CE04D
:10060000B8F1010F4FF0000001D0302103E0F243B8
:1006100005E02154401CB042FBDB304600220021A3
:1006200021540B99C1F80880C1E900200FB0BDE842
:10063000F08FBD1B6D1CDEE74A4600DA694206A852
:1006400000F05CFA06AB93E8070003AB83E8070011
:1006500050460A9900F03DFB8DE80700A0F50050D8
:100660001F3800900398002D0ADD42F21F014A4610
:100670000844002303A90390684600F0A6FD09E0A2
:10068000A0F500504A461F38002303A9039068468E
:1006900000F0B0FD8DE807000004000C03D04FF01F
:1006A000FF30410800E01046B8F1000F03D00022EF
:1006B000009215461EE0751E05D400F099F93032FF
:1006C00062556D1EF9D5B3460122084302D00022BF
:1006D0007F1C04E02078302801D100227F1E002AF0
:1006E000099784D01DE0112D07DA00F081F930322E
:1006F00062556D1C50EA0102F5D1084302D0009802
:10070000C8B10EE00021681E05E0235C625C635402
:100710002254401E491C8142F7DBAB46A81B401EF9
:100720000990002004F80B000B98099AC0F8088083
:10073000C0E9002B7AE711264FF0000857E72DE9B2
:10074000F04F88460446D21D22F0070191B0D1E94E
:100750000001CDE90A0104F056FA02460B98C00FD9
:1007600001D02D2007E02068810701D52B2002E071
:10077000202101EAC000032A099001D0072A05DBE5
:1007800003464146204600F079F90BE120788006C7
:1007900001D5E06900E00620B8F1650F814606D07A
:1007A000B8F1660F18D0B8F1670F70D131E00020B2
:1007B000B9F1110F009001DB112301E009F10103F0
:1007C0000AAA01A90CA8FFF7E2FEDDE90C700026D9
:1007D00009F10105834647E001204B4600904FF0A8
:1007E00000470AAA01A90CA8FFF7D1FEDDE90DB068
:1007F0000C995D46002610B909F101000D18B9EBFE
:10080000050003D4C0F1FF3609F10105A5EB09008D
:100810002BE0B9F1010F01DA4FF001090020B9F125
:10082000110F0090484601DD112300E003460AAA9B
:1008300001A90CA8FFF7ABFEDDE90C704D460026C0
:100840008346207800070AD4AB4500DA5D4601A84C
:10085000012D04DD411911F8011C302907D04F4545
:1008600002DA17F1040F04DA012082460FE06D1E50
:10087000EEE7002F02DCED1B3E4403E0781CA842AB
:1008800000DD7D1CB81B00F1010A4FF00047207805
:10089000000703D4AA4501DB4FF0FF3A0021B7F16E
:1008A000004F0DF143088DF8431024D002202B2374
:1008B000002F01DA7F422D230A21021EA0F1010040
:1008C00000DC5FB197FBF1FC97FBF1F201FB1C7CB4
:1008D00017460CF1300C08F801CDEEE7A8F1010045
:1008E00003702188090501D5452100E06521A0F1AB
:1008F000010800F8011C09980FA9A1EB0807FF1DCA
:1009000000B10120411901EBEA70A1693844081ACD
:10091000401EA0612078C00602D42046AFF30080BC
:10092000099828B1D4E901219047206A401C20622F
:100930002078C00622D52046AFF300801EE0002EAE
:1009400004DBB34502DD01A8805D00E03020D4E97E
:1009500001219047206A401C2062761CAAF1010008
:100960005FEA000A0AD100F03FF8C0680168405C05
:10097000D4E901219047206A401C2062281EA5F17D
:100980000105DCDC07E0D4E9012118F8010B9047F0
:10099000206A401C2062381EA7F10107F3DC2046C4
:1009A000AFF30080032011B041E6000001694A1C4A
:1009B00002610878704700B58FB0CDE901310021A0
:1009C000059105497944CDE9031011466846FFF7C2
:1009D000D3FC0FB000BD0000E5FFFFFF0A6802F87E
:1009E000010B0A607047000000487047D4010020E6
:1009F00030B5B0F10A024FEA900E71F100034EEAF1
:100A0000817EB0EB0E0061EB91014FEA101E4EEAC1
:100A1000017E10EB0E0041EB11114FEA102E4EEA51
:100A2000016E10EB0E0041EB11214FEA104E4EEA21
:100A3000014E10EB0E0041EB1141401841F1000155
:100A40004FEAD00040EA41704FEAD10110EB800537
:100A50004FEA810444EA907444EB01046D1944EBBD
:100A60000404521BA3414FF0000348BF0A3200D5D3
:100A700030BD401C41F1000130BD00002DE9F041C6
:100A80001F46044603260168072A01F4006004DBC0
:100A900008B116A505E016A503E008B115A500E00C
:100AA00015A521F010002060A069C01EA0610FB143
:100AB000401EA0612046AFF300804FB1D4E9012170
:100AC00038469047206A401C2062C01C206206E025
:100AD000206AFAE7D4E9012115F8010B9047761E48
:100AE000F8D22046AFF30080BDE8F0814E414E00C1
:100AF0006E616E00494E4600696E66002DE9F04752
:100B0000814616468AB0354878440DC88DE80D00F8
:100B100032487844801C03AC0DC884E80D0041F6CF
:100B20009B300844372190FBF1F290FBF1F5A5F1E1
:100B3000800501FB12041B3C02D56442012000E049
:100B40000020DFF898A080460027FA44AAF1BE0AE8
:100B50000EE0E0070AD03246684607EB4701012362
:100B60000AEB810100F046FB8DE8070064107F1C52
:100B7000002CEED1194F7F44AE3F19E0E80715D0A5
:100B800007EB04100DF1180A90E80E008AE80E0039
:100B9000C068F04201D1981908903246012306A995
:100BA00003A800F027FB03AB83E807006D10641C6B
:100BB000002DE3D14FF0010332466946B8F1000F32
:100BC00003A802D000F001FB01E000F013FBC9E92B
:100BD0000001C9F808200AB0BDE8F087EC60000009
:100BE00000487047B40100207546FFF7F9FFAE4694
:100BF00005006946534620F00700854618B020B529
:100C0000FFF758FBBDE820404FF000064FF000070B
:100C10004FF000084FF0000B21F00701AC46ACE8A4
:100C2000C009ACE8C009ACE8C009ACE8C0098D4611
:100C3000704710B50446AFF300802046BDE8104071
:100C4000FFF723BB4FF0013C50F8042B51F8043B55
:100C50009A4221D1A2EB0C03934313EACC1317D190
:100C600050F8042B51F8043B9A4215D1A2EB0C0327
:100C7000934313EACC130BD150F8042B51F8043BE7
:100C80009A4209D1A2EB0C03934313EACC13DBD0B5
:100C90004FF00000704700BFD01A01BAB1FA81F1DD
:100CA00001F0180122FA01F0CB40C1F12001DBB2C2
:100CB000C0B2C01A2CFA01F3D11A914311EAC31140
:100CC000E6D1704701491820ABBEFEE726000200BE
:100CD00070475FEA400C08BF91F0000F4FEA8C2389
:100CE0004FEAC12243EA51514FEA1C5018BF00F5A8
:100CF000F0404FEA300018BF41F000415FEA6C5C01
:100D000000F02980BCF1FF3F08BF40F080407047F1
:100D1000130C06BF12044FF0100C4FF0000C130E12
:100D200004BF12020CF1080C130F04BF12010CF1E6
:100D3000040C930F04BF92000CF1020CD30F04BFFC
:100D400052000CF1010C11464FF00002A0F11F00FF
:100D5000A0EB0C00704711F0004F08BF704731F056
:100D600000413FF4D5AF0B0C06BF09044FF0100C47
:100D70004FF0000C0B0E04BF09020CF1080C0B0F16
:100D800004BF09010CF1040C8B0F04BF89000CF1A6
:100D9000020CCB0F04BF49000CF1010CCCF1200375
:100DA000A0EB0C0022FA03F302FA0CF241EA030171
:100DB00000F10100704720F07F4C80EA030023F02F
:100DC0007F47ACEB070303F57C5300F0004003F1D1
:100DD000FF032DE980494FEA154B09B44FEA14434C
:100DE00025EA0B4E24EA03480FF2042606EB1327EC
:100DF00049083E785FEA320203FB0667C7F5000741
:100E000007FB06F64FEA54374FEAD64606F10206CC
:100E100007FB066CCCF1005C4FEA1C472CEA074C40
:100E200007FB06F40CFB06F504EB15464FEA961695
:100E300034BF00204FF000404FEAD13706FB07FCDB
:100E40004FEA1C4C0CFB0BF7D21B03FB0CF761EBBE
:100E500007010CFB0EF7B0EB074072EB17420CFBDF
:100E600008F734BFA2EB0742B2EB074261EB174130
:100E70004FEA0C444FEA910706FB07FC4FEA1C4C73
:100E80000CFB0BF7B0EBC74072EB573203FB0CF7D0
:100E900034BFA2EBC742B2EBC74261EB57310CFB48
:100EA0000EF7B0EBC70072EB57720CFB08F734BFBC
:100EB000A2EBC702B2EBC70261EB5771039F4FEA87
:100EC000816141EA921104EBCC044FEAD1374FEA39
:100ED000826206FB07FC42EA90124FEA80604FEA0A
:100EE0001C4C0CFB0BF7D21B03FB0CF761EB07014F
:100EF0000CFB0EF7B0EB074072EB17420CFB08F748
:100F000034BFA2EB0742B2EB074261EB17414FEA55
:100F10008C554FEA910704EB9C2406FB07FC4FEA33
:100F20001C4C0CFB0BF7B0EBC74072EB573203FBCA
:100F30000CF734BFA2EBC742B2EBC74261EB5731AB
:100F40000CFB0EF7B0EBC70072EB57720CFB08F707
:100F500034BFA2EBC702B2EBC70261EB577115EBCE
:100F60004C254FEA816141EA92114FEA82624FEAD1
:100F7000D13742EA901206FB07FC44F100044FEA25
:100F800080604FEA1C4C0CFB0BF7D21B03FB0CF7E9
:100F900061EB07010CFB0EF7B0EB074072EB174259
:100FA0000CFB08F734BFA2EB0742B2EB074261EB40
:100FB000174115EB1C154FEA813141EA92414FEA86
:100FC000823242EA90424FEA80304FEA0C7644F196
:100FD000000448EA03434EEA0B484FF0000EB2EB20
:100FE000080C71EB030724BF624639464EEB0E0E28
:100FF0004FF0000B0018524149414BEB0B0BB2EB89
:10100000080C71EB03077BF1000B24BF62463946E5
:101010004EEB0E0E4FF0000B0018524149414BEBC6
:101020000B0BB2EB080C71EB03077BF1000B24BF39
:10103000624639464EEB0E0E51EA020718BF46F0E3
:10104000010616EB0E7655F1000254F1000103D5AE
:10105000BDE88901BDE80088BDE88901BDE8004818
:10106000B619524141EB0101A3F1010370478080A1
:101070007F7E7D7C7B7A79787776767574737271F2
:1010800071706F6E6E6D6C6C6B6A6A6968686766AA
:1010900066656464636362616160605F5F5E5E5D3C
:1010A0005D5C5C5B5B5A5A595958585757565655B0
:1010B00055555454535352525251515050504F4F12
:1010C0004F4E4E4D4D4D4C4C4C4B4B4B4A4A4A4962
:1010D00049494848484747474746464645454544A5
:1010E0004444444343434342424242414141002B32
:1010F0009C4630D477002BD01CB54FEA370703B499
:101100004FF010004FF01001BAF1000F06D0BCF103
:10111000000FDCBF40F0080040F008014FF0000075
:101120000FBCBDE810400BF1010BBBF1010F08BF74
:101130005FEA170722BF12F1010211F101014FF01E
:10114000004143F1000300F0004043EA0000704713
:10115000F9D35708D0E746EA064613F1400F4FEAA5
:1011600016461FDD13F1200FDFBF16430A4600218C
:1011700020335B42BED0C3F1200746EA064602FA9E
:1011800007F74FEA164646EA0706C3F1200722FA98
:1011900003F201FA07F721FA03F14FF0000342EAE4
:1011A0000702A7E746EA020646EA06464FEA16465F
:1011B00046EA0106BCBF46EA0646360C4FF000037D
:1011C0004FF000024FF0000194E72DE9804C9A4661
:1011D000934670B491E8380007C831EA400C48BF24
:1011E00034EA430C03D5FFF7E6FDFFF780FFF0BCC0
:1011F000BDE8008C2DE9804C9A46934670B491E886
:10120000380007C810F0804F08BF13F0804F03D19B
:1012100000F005F8FFF76BFFF0BCBDE8008C20F094
:101220007F4780EA030023F07F4C07EB0C03A3F514
:101230007C5300F00040A3F1FE0392F0000F00F099
:10124000B38095F0000F00F077802DE901494FEA57
:1012500011404FEA144621EA004800FB06FC24EA4C
:10126000064708FB06F607FB08F800FB07F718EB34
:1012700006484CEB164C4FEA124B18EB07484FEA66
:1012800015464CEB174022EA0B4E0BFB06FC25EAF9
:1012900006470EFB06F607FB0EFE0BFB07F71EEBE1
:1012A000064E4CEB164C4FF000061EEB074E4CEB77
:1012B000174B18EB0B0840F1000018EB0E0B58EB26
:1012C000000840F100008F1A4FF000013CBFC943F5
:1012D000661B14BFB5EB040C00213CBFC943F61BD1
:1012E0004FEA17444EEA8E0E27EA04454FEA1C47A0
:1012F00004FB07622CEA074C05FB07F70CFB05F61D
:1013000004FB0CFC16EB074642EB174216EB0C46AF
:1013100042EB1C421BEB060658EB0202414146EA37
:101320009E0601D5BDE80189B619524141EB010184
:10133000A3F10103BDE801894FEA14454FEA1147C3
:1013400024EA054621EA074C05FB07F406FB07F7EC
:101350000CFB06F105FB0CFC11EB074144EB1744B9
:101360004FEA124711EB0C4144EB1C4422EA074CB4
:1013700005FB07F206FB07F70CFB06F605FB0CFC6A
:1013800016EB074642EB174216EB0C4642EB1C45A8
:101390006A1854F1000148BF7047B619524141EB39
:1013A0000101A3F10103704795F0000F37D04FEA18
:1013B00011424FEA144721EA024624EA074C02FB95
:1013C00007F106FB07F70CFB06F402FB0CFC14EB21
:1013D000074441EB17414FEA154714EB0C4441EB2E
:1013E0001C4125EA074C02FB07F506FB07F70CFB3F
:1013F00006F602FB0CFC16EB074645EB174516EB11
:101400000C4645EB1C42121951F1000148BF7047D0
:10141000B619524141EB0101A3F1010370474FEAB4
:1014200014454FEA114724EA054621EA074C05FB1B
:1014300007F106FB07F70CFB06F24FF0000605FB71
:101440000CFC12EB074241EB174112EB0C4251EB43
:101450001C4148BF7047921841EB0101A3F1010301
:10146000704700002DE9F041044600270D46006852
:1014700002F0B8FD0646206802F0B0FD30435DD0B2
:101480002068C1682E4E890105D5617F012902D1EE
:10149000217F01290BD0022D1DD0206802F0A2FD72
:1014A000B8B120688168C1F3400169B111E001253C
:1014B000244902E08F4232D27F1C0268D243520696
:1014C000F8D440210160E8E78168314041F0100123
:1014D0008160012D11D0206802F080FD48B12068A4
:1014E0008168C1F3400121B98168314041F0200198
:1014F0008160022D08D0032D04D0042500F022FFC6
:10150000064617E00C25F9E70825F7E700F01AFF73
:10151000801B05280ED92068806828420AD0E06D1B
:1015200040F01000E065206E40F0010020660120D0
:10153000BDE8F081206880682842E7D10020F7E705
:10154000C0FFFF7F000040A370B5044600688168BB
:101550008268C1F3400112F0010F28D039BB8168C5
:1015600001F00D01012914D18168124A1140891C32
:10157000816021680320086000F0E4FE054612E067
:1015800000F0E0FE401B02280DD920688068C007EB
:1015900009D0E06D40F01000E065206E40F00100E1
:1015A0002066012070BD20688068C007E8D1002057
:1015B00070BD0000C0FFFF7F70B504460068816801
:1015C00011F0010F2DD18168174A11421AD181689B
:1015D000D5432940491C816000F0B4FE06461BE05B
:1015E000816811F0010F03D181682940491C816095
:1015F00000F0A8FE801B02280ED920680068C043B6
:10160000C00709D0E06D40F01000E065206E40F0AA
:1016100001002066012070BD20680168C943C90728
:10162000DED1002070BD00003F0000802DE9F041B8
:101630001D4C012161721D49CA89002A31D1C8811E
:10164000E07801282DD11A4E01220421304600F005
:1016500074FE184D01224FF47C41284600F06DFEC7
:101660004FF400773946284600F062FE012805D085
:101670003946284600F05CFE10B106E0002200E08A
:1016800001223946284600F058FE01220421304646
:1016900000F053FE00220421304600F04EFE0020F0
:1016A0006072BDE8F08100002C000020A401002041
:1016B000000C0048000800480A498A88002A10D116
:1016C00088800948C17801290BD18189491C89B2D8
:1016D0008181B1F5FA6F04D10021C17081810121AE
:1016E00001717047A40100202C000020FEE7704724
:1016F000002240F6B83306E00021491C89B2994225
:10170000FBD3521C92B28242F6D3704772B6FEE708
:1017100070B564492DED068B4A89002A59D1624D76
:1017200048812868806A614C0421E081284602F0E3
:1017300071F82868E968406B491C00EE100AF8EE61
:10174000400A00EE101AB8EE400A80EE801A9FEDB3
:10175000580A584821EE000ABCEEC00A80ED000A83
:101760002078012838D0032833D16078524D9FED7E
:1017700053AB002869D001282BD16079642110FB7C
:1017800001F003F092FE41EC190BA07903F08DFEFD
:1017900041EC180B2868400003F087FE53EC1A2B2D
:1017A00003F096FE53EC182B03F092FE53EC192B2A
:1017B00003F0F6FC03F01AFC00EE100A84ED080AB0
:1017C000D4ED060AB4EEE00AF1EE10FA01DD84ED84
:1017D000060ABDEC068B70BD60784FF0804510B1F5
:1017E000012806D00BE0A86A632808D0A86A0A3846
:1017F00004E0A86AC72802D0A86A0A30A862314863
:1018000000780028E5D12069064604F049F89FEDEC
:101810002E1B53EC112B03F05BFE9FED2D1B53ECA5
:10182000112B03F053FF03F013FE2B49C0B22072BB
:101830008E4201DD552003E0B6F17E5F03DA0A2017
:10184000A8632072C5E7A863C3E76079642110FB31
:1018500001F003F02AFE41EC180BA07903F025FEFD
:1018600041EC190B2868400003F01FFE53EC1A2BC3
:1018700003F02EFE53EC192B03F02AFE53EC182B29
:1018800003F08EFC03F0B2FB00EE100A84ED070AB1
:10189000D4ED090AB4EEE00AF1EE10FA99DD84ED18
:1018A000090A96E7A4010020C00000202C000020B7
:1018B0000000C842280000201C0000201F85EB51BA
:1018C000B81E0940190000200000000000C042407E
:1018D0000000000000803B4000004040F8B50026BA
:1018E0000446009690F858000D4601280BD00120C0
:1018F00084F858002046FFF727FE0100E06D04D071
:1019000040F010002AE00220F8BD20F4885040F09A
:101910000200E06520688268134B1A4005F080439E
:101920001A4342F000428260104A20680EE0009B99
:101930005B1C0093934209D3E06D20F0020040F05D
:101940001000E06584F858600120F8BD8368DB0F63
:10195000EDD1E06D20F0020040F00100E06584F878
:1019600058600846F8BD0000C0FFFF3F02DE0400DB
:101970002DE9F84F00270446009790F85800DFF84B
:10198000E0930D46B846012811D0012684F858602E
:10199000206802F027FB60B1E06D40F02000E065B8
:1019A0005FF0010784F858803846BDE8F88F0220C0
:1019B000FBE7D5E900210C23206803EA91131844C2
:1019C000036B01F01F014FF01F0C0CFA01FCC2F376
:1019D000846223EA0C038A4013430363206802F005
:1019E00001FB8246206802F0F9FA5AEA00003CD175
:1019F000AA6829682068B2F1004F37D002F0F6FAE1
:101A00002068416921F00041416120686969C2682C
:101A1000C2F3C102520091402A69042A31D000EB7E
:101A200082002B68026EDFF83CC303F0F84302EA41
:101A30000C020B431A4342F00041016620682A69F8
:101A4000A96900EB8200026E22F080720A430266EE
:101A5000297F22682869012910D0002102EB80002B
:101A6000026E22F000720A4302667DE0002202F05C
:101A7000BDFA2068416941F00041C5E74FF00071AF
:101A8000ECE7002102F0A4FA400320684FF00001C7
:101A900072D002F09DFA90FAA0F0B0FA80F12868B6
:101AA00042036ED090FAA0F0B0FA80F0814204D1E7
:101AB00000221146206802F0A8FA0121206802F0F5
:101AC00087FA400320684FF001015DD002F080FAF0
:101AD00090FAA0F0B0FA80F12868420359D090FA49
:101AE000A0F0B0FA80F0814204D1002201212068E8
:101AF00002F08BFA0221206802F06AFA40032068A3
:101B00004FF0020148D002F063FA90FAA0F0B0FA68
:101B100080F12868420344D090FAA0F0B0FA80F037
:101B2000814204D100220221206802F06EFA0321D2
:101B3000206802F04DFA400320684FF0030133D0D3
:101B400002F046FA90FAA0F0B0FA80F12868420359
:101B50002FD090FAA0F0B0FA80F0814204D1002298
:101B60000321206802F051FA2068816811F0010F0A
:101B700022D0ACE000E004E002F02AFAC0F3846175
:101B80008DE7C0F3846091E702F022FAC0F384612C
:101B9000A2E7C0F38460A6E702F01AFAC0F38461FA
:101BA000B7E7C0F38460BBE702F012FAC0F38461C8
:101BB000CCE7C0F38460D0E72A7B296850F8B03FB7
:101BC000C1F3120C23EA0C0302F0180C664A22FA45
:101BD0000CF20A4013430360E968494577D128684D
:101BE00041031CD090FAA0F1B1FA81F1491C01F037
:101BF0001F0109294FEA403132D8002912D000BF15
:101C000090FAA0F1B1FA81F101F1010101F01F0197
:101C100006FA01F609D100BFC0F3846109E0C0F300
:101C20008461E3E7C0F38461EEE790FAA0F1B1FAD2
:101C300081F101F1010101F01F0146EA816102D148
:101C4000C0F3846003E090FAA0F0B0FA80F000F1F5
:101C5000010000F01F0000EB400041EA005132E0BB
:101C600000290ED090FAA0F1B1FA81F101F1010141
:101C700001F01F0106FA01F606D100BFC0F384612E
:101C800006E0C0F38461F1E790FAA0F1B1FA81F1C6
:101C900001F1010101F01F0146EA816102D1C0F3A7
:101CA000846003E090FAA0F0B0FA80F000F1010047
:101CB00000F01F002D4A00EB400002EB005041EA0B
:101CC000000141F00071AA68206802F08FF92848ED
:101CD0002A6802423FF466AE26488168264B01F02E
:101CE000E0719A4202D0254B9A421CD10B021AD4C1
:101CF0002268B2F1A04F7FF455AE826841F4000132
:101D000022F0E0720A4382601D481E490068B0FB61
:101D1000F1F0401C00EB4000800000E0401E00900D
:101D20000028FBD13EE6184D184BAA4207D1CD0141
:101D300005D422689A42F5D041F0807109E0144D33
:101D4000AA42EFD14A02EDD422689A42EAD041F485
:101D50008001826822F0E0720A43826022E600007D
:101D600000007F4000F0FF03FFFF0700000020FE9F
:101D70000000088000030050000021C31000C09044
:101D80000C000020400D0300000052C7000100506D
:101D9000000084CB0068006C70470000F8B54FF07D
:101DA000000504002E46009502D0E06D10B107E05A
:101DB0000120F8BD204600F0EFF8266684F8586050
:101DC00020688168C1F3407119B181686A4A114085
:101DD000816020688168C1F3007189B98168674AB0
:101DE000114041F080518160654866490068B0FB50
:101DF000F1F04000801C00E0401E00900028FBD164
:101E000020688168C1F3007141B9E16D41F01001B2
:101E1000E165216E41F001012166012502F0E2F841
:101E2000E16DC90600D430B1E06D40F01000E0650E
:101E300001252846F8BDE06D20F4807040F00200D6
:101E4000E0652068806810F0010F11D14FF0A040CC
:101E500080684D4900F00100896801F001010843E4
:101E600006D14A486168826822F47C120A43826083
:101E7000E168E06B627F0843A16841EA42310843B0
:101E800094F8241040EA0140012904D1218D404AF0
:101E900002EB41410843E16A29B101F47871226BF8
:101EA000014342EA01002168CA683A4B1A400243E2
:101EB000CA6020680169626B21F0406111430161D1
:101EC000206802F08FF80646206802F087F8304359
:101ED0002ED1207F94F83810800340EA4102206818
:101EE000C16844F2020399431143C160206900288C
:101EF000206801690AD041F480310161206850F8FE
:101F0000C01F22696FF30D01114307E021F48031F6
:101F10000161206850F8C01F6FF30D01016094F853
:101F2000400001280CD02068016921F00101016105
:101F3000606901282068016B21F00F0111D013E0C6
:101F4000D4E911010843D4E913121143084321686D
:101F50000A6940F2FC739A43104340F001000861A3
:101F6000E6E7226A521E11430163E06D20F0020091
:101F700040F00100E0655CE7C0FFFF5FC0FFFF7F4E
:101F80000C000020400D0300000100500003005031
:101F90000000FEFF0740F0FF10B598B00446142182
:101FA00011A8FEF770FA44216846FEF76CFA15494D
:101FB0002068884223D1C401400500940F906846F0
:101FC00000F0BEFA08B1FFF7A1FB0F48C16C41F465
:101FD0000051C164C16C01F400511691C16C41F013
:101FE0000201C164C06C11A900F002001690032028
:101FF000CDE9114000201390044800F0B5F818B066
:1020000010BD000000010050001002400004004814
:102010002DE9F04104463848806800F01F0520682B
:1020200001F0E0FF18B102210846BDE8F08194F804
:10203000580001280CD0012084F858002046FFF7F2
:10204000BBFA01004FF0000304D084F85830EBE7EE
:102050000220EAE7E06D40F60162904340F48070B0
:10206000E065264A20684FF0A046904201D13746ED
:1020700000E00746874200D01DB9E76D27F48017BE
:10208000E765E76DFF0404D5276E27F0060727668E
:1020900000E023661C27076084F8583020689042CF
:1020A00001D1334600E00346834215D0A5B1052D8A
:1020B00012D0092D10D0E36D43F48013E3659042F4
:1020C00000D13046C0688001AED5E06D20F40050EC
:1020D00040F48050E065A7E7C268920105D5E26D43
:1020E00022F4005242F48052E2658268044B1A40A6
:1020F000121D826098E700000003005000010050AC
:10210000C0FFFF7F10B5044690F85800012808D0A2
:10211000012084F8580003212046FFF7A3F910B1ED
:102120000BE0022010BD2046FFF70EFA28B9E16D42
:1021300021F4885141F00101E165002184F8581033
:1021400010BD000070B5044600F0FCF80546601CA8
:1021500002D004484068044400F0F4F8401BA04258
:10216000FAD370BD000000202DE9FC4FDFF8A0A1DC
:10217000002301250AF1040B03244FF00F0C0BF18F
:10218000040EBDE005FA03F632406FD04F68012F10
:1021900005D0022F03D0112F01D0122F17D1D0F864
:1021A00008905F0004FA07F829EA08090097D1F8B7
:1021B0000C8008FA07F848EA0908C0F80880476860
:1021C000B7430E79C6F300169E403E434660C6688C
:1021D0004FEA430804FA08F7BE4301978F6807FAED
:1021E00008F73743C7604E68022E01D0122E13D174
:1021F000DE0800EB86060096366A5F07FF0E0CFAD3
:1022000007F926EA0906D1F8109009FA07F949EA10
:102210000609009EC6F820900668019FBE430F790C
:1022200007F0030707FA08F7374307604E68F60020
:1022300065D5384E376E47F001073766366E23F0A6
:10224000030706F001060096334E3E44B146B668D9
:102250009F074FEA17780CFA08F7BE43B0F1904F8A
:1022600005D02E4FB84204D1012717E047E00027E0
:1022700014E02B4FB84201D102270FE0294FB8429A
:1022800001D103270AE0284FB84201D1042705E015
:10229000264FB84201D1052700E0062707FA08F7C4
:1022A0003743C9F80870DAF800605746D1F804805F
:1022B00096435FEAC83800D516433E60DBF80060FD
:1022C0005F46D1F8048096435FEA883800D516430C
:1022D0003E60DEF800607746D1F8048096435FEAFE
:1022E000C82800D516433E60094F0C373E68D1F828
:1022F000048096435FEA882800D516433E605B1C45
:102300000A6832FA03F67FF43DAFBDE8FC8F0000A7
:102310000004014000100240000001400004004899
:1023200000080048000C0048001000480014004855
:102330000069084000D0012070470AB181617047F0
:1023400081627047014880687047000000000020EB
:102350000248816842681144816070470000002093
:1023600010B50024032000F073F80F2000F008F8E7
:1023700008B1012401E000F025F8204610BD00005E
:1023800070B50E4E05460024706898B14FF47A710E
:10239000B1FBF0F00A490968B1FBF0F000F040FD34
:1023A00040B9102D06D200222946501E00F030F808
:1023B000356000E00124204670BD000000000020D0
:1023C0000C0000200A4882B0016E41F00101016654
:1023D000016E01F001010091816D41F08051816534
:1023E000806D00F08050009002B000F0A1B80000B5
:1023F00000100240002809DB00F01F02012191407B
:102400004009800000F1E020C0F800117047000092
:10241000F0B40E4B1B680C46C3F30223C3F107054F
:10242000042D00D90425191D072901D2002300E03D
:10243000DB1E012606FA05F1491E214099409E4007
:10244000761E16403143F0BC02F0F5BB0CED00E007
:10245000064900F0070208684FF6FF03184040EAFB
:102460000220034A10430860704700000CED00E0B2
:102470000000FA052B492C4B0A6832214A432B49AC
:1024800040B1B0F5007F086829D020F4C06040F466
:1024900080602CE00868C0F34120022804D051F885
:1024A000800F20F4807022E0D1F8800020F480704A
:1024B000C1F88000086820F4C06040F40070086033
:1024C000B2FBF3F0401C00E0401E4A69520501D502
:1024D0000028F9D1486940050AD503207047C0F3A8
:1024E0004120022806D051F8800F40F48070086027
:1024F00000207047D1F8800040F48070C1F880005F
:10250000086820F4C06040F400700860B2FBF3F08B
:10251000401C00E0401E4A695205DBD50028F9D175
:10252000D8E700000C00002040420F00007000407F
:102530000248816841F4804181607047007000402A
:102540002DE9F8430446006800269D4D00035ED542
:10255000A86D0027C00008D4A86D40F08050A86581
:10256000A86D012700F080500090DFF85892D9F84C
:10257000001041F48071C9F80010FFF7E3FE8046B7
:1025800006E000BFFFF7DEFEA0EB080002282BD814
:10259000D9F80000C005F5D5D5F8900010F44070CA
:1025A00014D0216C814211D0D5F89000D5F890104C
:1025B00020F4407041F48031C5F89010D5F89010A7
:1025C00021F48031C5F89010C5F89000C00711D0F3
:1025D000FFF7B8FE804641F2883907E0FFF7B2FE08
:1025E000A0EB0801494501D903260BE0D5F890007E
:1025F0008007F3D5D5F89000216C20F44070084393
:10260000C5F890001FB1A86D20F08050A865207813
:10261000C00707D0D5F88800616820F003000843A0
:10262000C5F888002078800707D5D5F88800A1680C
:1026300020F00C000843C5F888002078400707D533
:10264000D5F88800E16820F030000843C5F888001C
:102650002078000707D5D5F88800216920F0C00050
:102660000843C5F888002078800607D5D5F888008B
:10267000616920F440600843C5F88800207840066E
:1026800007D5D5F88800A16920F440500843C5F863
:1026900088002078000607D5D5F88800E16920F485
:1026A00040400843C5F888002088C00507D5D5F804
:1026B0008800216A20F440300843C5F8880020884B
:1026C000800507D5D5F88800616A20F440200843CA
:1026D000C5F88800208840050FD5D5F88800A16A84
:1026E00020F440100843C5F88800A06AB0F5801FA8
:1026F00003D1E86840F48010E860208800050FD519
:10270000D5F88800E16A20F440000843C5F8880045
:10271000E06AB0F5800F03D1E86840F48010E8600B
:102720002088C0040FD5D5F88800216B20F04070B8
:102730000843C5F88800206BB0F1807F03D1E868BA
:1027400040F48010E86020884FF0006180040ED5CE
:10275000D5F88800626B20F040601043C5F888000F
:10276000606B884203D1E86840F48010E8602088FC
:1027700040040ED5D5F88800A26B20F040601043CD
:10278000C5F88800A06B884203D1E86840F4801047
:10279000E860208800040FD5D5F88800E16B20F0B0
:1027A00040500843C5F88800E06BB0F1805F03D16A
:1027B000E86840F48030E8603046BDE8F883000007
:1027C00000100240007000402DE9F0470E46050061
:1027D0004FF0000725D0DFF8AC81D8F8000000F0FA
:1027E0000F00B0420CD2D8F8001021F00F01314395
:1027F000C8F80010D8F8000000F00F00B04210D167
:102800002968614CC80741F2883A5AD06868DFF8F5
:102810007C91032808D0022820682DD0400500288C
:102820002CDB0120BDE8F08720688001F9D5E06845
:1028300000F00302E068C0F30310401C032A19D023
:10284000534A00BFB2FBF0F0E268C2F306225043E5
:10285000E268C2F34162521C5200B0FBF2F04845FC
:1028600017D9A06810F0F00F0CD0880711D5A86810
:1028700040B10EE0474AE5E78003D0E700F092F868
:10288000484506D9A06820F0F00040F08000A06024
:102890008027A068696820F003000843A060FFF764
:1028A00051FD814606E000BFFFF74CFDA0EB09019A
:1028B00051453AD8A068696800F00C00B0EB810F70
:1028C000F2D12868810714D5400703D5A06840F4E9
:1028D000E060A0602878000705D5A06820F460506B
:1028E00040F4E060A060A068A96820F0F000084310
:1028F00004E0802F03D1A06820F0F000A060D8F899
:102900000010404601F00F01B14216D9016821F0D4
:102910000F0131430160FFF715FD074607E000BFD7
:10292000FFF710FDC11B514501D903207AE7D8F804
:10293000000000F00F00B042F2D12878400705D522
:10294000A068E96820F4E0600843A06028780007E8
:1029500006D5A068296920F4605040EAC100A06053
:1029600000F020F8A1680C4AC1F30311515C01F09A
:102970001F01C8400949086009480068BDE8F047E0
:10298000FFF7FEBC002002400010024000B4C40467
:102990000024F40000366E019A5900080C00002053
:1029A00000000020184910B58868C0F3810217485C
:1029B000012A0BD08A68164BC2F38102022A06D084
:1029C0008A68C2F38102032A03D0002010BD184692
:1029D00010BDCA6802F00304CA68C2F30312521C95
:1029E000032C02D0B0FBF2F001E0B3FBF2F0CA68B6
:1029F000C968C2F306225043C1F34161491C490032
:102A0000B0FBF1F010BD0000001002400024F40003
:102A100000366E012DE9F84304007AD02078FA4D93
:102A2000C00747D0A868E96800F00C0001F0030176
:102A30000C2802D0082817D001E0032914D06068C0
:102A4000B0F5803F17D0B0F5A02F286817D020F43C
:102A500080302860286820F4802028606068E0B119
:102A6000FFF770FC064614E02868800322D56068F2
:102A70000028D2D01EE0286840F48030EDE740F412
:102A800080202860F7E700BFFFF75CFC801B64280C
:102A900070D828688003F7D50CE0FFF753FC064692
:102AA00005E000BFFFF74EFC801B6428F0D82868C3
:102AB0008003F7D4207880074CD5A868E96800F037
:102AC0000C0001F003010C2802D004280DD001E015
:102AD00002290AD0E068002828682BD040F48070D2
:102AE0002860FFF72FFC064619E02868400502D54C
:102AF000E068002891D06868217C20F0FE4040EA20
:102B000001606860C1480068FFF73AFC002800D106
:102B100020E076E1FFF716FC801B0228B8D8286871
:102B20004005F7D56868217C20F0FE4040EA01604E
:102B300068600FE020F480702860FFF703FC064611
:102B400005E000BFFFF7FEFB801B0228A0D8286825
:102B50004005F7D42078000729D560690028D5F80A
:102B6000940013D040F00100C5F89400FFF7EAFB91
:102B7000064606E090E000BFFFF7E4FB801B02285A
:102B800086D8D5F894008007F6D510E020F0010033
:102B9000C5F89400FFF7D6FB064604E0FFF7D2FB2A
:102BA000801B022878D8D5F894008007F6D42078C6
:102BB000400761D5A86D0026C00008D4A86D40F07C
:102BC0008050A865A86D012600F0805000909048C4
:102BD0000168C90511D40168804641F48071016023
:102BE000FFF7B0FB074604E0FFF7ACFBC01B022871
:102BF00052D8D8F80000C005F6D5A068012815D035
:102C00000528D5F8900016D020F00100C5F89000F6
:102C1000D5F8900020F00400C5F89000A06841F2BB
:102C20008838B8B1FFF78EFB07460EE0D5F8900064
:102C300040F00100F0E740F00400C5F89000F5E72F
:102C4000FFF780FBC11B414526D8D5F890008007CF
:102C5000F6D50CE0FFF776FB074604E0FFF772FBC2
:102C6000C11B414518D8D5F890008007F6D41EB195
:102C7000A86D20F08050A8652078800629D5A0692D
:102C80000028D5F8980013D040F00100C5F898004E
:102C9000FFF758FB064606E077E000BFFFF752FB60
:102CA000801B022877D8D5F898008007F6D510E069
:102CB00020F00100C5F89800FFF744FB064604E049
:102CC000FFF740FB801B022865D8D5F898008007E5
:102CD000F6D4E069F0B3A968C1F38101032961D09A
:102CE0000228286820F0807028600BD0E86820F067
:102CF0000300E860E86847490840E860FFF722FB06
:102D000004464BE0FFF71EFB064604E0FFF71AFB04
:102D1000801B02283FD828688001F7D4F4E9080115
:102D20006FF00F0202EB01110843218A5204490897
:102D300002EB4151A26841EA02210843217D4FF094
:102D40007E42490802EB41610843217B40EAC160B1
:102D5000E96800E062E0304A11400843E860286812
:102D600040F080702860E86840F08070E860FFF70D
:102D7000E9FA044605E000BFFFF7E4FA001B022869
:102D800009D828688001F7D548E004E0FFF7DAFAAF
:102D9000001B022802D90320BDE8F88328688001BF
:102DA000F4D43BE00128F7D0E868226A00F0030180
:102DB000914226D1616A00F0F00209011039914276
:102DC0001FD1A26A00F4FE41B1EB022F19D194F891
:102DD0002C2000F07841B1EBC26F12D1218E00F4AB
:102DE000C00249084905A1F50011914209D194F8A2
:102DF000341000F0C06049084906A1F10071814219
:102E00000CD00120C8E700000010024000000020A4
:102E100000700040FFFFEEFE0C809F010020BBE72A
:102E200010B5401EB0F1807F01D3012010BD4FF0DE
:102E3000E02460610F21601701F0FDFE0020A06119
:102E400007202061002010BD704770477047704711
:102E500070477047F0B590F83C20012A3AD0012520
:102E600080F83C50022280F83D2003685A689C6834
:102E7000194E1A4FB34201D0BB4204D122F4700C58
:102E80004A6842EA0C02DFF858C002EA0C02D1F8A4
:102E900000C04CEA020CC3F804C00268B2420DD074
:102EA000B2F1804F0AD00F4B9A4207D00E4B9A4294
:102EB00004D0BA4202D00D4B9A4204D1896824F062
:102EC00080031943916080F83D50002180F83C1048
:102ED0000846F0BD0220F0BD002C01400034014046
:102EE0008FFFFFFD0004004000080040004001404B
:102EF000704710B5040003D094F83D0010B107E00E
:102F0000012010BD002084F83C00204600F022F88B
:102F1000022084F83D00211D206801F0D3FB012030
:102F200084F8480084F83E0084F83F0084F84000AC
:102F300084F8410084F8420084F8430084F8440097
:102F400084F8450084F8460084F8470084F83D0082
:102F5000002010BD10B586B0044614216846FDF768
:102F600092FA21682748B1F1804F29D0264A914230
:102F700035D1816D41F002018165816D01F0020161
:102F80000591C16C41F00101C164C06C002100F0E9
:102F900001000590802000900220CDE90101CDE9DB
:102FA000031069464FF09040FFF7DEF8002211460B
:102FB0001D20FFF72DFA1D20FFF71CFA06B010BDEB
:102FC000816D41F001018165806D002200F00100FA
:102FD000059011461C20FFF71BFA1C20ECE70B4A5A
:102FE0009142EBD1816D41F010018165806D00222D
:102FF00000F01000059011463620FFF709FA362040
:10300000DAE7000000100240000400400010004019
:1030100090F83D10012901D001207047022180F86D
:103020003D100168CA6842F00102CA600068104998
:1030300088420ED0B0F1804F0BD00E49884208D0A4
:103040000D49884205D00D49884202D00C4988427A
:1030500007D181680B4A1140062906D0B1F5803F9F
:1030600003D0016841F001010160002070470000B9
:10307000002C0140000400400008004000340140E2
:10308000004001400700010070B5044690F83C0084
:10309000012814D0012584F83C50022084F83D001A
:1030A00022689068344B184020F47F409060086894
:1030B000702827D010DC10F00F0F03D04AE04FF03B
:1030C000020070BD4FEA2012072A43D2DFE802F067
:1030D0005050505048313900284BC21A984247D0BE
:1030E00009DCB0F5805F35D0B0F5005F15D0B0F1E8
:1030F000101F2FD13CE0102A3AD0202A38D0502A75
:1031000028D135E0CB68D1E90121206801F03FFBEF
:103110002068816841F0770109E0CB68D1E901219D
:10312000206801F034FB2068816841F480418160AF
:1031300010E0CA684968206801F0D4FC502120687A
:1031400006E0CA684968206801F014FD6021206823
:1031500001F028FB84F83D50002084F83C0070BD4D
:10316000CA684968206801F0BDFC40212068EFE78B
:10317000226801461046EBE788FFCEFF20001000D2
:103180000268516A002353620068044A904204D1E5
:103190000348B0FBF1F00349486070470004004069
:1031A00040420F00180000202DE9F041054690F83C
:1031B0003C000C46012836D0012085F83C008AB33B
:1031C000042A42D02868082A51D0D4E90023E168B3
:1031D000066A26F480560662C669076A26F44076B7
:1031E00046EA03234FF6FF7606EA013123F47043E3
:1031F00019434FF4204627F4204306EA02321A43CB
:10320000C16102622868C16921F44061C161286816
:10321000C169A26841EA0221C161002085F83C0031
:10322000BDE8F08101E00220FAE7D4E90012E3688A
:10323000286801F069FC2868816921F00C0181612E
:1032400028688169A26811430FE0D4E90012E3689D
:10325000286801F0A1FC2868816921F4406181613E
:1032600028688169A26841EA02218161D5E7D4E931
:103270000027267B016A21F480710162C169036A1B
:1032800021F00301394321F0F00731074FF42066A4
:1032900047EA116123F4206306EA02221A43C1615E
:1032A00002622868C16921F00C01C1612868C16906
:1032B000A2681143B0E710B5040003D094F83D00B4
:1032C00010B107E0012010BD002084F83C0020462A
:1032D00000F022F8022084F83D00211D206801F052
:1032E000F1F9012084F8480084F83E0084F83F009A
:1032F00084F8400084F8410084F8420084F84300D8
:1033000084F8440084F8450084F8460084F84700B7
:1033100084F83D00002010BD7047000010B5044641
:1033200079B1042912D0082915D00C2918D01029F8
:1033300019D094F8430000BF94F84720012817D112
:1033400014E094F83E0094F84420F7E794F83F0026
:1033500094F84520F2E794F8400094F84620EDE711
:1033600094F84100E8E794F84200E5E7012A01D02B
:10337000012010BD022071B1042915D008291CD0EC
:103380000C2948D0102949D084F8430084F847001C
:103390000C291BD145E084F83E0084F844002068E5
:1033A000C26842F0020210E084F83F0084F8450051
:1033B0002068C26842F0040207E084F8400084F804
:1033C00046002068C26842F00802C26001222068FC
:1033D00001F0D0F91549206888420ED0B0F1804F35
:1033E0000BD01349884208D01249884205D01249AF
:1033F000884202D01149884207D18168104A1140A1
:10340000062906D0B1F5803F03D0016841F00101E3
:103410000160002010BD84F84100B7E784F8420045
:10342000B4E72068C26842F01002CEE7002C0140E9
:10343000000400400008004000340140004001400A
:103440000700010070B50446006801694FF00005EF
:10345000C943890715D4C168C943890711D4E91E36
:10346000016101202077206880698007204602D012
:10347000FFF786FE04E000F009F9204600F0C8F9E5
:10348000257720680169C943490717D4C168C94332
:10349000490713D46FF004010161022020772068EE
:1034A000806910F4407F204602D0FFF769FE04E0F7
:1034B00000F0ECF8204600F0ABF9257720680169B0
:1034C000C943090716D4C168C943090712D46FF06C
:1034D00008010161042020772068C0698007204628
:1034E00002D0FFF74DFE04E000F0D0F8204600F0D7
:1034F0008FF9257720680169C943C90617D4C168C7
:10350000C943C90613D46FF0100101610820207768
:103510002068C06910F4407F204602D0FFF730FEDB
:1035200004E000F0B3F8204600F072F92577206837
:103530000169C943C90708D1C168C943C90704D192
:10354000891E0161204600F0E3F920680169C94342
:10355000090609D4C168C943090605D46FF0800182
:1035600001612046FFF771FC20680169C943C90564
:1035700009D4C168C943090605D46FF4807101619B
:103580002046FFF761FC20680169C943490609D458
:10359000C168C943490605D46FF040010161204666
:1035A00000F030FA20680169C943890609D4C1686E
:1035B000C943890605D46FF0200101612046FFF759
:1035C00045FC20680169C943C90209D4C168C943DF
:1035D000C90205D46FF4801101612046FFF738FC61
:1035E00020680169C943890209D4C168C9438902B5
:1035F00005D46FF4001101612046FFF728FC206814
:103600000169C943490209D4C168C943490205D4C3
:103610006FF4800101612046FFF71BFC20680169FF
:10362000C94309020BD4C168C943090207D46FF426
:10363000000101612046BDE87040FFF759BC70BD34
:1036400010B586B0044614216846FCF71CFF2068BC
:10365000B0F1804F15D10C48C16C41F00101C1643B
:10366000C06C694600F001000590022000900190B6
:10367000002002900390012004904FF09040FEF74C
:1036800073FD06B010BD000000100240704770B519
:10369000044690F83C000D4601280BD0012084F828
:1036A0003C000C2A45D007DC5AB1042A1BD0082A5A
:1036B00078D12CE0022070BD102A4ED0142A71D18E
:1036C0005DE0206801F078F82068816941F0080128
:1036D00081612068816921F004018161206881692C
:1036E0002A69114311E0206801F0B4F8206881696B
:1036F00041F4006181612068816921F48061816108
:10370000206881692A6941EA022181614AE02068D2
:1037100001F0E8F82068C16941F00801C161206842
:10372000C16921F00401C1612068C1692A6911439E
:1037300011E0206801F01EF92068C16941F40061C0
:10374000C1612068C16921F48061C1612068C169DB
:103750002A6941EA0221C16124E0206801F052F99E
:103760002068016D41F0080101652068016D21F0BC
:10377000040101652068016D2A69114311E0206888
:1037800001F078F92068016D41F40061016520685D
:10379000016D21F4806101652068016D2A6941EAAB
:1037A00002210165002084F83C0070BD10B50400C2
:1037B00003D094F83D0010B107E0012010BD0020B7
:1037C00084F83C00204600F022F8022084F83D00F6
:1037D000211D206800F076FF012084F8480084F85D
:1037E0003E0084F83F0084F8400084F8410084F8EB
:1037F000420084F8430084F8440084F8450084F8CB
:10380000460084F8470084F83D00002010BD704752
:103810007047000030B50446022269B1042912D075
:10382000082917D00C291CD0102921D094F8430066
:10383000012824D0012030BD94F83E000128F9D1A0
:1038400084F83E201DE094F83F000128F2D184F86E
:103850003F2016E094F840000128EBD184F8402086
:103860000FE094F841000128E4D184F8412008E0F9
:1038700094F842000128DDD184F8422001E084F868
:1038800043200122206800F075FF194B2068194978
:10389000194A984209D0884207D0904205D0174D66
:1038A000A84202D0164DA84203D1456C45F400450C
:1038B0004564206898420CD0B0F1804F09D0114B7C
:1038C000984206D0104B984203D0884201D09042D3
:1038D00007D181680D4A1140062906D0B1F5803F15
:1038E00003D0016841F001010160002030BD0000FB
:1038F000002C0140003401400040014000440140E0
:10390000004801400004004000080040070001009A
:103910002DE9F04100683849884215D1374D012121
:103920002846FEF705FD364C80B10121A846284601
:10393000FEF7FEFC00250127A4F1080650B12088FF
:10394000052807D925803770BDE8F0812088401C04
:103950002080F9E702214046FEF7EAFC50B102213F
:103960004046FEF7E5FC48B16088052806D9658029
:10397000022012E06088401C6080E5E70421404698
:10398000FEF7D6FC58B104214046FEF7D1FC50B1F9
:10399000A088052807D9A58003203070D4E7A08827
:1039A000401CA080D0E74FF0904801214046FEF730
:1039B000BFFC50B101214046FEF7BAFC48B1E08897
:1039C000C82806D9E5807770BEE7E088401CE08013
:1039D000BAE701214046FEF7ABFC38B1E088052884
:1039E00004D9C82802D2E5800420D6E72580658066
:1039F000A580E580A8E70000001000400004004812
:103A0000200000207047FEE7F0B537494A88002AB9
:103A10002CD14880DFF8D4E0354801239EF80070AF
:103A2000C67A02780021012F0DD0022F1FD0044644
:103A3000032F94F807C0A57964792AD0042F15D1F3
:103A4000022A3BD010E0012A04D0022A08D0032A1F
:103A500009D009E00222027036B9C372C17103E0D5
:103A60000322027000E003708EF80010F0BD012AFE
:103A7000FAD10279012AF7D1C3708278521C827080
:103A8000017142781AB1012AEED14170ECE743701E
:103A9000EAE7022AE8D1012E09D0BCF1010FE3D1F7
:103AA000641CE2B242710A2ADED94371DCE76D1C64
:103AB000EAB282710A2AD7D98371D5E70A22012E88
:103AC00009D0BCF1010FCFD1641E14F0FF03437184
:103AD000CAD14271C8E76D1E15F0FF03837100D192
:103AE00082718172C0E70000A4010020180000204C
:103AF0002C00002000B585B014216846FCF7C3FCFB
:103B00004FF6FF70009000200321CDE902010190E3
:103B100069460248FEF728FB05B000BD00080048D2
:103B200000B585B014216846FCF7ADFC4FF6FF7078
:103B3000009001200190032003900020029069462C
:103B40000248FEF711FB05B000BD00000008004868
:103B500070B5002406462146204600F02DF900F0FD
:103B600083F94FF49635304600F052F9641CAC42AC
:103B7000F9D370BD30B587B014216846FCF783FCDB
:103B80001E48C16C41F00401C164C16C01F0040124
:103B90000591C16C41F00101C164C16C01F00101EA
:103BA0000591C16C41F00201C164C06C012500F0B7
:103BB000020005904FF44870CDE9000500240394FD
:103BC000694602940E48FEF7CFFA2802039400904B
:103BD000CDE901544FF0904469462046FEF7C4FAFF
:103BE000FFF79EFFA06940F48070A0610448183080
:103BF000016841F40871016007B030BD0010024057
:103C000000040048203AD2B2034B02EB420203EB1D
:103C1000021200F019B80000AA590008F0B50E46CB
:103C20000746002540F23F1407E021463846FFF7DB
:103C3000E9FF103C6D1CA4B2761C3278002A01D03A
:103C4000142DF2D3F0BD00002DE9F04791468A46CD
:103C50000026044600F0B0F8DFF84080012700BFDE
:103C600000F002F95FF0000539F8160007FA05F1D7
:103C70000842404601D1408800E0008800F0C8F8C2
:103C80006D1C102DF0D3641CE4B25146204600F0A8
:103C900093F8761C182EE3D3BDE8F08710000020BF
:103CA00010B5FFF767FF002000F03EF8084CA08039
:103CB000A088A0F50241303906D000F09FFB00201B
:103CC00000F032F8A08010BD00F00FFBF7E7000015
:103CD000100000201049CA88002A0DD1C8800F4862
:103CE0000F4A002103781278022B06D0012B03D152
:103CF000042A01D10B4801707047022AFCD1C37A13
:103D00000122012B05D0C379012BF5D1C272C171FB
:103D10007047C172C2717047A40100202C000020BE
:103D2000180000201900002070B51D490A6842F4EF
:103D300000720A600A6842F480720A60184C103CF3
:103D4000226842F020022260164A1060086840F0A3
:103D50002000086000BF00BF00BF206840F02000C6
:103D60002060206840F480702060FFF7C3FE4FF0B1
:103D70009041886A40F48070886200BF00BF00BF35
:103D80000848001F006885B2886940F48070886127
:103D9000FFF7C6FE206840F400702060284670BD22
:103DA000280400481408004801B5BDF80000014986
:103DB000488008BD1000002010B50C4601462020A8
:103DC00000F080F82146BDE81040212000F07AB8CC
:103DD00001B5BDF800000149088008BD10000020B1
:103DE00009490A88002A0ED108800848007801286D
:103DF00005D0022805D0032805D101F045B800F010
:103E000073BF00F0F9BF7047A40100202C00002010
:103E1000134A116841F400711160114910390B689F
:103E200043F480730B600B6843F020030B600D4B71
:103E30001860106840F02000106000BF00BF00BF95
:103E4000086840F020000860086840F4807008604E
:103E500000BF00BF00BF086840F4007008607047F2
:103E600028040048140800481449086840F4007009
:103E70000860086840F480700860104810380268D4
:103E800042F0200202600E4B22221A600A6842F0C1
:103E900020020A6000BF00BF00BF016841F020019E
:103EA0000160016841F48071016000BF00BF00BF84
:103EB000016841F400710160704700002804004867
:103EC00014080048184B10B51A6842F400721A60C2
:103ED0001A6842F480721A60134A103A146844F067
:103EE00020041460114C2060186840F02000186015
:103EF00000BF00BF00BF106840F0200010601068D5
:103F000040F4807010602160186840F02000186054
:103F100000BF00BF00BF106840F0200010601068B4
:103F200040F48070106010BD280400481408004858
:103F300070B522490A89002A3FD108812048214CC6
:103F4000214D00784FF480714FF47E46012804D053
:103F5000022804D0032802D014E0002200E001224D
:103F60002046FEF7EAF9012231462046FEF7E5F940
:103F7000012204212846FEF7E0F900220421284608
:103F8000FEF7DBF911480078012816D181020022E2
:103F90002046FEF7D2F901224FF478412046FEF781
:103FA000CCF9012204212846FEF7C7F92846BDE8CE
:103FB000704000220421FEF7C0B970BDA4010020AA
:103FC0002C00002000080048000C004819000020C8
:103FD00000EB8100006E00F0F84070478068C0F38D
:103FE000C00070478068C0F380007047042303EA74
:103FF000D15310B518444369C1F3045107248C40D0
:10400000A3438A401343436110BD00EB8100016E5E
:1040100021F00041114301667047000030B589B0BE
:1040200020216846FCF72FFA19481849002401603E
:104030004902C0E90114C46004250461C0E90545D2
:10404000047744770121016280F82440C46204634C
:1040500080F83840C46380F84040FDF79FFE08B107
:10406000FDF754FB0B4800900620CDE901047F20AA
:104070000594CDE9030569460548FDF779FC00285C
:1040800001D0FDF743FB09B030BD00000001005036
:10409000540000200080F03EF0B587B0142168463F
:1040A000FCF7F1F92D48C16C41F00401C164C16C09
:1040B00001F004010591C16C41F02001C164C16CA3
:1040C00001F020010591C16C41F00101C164C16C96
:1040D00001F001010591C16C41F00201C164C16CA4
:1040E00001F002010591C16C41F00801C164C06C8E
:1040F0001B4E00F008004FF47F440590002221463B
:104100003046FEF71AF9174F002204213846FEF711
:1041100014F90125CDE90045002402946946304692
:104120000394FEF721F8CDE9005469464FF0904022
:104130000295FEF719F807208DE8310069460A4814
:10414000FEF712F804200090CDE901546946384684
:104150000394FEF709F807B0F0BD0000001002401C
:1041600000080048000C00480004004810B58EB05C
:1041700000240794089409940A940B940C941C212D
:1041800068460D94FCF77FF91D484FF080410160AF
:10419000C721C0E901146321C0E903148461FEF75B
:1041A000A8FE08B1FDF7B2FA4FF48050079007A9B6
:1041B0001348FEF769FF08B1FDF7A8FA1048FFF7AA
:1041C000F5FA08B1FDF7A2FA0B940BA90C480D946F
:1041D000FEF740FE08B1FDF799FA602000900A2032
:1041E000CDE901040422694605480494FFF74FFA1B
:1041F00008B1FDF78BFA0248FFF722FA0EB010BDA6
:10420000C000002010B58CB000240594224804940E
:104210000694079408940A940994009401940294D3
:104220001C49039401604F21C0E901144FF6FF714E
:10423000C0E9031480218161FEF75BFE08B1FDF740
:1042400065FA4FF48050049004A91348FEF71CFF50
:1042500008B1FDF75BFA1048FFF72DF808B1FDF73C
:1042600055FA089408A90C480A94FEF7F3FD08B122
:10427000FDF74CFA0120CDE9004002940422694682
:1042800005480394FEF790FF002801D0FDF73EFAA1
:104290000CB010BD000400400C0100203EB500240D
:1042A0000F48009401940D49029401604F21C0E928
:1042B000011442F20F718461C160FEF71AFE08B169
:1042C000FDF724FA0094694605480294FEF7C2FD02
:1042D000002801D0FDF71AFA3EBD00000010004092
:1042E00058010020FEE7FEE7704730B501210020AD
:1042F000FFF7E8FD4FF47A70FDF7FAF9002101208D
:10430000FFF7E0FD41F290711020FFF7DBFD4FF465
:104310001C516020FFF7D6FD01216120FFF7D2FD7F
:1043200002214620FFF7CEFD48F210011320FFF7CF
:10433000C9FD48F2FE011220FFF7C4FD4FF4A06151
:104340000220FFF7BFFD41F230010320FFF7BAFD65
:1043500040F2033421463020FFF7B4FD21463120DE
:10436000FFF7B0FD21463220FFF7ACFDE51E2946E0
:104370003320FFF7A7FD03213420FFF7A3FD2146DB
:104380003520FFF79FFD14213620FFF79BFD2146C6
:104390003720FFF797FD21463820FFF793FD214690
:1043A0003920FFF78FFD29463A20FFF78BFD0321C7
:1043B0003B20FFF787FD21463C20FFF783FD4FF4AC
:1043C000A0513D20FFF77EFD4FF400719220FFF7D2
:1043D00079FD21469320FFF775FD40F60D019020F1
:1043E000FFF770FD41F218010320FFF76BFDBDE8F8
:1043F000304040F273110720FFF764BD10B543F25F
:104400000801E320FFF75EFD1221E720FFF75AFDC8
:1044100041F23121EF20FFF755FD00210120FFF788
:1044200051FD4FF4E0610220FFF74CFD41F23001F5
:104430000320FFF747FD00210420FFF743FD40F272
:1044400007210820FFF73EFD00210920FFF73AFD74
:1044500000210A20FFF736FD00210C20FFF732FD76
:1044600000210D20FFF72EFD00210F20FFF72AFD70
:1044700000211020FFF726FD07211120FFF722FD64
:1044800000211220FFF71EFD00211320FFF71AFD67
:10449000C820FDF757FE41F290611020FFF712FD92
:1044A00040F227211120FFF70DFD3220FDF74AFED3
:1044B0001D211220FFF706FD3220FDF743FE4FF4C9
:1044C00000611320FFF7FEFC14212920FFF7FAFCFE
:1044D0000B212B20FFF7F6FC3220FDF733FE0021E5
:1044E0002020FFF7EFFC00212120FFF7EBFC072144
:1044F0003020FFF7E7FC40F207713120FFF7E2FCC4
:1045000006213220FFF7DEFC40F204713520FFF770
:10451000D9FC41F604713620FFF7D4FC0421372082
:10452000FFF7D0FC00213820FFF7CCFC40F20671E9
:104530003920FFF7C7FC40F201713C20FFF7C2FCB5
:104540000F213D20FFF7BEFC00215020FFF7BAFCF1
:10455000EF215120FFF7B6FC00215220FFF7B2FCFB
:1045600040F23F115320FFF7ADFC4FF41C51602087
:10457000FFF7A8FC01216120FFF7A4FC00216A20BD
:10458000FFF7A0FC00218020FFF79CFC0021812088
:10459000FFF798FC00218220FFF794FC0021832084
:1045A000FFF790FC00218420FFF78CFC0021852080
:1045B000FFF788FC10219020FFF784FC0021922057
:1045C000FFF780FC03219320FFF77CFC4FF48871F8
:1045D0009520FFF777FC00219720FFF773FC00215F
:1045E0009820FFF76FFC41F218010320FFF76AFCE7
:1045F000BDE8104040F273110720FFF763BC70471D
:1046000010B5FDF7A5FE0749002000BF31F81020C6
:1046100012B1521E21F81020401CC0B20828F5D358
:1046200010BD0000A401002010B594B038216846E8
:10463000FBF729FF14210EA8FBF725FF4FF40070AC
:10464000FDF718FF012000900004019002200324D0
:10465000CDE907041421CDE90A100C900D900994BE
:104660006846FEF7D7F908B172B6FEE70F20CDE92C
:104670000E04002010901190129002210EA8FEF757
:10468000A3F8002801D072B6FEE714B010BD0000F8
:104690000248016841F470010160704788ED00E054
:1046A0000148FEF7CFBE0000C00000200148FEF721
:1046B000C9BE00000C0100200148FEF7C3BE000087
:1046C000580100202DE9F0430268234B234D244E6E
:1046D000244C4FF08049984207D0484505D0A84265
:1046E00003D0B04201D0A04203D122F070074A6843
:1046F0003A431D4FDFF874C0DFF8748098420DD044
:1047000048450BD0A84209D0B04207D0A04205D0FE
:10471000B84203D0604501D0404503D122F4407532
:10472000CA682A434D6922F080022A4302608A68DF
:10473000C2620A688262984207D0A04205D0B8429D
:1047400003D0604501D0404501D1096901630121D1
:104750004161BDE8F0830000002C014000040040EE
:104760000008004000340140004001400044014086
:104770000048014010B501F01F030121046A99406F
:104780008C430462016A9A401143016210BD10B566
:10479000846842EA032224F47F440A43224382606D
:1047A00010BD00008268034B1A400A4342F0070123
:1047B000816070478FFFCFFF2DE9F043026A22F03E
:1047C00001020262056A436882691C4C25F00205F9
:1047D00022400C6822F0030214438A68194E2A43CF
:1047E000174D194FDFF864C0DFF86490A84207D076
:1047F000B04205D0B84203D0604501D0484506D14B
:1048000022F00808CA6842EA080222F00402A8421C
:1048100007D0B04205D0B84203D0604501D048452A
:1048200005D14D6923F440731D438B692B434360CD
:104830008461496841630262BDE8F0838FFFFEFF37
:10484000002C014000340140004001400044014080
:1048500000480140F0B5026A22F010020262056AC7
:1048600042688369194C1B4E23400C6823F4407343
:1048700043EA042425F020038D6843EA0513144D10
:10488000A84201D0B04206D1CF6823F0800343EAAA
:10489000071323F04003A8420AD0B04208D00E4DBF
:1048A000A84205D00D4DA84202D00D4DA84207D117
:1048B0004D6922F4406242EA85028D6942EA85022E
:1048C00042608461496881630362F0BDFF8FFFFE2F
:1048D000002C0140003401400040014000440140F0
:1048E00000480140F0B5026A22F480720262056A53
:1048F0004368C269194C1B4E22400C6822F0030227
:10490000144325F400728D6842EA0522144DA84232
:1049100001D0B04206D1CF6822F4006242EA0722F9
:1049200022F48062A8420AD0B04208D00E4DA842BC
:1049300005D00E4DA84202D00D4DA84207D14D69B9
:1049400023F4405343EA05138D6943EA051343609A
:10495000C4614968C1630262F0BD00008FFFFEFFC1
:10496000002C01400034014000400140004401405F
:1049700000480140F0B5026A22F480520262056AE2
:104980004268C369194C1B4E23400C6823F44073E2
:1049900043EA042425F400538D6843EA0533144D9B
:1049A000A84201D0B04206D1CF6823F4004343EAC5
:1049B000073323F48043A8420AD0B04208D00E4DFA
:1049C000A84205D00D4DA84202D00D4DA84207D1F6
:1049D0004D6922F4404242EA85128D6942EA85120D
:1049E0004260C461496801640362F0BDFF8FFFFE4D
:1049F000002C0140003401400040014000440140CF
:104A00000048014030B5026A22F480320262046A32
:104A10004268036D114D2B400D681D4324F4003393
:104A20000C8943EA04430E4CA0420BD00D4CA0422B
:104A300008D00D4CA04205D00C4CA04202D00C4C2A
:104A4000A04204D14C6922F4803242EA042242603E
:104A5000056549688164036230BD00008FFFFEFF79
:104A6000002C01400034014000400140004401405E
:104A70000048014030B5026A22F480120262046AE2
:104A80004268036D114D24F400142B400D6843EA75
:104A900005230D8944EA05540D4DA8420BD00D4D58
:104AA000A84208D00C4DA84205D00C4DA84202D017
:104AB0000B4DA84204D14D6922F4802242EA85229E
:104AC000426003654968C164046230BDFF8FFFFE28
:104AD000002C0140003401400040014000440140EE
:104AE0000048014010B5036A046A24F0010404621E
:104AF000846924F0F00444EA021423F00A020A4311
:104B00008461026210BD000070B5046A24F00104E3
:104B100004628469056A124EB0420ED0B0F1804F33
:104B20000BD0104EB04208D00F4EB04205D00F4E01
:104B3000B04202D00E4EB04203D124F0030414431D
:104B400001E044F001041A0724F0F00444EA126280
:104B500025F00A0301F00A0119438261016270BD68
:104B6000002C0140000400400008004000340140D7
:104B70000040014010B5036A23F01003036283690B
:104B8000046A23F4704343EA023224F0A00343EAA8
:104B900001118261016210BD30B5046A24F0100475
:104BA00004628469056A24F4407444EA022222F40F
:104BB00070444FF6FF7202EA03322243A02425F02C
:104BC000A00304EA011119438261016230BD10B5EE
:104BD0000A20FEF719FF3220FFF702F90120FCF747
:104BE0006BFD0A20FFF776F86420FFF7A1F9642037
:104BF000FCF78EFD0A2000F035F8BDE81040642077
:104C0000FCF714BDFEE703B401984100009850EA98
:104C1000C12018BF04204A0D18BF40F0010040F227
:104C2000FF72B2EB515F08BF40F00200012808BFDD
:104C3000052002B070470907090E002804DB00F1C7
:104C4000E02080F80014704700F00F0000F1E02031
:104C500080F8141D704730380A2801D201207047AF
:104C60000020704770B519498A89002A2CD1002488
:104C7000888125461648FDF7CBF91548FDF78AF8D7
:104C800086B21348FDF73EFA6D1C34440A2DF1DB61
:104C900000EE104AB2EE041AF8EE400A80EE810AE5
:104CA00010EE100A00F0FCFD9FED0A1B53EC112BD7
:104CB00000F076FA9FED091B53EC112B00F008FC75
:104CC00000F094F90749086170BD0000A4010020BC
:104CD000540000200000000000FEAF4066666666DB
:104CE00066660A402C00002010B52DED048B88B0BC
:104CF00020216846FBF7C7FB28A11820FEF78EFF8E
:104D00002A4C6078E17850EA010202D0012802D0F2
:104D100006E027A101E019B928A14820FEF77EFF8F
:104D2000227A29A16846FBF7D7FA69466020FEF788
:104D300075FF6079642110FB01F000F0B6FB41ECD7
:104D4000180BA07900F0B1FB41EC190B2348006867
:104D5000400000F0AAFB9FED221B53EC112B00F04A
:104D6000B7FB53EC192B00F0B3FB53EC182B00F0FE
:104D700017FA00F03BF9606100F092FD41EC100B76
:104D800019A153EC102B6846FBF7A6FA6946782068
:104D9000FEF744FF08B0BDEC048B10BD202020209E
:104DA0002020202044415441202000002C000020DD
:104DB00020202020204D3D48000000002020202001
:104DC000204D3D4C000000002020202020503D259B
:104DD0006425252020202020000000001C00002049
:104DE0001F85EB51B81E09402020202020563D256C
:104DF0002E3266202020200010B588B02021684681
:104E0000FBF741FB0EA11820FEF708FF104C11A183
:104E10006846A279FBF760FA69464820FEF7FEFE75
:104E2000627910A16846FBF757FA69466020FEF7E1
:104E3000F5FE10A17820FEF7F1FE08B010BD0000CD
:104E400020202020202020205041524120200000FE
:104E50002C00002020202020523D256420202020EE
:104E600020000000202020204B3D25642020202011
:104E70002000000020202020202020202020202092
:104E8000202020200000000010B588B020216846B6
:104E9000FBF7F9FA16A11820FEF7C0FE184C19A16D
:104EA0006846A278FBF718FA69464820FEF7B6FE76
:104EB000606A00F0F5FC41EC100B16A153EC102BCE
:104EC0006846FBF709FA69466020FEF7A7FEA0696D
:104ED00000F0E6FC41EC100B12A153EC102B6846DD
:104EE000FBF7FAF969467820FEF798FE08B010BD86
:104EF0002020202020202020524543440000000094
:104F00002C000020202020204E3D25642020202041
:104F100020000000202020204D483D252E31662015
:104F200020202000202020204D4C3D252E316620C1
:104F300020202000FDF714FAFFF776FBFFF7ACF80E
:104F4000FFF7ACF9FFF75EF9FFF710F9FFF766F826
:104F5000FEF7A6FE0020FEF7FBFD0020FEF724FF73
:104F60004FF6FF70FEF734FF4FF08040C72181629B
:104F70006321C162002181630B48FEF749F80421D7
:104F80000A48FEF7CBF904210948FEF743FC7F21CC
:104F90000848FCF7A3FC084901200870074908707D
:104FA000FFF715FEFCE70000580100200C0100206F
:104FB000C000002054000020370000202D000020F9
:104FC00010B500290AD00878002807D00548784491
:104FD000FBF738FE002801D0002010BD02487844BD
:104FE00010BD0000621C00005A1C000021F00042AD
:104FF000A2F16052B2F5801F01F0004328BFD2F148
:105000007F6C0BD95FEA001C43EAC20242EB50708E
:1050100018BF704728BF20F001007047B2F5801F0D
:10502000BCBF184670474FEA410C1CF5001F02D266
:10503000084600F0ABBC70B500F0F4FA000000893F
:10504000FFF7F6BF4FF00040A0F58000704700006A
:1050500010B591EA030F48BF83F0004300F13E838F
:10506000841A71EB030C05D2121943EB0C03001BDD
:1050700061EB0C01DFF824E14FEA1154A4EB135C5F
:105080001EEA430F18BF9EEA445F73D023EA0E0363
:10509000DCF1200E21EA045143F4801332D322FACA
:1050A0000CFE10EB0E0023FA0CFE41EB0E01CCF1CE
:1050B000200E03FA0EFE10EB0E0051F10001B1F5C7
:1050C000801FCCF1200E32D201EB045112FA0EF205
:1050D000BDE8104058BF7047401C38BF5FEA42022D
:1050E00018BF7047002814BF20F0010041F10001F3
:1050F0004FEA410313F5001F38BF7047A1F1C041CB
:1051000000F0DEBA012A43EB0302ACF1200CDCF123
:105110001F0E32BF4FF0000E23FA0CF310EB03000A
:1051200041EB0451B4EB115FD0D0A1EB045101F578
:10513000801149085FEA300001EB04510ED350F1B1
:10514000000038BF12FA0EFE08D1BDE81040C9E7D2
:10515000401C38BF5FEA4202CAD1C3E7BDE8104035
:105160004FEA410313F5001F38BF7047A1F1C0415A
:1051700000F0A6BA9EEA445F08D011EA5E0FBDE8CF
:10518000104004BF01F0004100207047BDE810400E
:1051900070B500F047FA00BF64FBBE3E0000E0FFC0
:1051A0002DE9C04130B4DFF8A0C23CEA111418BFA9
:1051B0003CEA131400F0EC8081EA03051CEA1114A8
:1051C00044EAD57418BF1CEA131500F0C780A4EB9D
:1051D00005044FF0004545EAC12145EAC32341EAF1
:1051E000505143EA525304F17F74994204F500345C
:1051F0004FEAC0204FEAC22208BF904200F09C80D4
:105200004FEA13650FF24016765D4FEA134506FB31
:1052100005F7C7F1807706FB07F74FEAD737A7FBFB
:1052200003687642C8F58038A7FB06CE38BFA8F1E0
:10523000010807FB08E64FF0000EA6FB028CE6FB18
:1052400003CEDCF1000CCEF1004E38BFAEF1010E02
:10525000A6FB0C584FF000074FF00005E6FB0E8749
:10526000A1FB08C6A0FB07CE16EB0E0645F1000514
:10527000E1FB076515F1E04E7EBFA4F580345FEADF
:1052800046066D4116F1800745F100054FEA1727E4
:105290004FEA066647EA0567A6F1DE46B6F1805F8B
:1052A0004FEA15251FD9384624F0010C05EBC471CF
:1052B000BCF1FE6F01EB0C1102D8F0BCBDE800811F
:1052C00024425CBF01F5801E9EEAC47F02D4F0BC7C
:1052D000BDE80081244238D4F0BCA1F1C041BDE852
:1052E000004100F0EDB94FEAD22242EA43524FEAC0
:1052F000D323A7FB02864FEAD02040EA415007FBA8
:1053000003661EEA0E0F4FEAD12105FB026658BF65
:10531000A6EB0056B6EB00564FEA520E4EEAC37E9D
:1053200018EB0E0E56EB530EBDD518EB02085E417E
:105330007F1C55F10005B6E74FF480154FF00007CC
:105340004FF000064FF00008ADE7F0BC4FF0000052
:1053500001F1C04101F00041BDE8008111EA0C1FDC
:105360000CEA131500D00CE013EA0C1F00F02580A6
:105370004FF00000F0BC81EA030101F00041BDE8FC
:105380000081F0BCBDE8004181EA030100F098B95A
:10539000F0BCBDE8004170B500F044F9097EFC3E68
:1053A00000F007B881EA03014FF0000001F000416E
:1053B000704781EA030100F083B9F0BCBDE8004109
:1053C0004FF0000021497047FFFDFBF9F7F5F4F2BB
:1053D000F0EEEDEBE9E8E6E4E3E1E0DEDDDBDAD890
:1053E000D7D5D4D3D1D0CFCDCCCBCAC8C7C6C5C4EE
:1053F000C2C1C0BFBEBDBCBBBAB9B8B7B6B5B4B305
:10540000B2B1B0AFAEADACABAAA9A8A8A7A6A5A4EF
:10541000A3A3A2A1A09F9F9E9D9C9C9B9A999998B3
:105420009797969595949393929191908F8F8E8E56
:105430008D8C8C8B8B8A89898888878786858584E3
:1054400084838382828181800000FF070000F87FCF
:105450004FEA1153A3F58063D3F11E03A8BFD3F124
:10546000200C08DB4FF0004242EAC12252EA5052BF
:1054700032FA03F0704709420BD4102BC4BF00204E
:10548000704703F5787CBCF1FF3F05D04FF0FF304B
:1054900070474FF00000704770B500F0C3F800BFD0
:1054A0004992248000207047F0E7B0FA80F310FAA8
:1054B00003F10AD0C3F11D0303F580634FEA4150A5
:1054C0004FEA035202EBD12170474FF000007047C2
:1054D000DFF848C170B51CEA111E1EBF1CEA131587
:1054E0009EEA0C0F95EA0C0F00F06F8081EA03042E
:1054F00023EA4C134EEAD47E21EA4C1141F4801188
:1055000043F48013AE44A1FB024CA0FB0365AEF153
:105510007F7E361955EB0C05A1FB034C4CF10003C3
:10552000A0FB021C16EB0C06654153F10003094277
:1055300018BF46F0010613F4007F0BD14FEA033188
:105540004FEA0530340341EA155140EA16506FF036
:1055500003020AE04FEAC3214FEAC520F40241EA00
:10556000555140EA56506FF0020202EB2E4201EB19
:10557000025585EACE710AD05FEA440C18BF24F0C8
:10558000004450F1000041F1000120EAD47040F2E3
:10559000FE7C624500D270BDA84214BF4FF080442B
:1055A0004FF04044002E08BF0024BEF1806FA8BF1A
:1055B000A1F1C041BDE8704080F282804FF0000050
:1055C00001F1C04101F0004170479EEA0C0F0CEA66
:1055D000131518BF95EA0C0F06D04FF0000081EAB2
:1055E000030E0EF0004170BD00F01CF88900013E72
:1055F00000F007B800F009B84FEA430C5FEA5C5CC2
:1056000008D081EA030100F05BB84FEA410C5FEA81
:105610005C5CF6D14FF00000014970470000FF07C5
:105620000000F87F0EF1020E2EF0030E5EF8046B00
:10563000364205D4012A43EB030515F5001F12D8A5
:10564000012841EB010C1CF5001F0CD80ED14FEACC
:10565000D17C15F5001F0CEB4C0C0CF1020C08BFB3
:105660004CEBD37C04E04FF0080C01E04FEAD37C14
:105670000CEB4C0526FA05F606F00706B6F1040C0D
:1056800006D20EEB860CBDE870404CF0010C604772
:10569000DFE80CF0090B02024FF000414FF0000070
:1056A000A1F5002170BD19461046012851EB0104F7
:1056B00018BFD4F5001484BF002001F0004170BD74
:1056C0000808A0F500114FEA3101704710B591EAC2
:1056D000030F48BF83F000433FF5C2AC841A71EB5F
:1056E000030C07D212198CF0004C43EB0C03001B87
:1056F00061EB0C01DFF8A4E14FEA1154A4EB135C59
:105700001EEA430F18BF9EEA445F00F0B08023EA10
:105710006E03524221EA0451C3EB6E0338BF5B1E95
:10572000DCF1200E25D322FA0CFE10EB0E0043FA1A
:105730000CFE41EB0E01CCF1200E03FA0EFE10EB35
:105740000E0051F10001CCF1200E29D412FA0EF214
:1057500001EB0451BDE8104058BF7047401C1CBF0E
:10576000B2F1004F704700280CBF491C20F0010027
:10577000704712EB020E43EB030218BF4FF0010E0D
:105780004EEA4202ACF1200CDCF11E0E54D943FA71
:105790000CFE10EB0E0051F1FF31CCF11E0ED5D5F1
:1057A0000EF1010E12FA0EFE404141EB010101EB38
:1057B000445C5FEA5C5C10D910EBDE7001EB0451D5
:1057C00038BFBEF1004FBDE8104018BF7047002839
:1057D0000CBF491C20F00100704730D24FEAD42C96
:1057E00011F5001124F400641BD0B1FA81F20B3AD8
:1057F000A41AA41ED2F12003914030FA03F31943F6
:10580000904001EBCC71002C01EB0451BDE810403D
:10581000A8BF704701F1C0414FF0000001F0004106
:105820007047B0FA80F310FA03F100D110BDE41A0A
:10583000173C4805C90AE4E701EB045110BD4910C3
:1058400001EB0451BDE810404FEA300002E04FF098
:10585000000170474A0008BF0042F8D0B2F5001FAF
:1058600028BF704701F000414FF0000070479EEAEA
:10587000445F07D011EA5E0FBDE8104004BF00216D
:1058800000207047BDE8104070B5FFF7CBFE00BFA9
:1058900040DFF63E83F00041104670470000E0FF15
:1058A00043004FEAD30C4FEA3C0C43401FBF400774
:1058B0000CF1605113F0FE4F70471CF0006F03D1E4
:1058C00000200CF0004170470CF0004343EA507098
:1058D00010B540EACC0000F00EF800BF00000092C6
:1058E0004FEA0001FFF7ECBE4FF000414FF000001F
:1058F000A1F5002170470EF1020E2EF0030E5EF8A6
:10590000044B244204D44FEA4102B2F17F4F11D834
:105910004FEA4003B3F17F4F0CD80ED14FEAD07C51
:10592000B2F17F4F0CEB4C0C0CF1020C08BF4CEBAE
:10593000D17C04E04FF0080C01E04FEAD17C0CEB85
:105940004C0324FA03F404F00704B4F1040C06D267
:105950000EEB840CBDE810404CF0010C6047DFE812
:105960000CF0070802024FF00040A0F5800010BDC7
:105970000846420018BFD2F1807288BF00F0004094
:1059800010BD4FF04070E1EE100A7047FF2141EA70
:10599000D050C0057047FAF7D2BE000000000000EA
:1059A00000000102030406070809000000000000CF
:1059B00000000000000000000000000000000000E7
:1059C00000000000000000000000000000000000D7
:1059D00000000000000000000000000080018001C5
:1059E00080018001800180018001800180018001AF
:1059F0008001800180010000000080018001000022
:105A00000000000000000000000000000000CC00CA
:105A1000CC00CC00CC00CC00CC000000000000008A
:105A20000000000000000000000000000000000076
:105A30000000000000000000000000000000000066
:105A4000000000000000600C600C600C30063006A6
:105A5000FE1FFE1F300638071803FE1FFE1F180327
:105A600018038C018C018C01000000008000E00311
:105A7000F80F9C0E8C1C8C188C009800F801E00725
:105A8000800E801C8C188C189C18B80CF00FE0034A
:105A90008000800000000000000000000000000006
:105AA0000E181B0C110C11061106110311039B019A
:105AB0008E01C038C06C60446044304430441844A7
:105AC000186C0C380000000000000000E001F0033A
:105AD0003807180618063003F001F000F8009C3172
