:020000040000FA
:10000000C03E0020C1000000FD190000F5120000F4
:10001000FFFFFFFFFFFFFFFFFFFFFFFFFFFFFFFFF0
:10002000FFFFFFFFFFFFFFFFFFFFFFFF631A00005F
:10003000FFFFFFFFFFFFFFFF611A0000E51B00004D
:1000400003010000030100000301000003010000A0
:100050000301000003010000030100000301000090
:1000600003010000FFFFFFFF030100000301000088
:10007000811200000301000003010000FFFFFFFFE9
:10008000FFFFFFFF750F00000301000003010000E8
:100090000301000003010000030100000D1E000029
:1000A0004D1E0000551D0000C11D00000301000091
:1000B0000301000003010000011A00000301000019
:1000C0001048804710488047104800471048016991
:1000D000002910D1416900290DD1816900290AD177
:1000E000C169002907D1BFF34F8F0A490A48C86088
:1000F000BFF34F8FFEE77047FEE7FEE7FEE7FEE740
:10010000FEE7FEE7CD000000151C00001D01000009
:100110000003084000ED00E00400FA0503488546AE
:1001200000F05CFC00480047992A0000C03E002017
:1001300030B50B46014600202022012409E00D467F
:10014000D5409D4205D31D469540491B2546954007
:1001500040191546521E002DF1DC30BD03460B43FD
:100160009B0703D009E008C9121F08C0042AFAD26D
:1001700003E00B780370401C491C521EF9D27047F3
:1001800030B505462A460B4610781C78521C5B1C7D
:10019000002801D0A042F7D0002C03D0002802D0C4
:1001A0006D1CEFE7284630BD0FB400B58DB0099047
:1001B0000B9010A900200091C0430A9000200C90E1
:1001C00006480690064807906A4609A80F9900F06D
:1001D00093F90DB008BC04B01847000019050000E1
:1001E00039050000FFB5002083B0009050680190F1
:1001F00091691446002697680498884705460C992B
:100200000698084305D009E0A169761C0498884740
:100210000546216A284688470028F5D1681C03D086
:100220000198C00704D017E00020C04307B0F0BD1C
:100230002068011D2160006800900DE00198C00752
:1002400004D1009805700098401C0090A169761CAC
:100250007F1E049888470546002F1CDD681C1AD0B5
:10026000069800280FD0E817C00E401941118A00E7
:1002700006994009511840012A1A09680120904046
:100280000142DBD107E00C980028D7D1216A28462B
:1002900088470028D2D0E169049888470C98002844
:1002A00007D1002E05DD0198C00702D1009800217A
:1002B0000170A068B84204DD0C98002804D0002F1B
:1002C00002D00120C043B1E73046AFE770B5064623
:1002D00001F060FF046805460A220021304600F064
:1002E0003DF92C6070BDF8B502464A40D40F42007B
:1002F0004B0052085B089A4202D202460846114659
:100300004A0023D0C30D4A00DDB2120EAD1A202DD3
:1003100035DA49020126490AF6058A19002C00D06F
:10032000524220214F1B1146B9402A411018C20DDC
:100330009A4221D0002C17D0012D08DCDA05801A52
:10034000D20F8019D207DBB200F048F9F8BDDA0508
:10035000801A012340001B06C01880185A428018DA
:10036000CA0F1043490007E04908C2071143DA05E4
:10037000801A80194008801800F028F9F8BD610043
:100380000122511A001BF7E70122D2075140AAE7C8
:100390000122D2075040A6E7024670B54A40D30F6B
:1003A000DB0740002DD04A002AD0010E140E0002B7
:1003B00012020919400A520A8418E50104465443FE
:1003C000000A120A2E045043A4194219200CC543F6
:1003D000AA18120C0125AD03521C521912047F39C0
:1003E000240400D0521C104301D44000491EC2B264
:1003F0000C06C0092018401C4008802A02D003E0E7
:10040000002070BD40084000002900DA0020184399
:1004100070BDC217C10F504010B54018CA079623CF
:10042000002100F0DBF810BD10B500229623114624
:1004300000F0D4F810BDC20F410040020123400A71
:10044000DB05D207090EC0187F2901DA00207047AA
:10045000962903DC9623591AC84001E09639884052
:10046000002AF4D040427047F0B51FB40646002081
:1004700082B005464024019100901BE0019922467C
:100480000F46304600F020F8049A059B801A9941E7
:1004900010D310461946224600F0B2FA361A8F41A0
:1004A0000197224601200021009F00F0A9FA381888
:1004B0004D4100902046641E0028DFDC019B00981F
:1004C0002946324607B0F0BD10B5202A04DB0846A5
:1004D000203AD040002110BD0B46D340D04020240C
:1004E000A21A91400843194610BD00000268137813
:1004F000511801601846704710B5D1600449516128
:100500000449116200211161114600F0ABFA10BDDF
:10051000ED040000510A00004268002A08D001687A
:100520000B78491C002B03D0521E06C0184670479A
:100530000121C160881E70474268002A0BD0C36841
:100540000168002B07D183688B4204D0491E521CDE
:1005500006C0002070470020C0437047F7B5009CDC
:100560000F4600262578641C002D05D000F06CFA9B
:100570000068405DC007F5D12B2D02D02D2D18D07D
:10058000641E39462046029A00F008FC002F04D071
:100590003968A14201D1009939607105022400290E
:1005A0000BDA4042002803DD01F0F4FD0460A007EF
:1005B000FEBD012080020643E3E70028F8DA01F0DF
:1005C000E9FD04600048FEBDFFFFFF7F002904DA5B
:1005D000401C490001D140084000704770B400241D
:1005E000050C05D11024000402D1002921D01124CA
:1005F000050E01D100020834050F01D10001241DB0
:10060000850F01D18000A41C002801DB4000641C80
:10061000002908D020252E1B0D46F540A14000D012
:1006200001212943084301061B1B000ADB1D02D5DB
:10063000002070BC7047DB05181880180029F8DA14
:10064000401C4900F5D170BC4008400070470000D4
:10065000F0B507460846584087B0C00F04904800E0
:100660000E46590040084908BC1A884105D2384650
:1006700031461E4617460B460246580040081043B6
:100680004CD0300D039040055900400D490D0590A8
:10069000401A0290402872DA18030121000B090564
:1006A0000843019004980092002805D00199524215
:1006B0000020884100920190029840210A1A019975
:1006C000009800F09DF905460C466B4607CB00F0FC
:1006D000A7F9C0197141039A0E0D0023D717564090
:1006E0001A467A40164344D0049A002A2DD0029A22
:1006F000012A039A15DC1205C01A9141012636051C
:10070000001C7141D20F059ED20700930192029600
:100710002A46234600F0A2FB07B0F0BD384631461A
:10072000FAE71605224A0F46B218C01AB74101214E
:100730000905001C4F4100187F41114618187941E6
:10074000E20F10436D19644113E0E2076D08154391
:100750006408C2071443039A01261205C01A914186
:100760003605001C7141CE07400830434908C018C7
:1007700051412A46234600F064FBCDE7FFE7049889
:1007800001224000C117121A00238B410498314600
:10079000C417381AA141EEE730B40124E4076340DE
:1007A00030BC55E730B40124E407614030BC4FE76A
:1007B0000000E0FFF0B51FB488B00B990998002441
:1007C00048400999C00F490049080991C0070B9991
:1007D0000090490049080B9109990898A6460843DA
:1007E0001CD00B990A98084318D00998012440009E
:1007F000420D4800410D099824050003000B2043D9
:1008000009900B980003000B20430B9050181C49D3
:100810004018002201901446104605E000200146D1
:100820000DB0F0BD032801DA034600E003239C4627
:10083000C11A0AAE0AE05F0008ADED5B4F00F75B3E
:100840007D430027AA187C41491C5B1E6145F2DDEF
:10085000410004AB5A522104120C0A43240C401CE0
:100860000828DFDB01980290009970460191009002
:10087000059B049A0799069800F0F0FAD0E700006B
:100880000DFCFFFFF0B50C465C4085B0E40FE407BB
:1008900003944C0000266408590094464908024617
:1008A0000296224321D062460A431ED06200570DB1
:1008B0004A000E032303550D012402462C4924054A
:1008C000781B1B0B360B40182343264361460090D0
:1008D0001C46501AB44103D30098401C009002E01B
:1008E000921800985B41002803DA0020014605B009
:1008F000F0BD0020012109050746864611E0644647
:100900001D46141BB54106D36546521BB3417446C0
:1009100007430C43A646CD074008490828439218D0
:100920005B4105460D43EAD11046184313D060469B
:10093000194650407140084306D06046101AB34132
:1009400006D20122002306E000220123DB0702E099
:100950000122D2435310009874460105381C6141AE
:10096000029C039D0019694100F06BFABFE700008B
:10097000FD0300004A0009030123090B1B0519436D
:100980000A4B10B5520D9A4202DA0020014610BD02
:10099000064B34339A4203DC9A1AFFF795FD10BDDB
:1009A000034BD21800F02CF810BD0000FF0300002C
:1009B000CDFBFFFF10B5002904DB0124E407404212
:1009C0008C412146002B04DB1C460123DB075242ED
:1009D000A341994200D1904210BD0000064C012570
:1009E000064E05E0E36807CC2B430C3C98471034D7
:1009F000B442F7D3FFF796FB3432000054320000C4
:100A000010B5202A04DB0146203A9140002010BD99
:100A1000914020239C1A0346E3401943904010BDA7
:100A200010B5202A06DBCB170846203A1041C11723
:100A30000B4306E00B461341D0402024A21A9140FC
:100A40000843194610BD00000048704730320000CE
:100A500010B50446FFF7F8FF0068005DC007C00F3F
:100A600010BD0000F3B58DB000200A9001200B905E
:100A7000002608460C300C4609906269012109984D
:100A80009047051E2ED0252D2DD0216A884700289D
:100A900018D06269012109989047216A8847002887
:100AA000F7D1411E62690998904700E0761CA16960
:100AB0000D988847216A88470028F7D1E1690D9889
:100AC0008847DAE7A1690D9888470746A84201D10F
:100AD000761CD2E7E1690D9888477F1C02D10A98FD
:100AE000002877D049E1002762693D4639460998D8
:100AF00090472A280CD16269012109989047012565
:100B000006E00A214F433F18303FEBD41020054345
:100B10006269012109989047014630390A2903D2B8
:100B20009B498F42DEDCECE7E90600D4994F6C2844
:100B30000AD04C2810D0682824D06A282ED07428D7
:100B40000CD07A280AD00DE06269012109989047FB
:100B50006C2823D004211CE0202005436269012178
:100B600009989047A760656065284FD026DC582813
:100B700039D01ADC452849D012DC252834D0412848
:100B8000B0D143E06269012109989047682802D0FA
:100B900008210D43E6E70120C002DEE70220DCE782
:100BA000462833D047282CD130E05B2870D061280C
:100BB0002CD063286CD0642823D161E06F284FD0FB
:100BC00009DC662822D0672820D0692826D06E2824
:100BD00017D12EE0CDE070284DD073286FD0752846
:100BE0004ED078280DD154E0A1690D98884705466C
:100BF000252800D16CE7E1690D9888476D1C00D16C
:100C00006DE7BAE00A224CE00A2252E001202346B6
:100C10006A46C0430D99C046C046A3E0284640211D
:100C200008436060A807234601D5002239E000226E
:100C30003FE0E80700D020E72068011D2160006840
:100C4000290501D5067018E7290701D5068014E7A4
:100C5000A90703D5F117066041600EE706600CE7AF
:100C60002846402108436060A807234601D5082292
:100C700017E008221DE0484928460840606016E059
:100C80002846402108436060A8072346BCD5B9E741
:100C900015E02846402108436060A80707D5234691
:100CA00010220120C0430D99C046C0465AE0234699
:100CB00010220120C0430D99C046C04652E00021D9
:100CC0000C910B460091632802D05B2807D043E0CB
:100CD000E80601D40120A060012000903CE0626998
:100CE0000121099890475E2805D101200C9001460A
:100CF0006269099890472169002906D10B4601AA2B
:100D00008F00491CD3510829FADB002835D021690E
:100D100000290ED1C117C90E09184A11930001AA62
:100D20009A1849094901411A012013688840034370
:100D3000136062690121099890475D28E5D10C98FC
:100D4000002808D0002001AB81005A58401CD24333
:100D50005A500828F8DB01AB01202246C0430D9908
:100D6000FFF740FA00280ADA401C06D10B98002849
:100D700003D00020C0430FB0F0BD0A98FBE7E9079D
:100D800002D10A99491C0A91361800200B9074E68A
:100D9000CCCCCC0CFFFFFF7FF1F7FFFFF7B582B0A3
:100DA000029C00272078641C15460197302802D049
:100DB000002D15D015E020780127641C782804D078
:100DC000582802D0002D09D00BE0002D01D0102DA5
:100DD00007D1002710252078641C02E0082500E0D8
:100DE0000A250026009610E000990127694308189B
:100DF000020C294680B2714300908E183804864256
:100E000001D3012001902078641C294600F078F875
:100E10000028E9DA0398002805D0002F01D0641ECD
:100E200000E0029C04600198002806D001F0B2F9AD
:100E300002210160C81E05B0F0BD009930040843CE
:100E4000F9E710B5002B08DA0024401C6141921824
:100E50005B411A4301D14008400010BDF0B51FB4FA
:100E600082B005460C0003D0084601F06FF902E09D
:100E700001F06CF920300246009021462846FFF729
:100E8000BFFD049B059A04460F46184311430843CF
:100E900014D0184610431BD0009840210A1A184657
:100EA0000599FFF711FB05460E46009A059904982F
:100EB000FFF7A6FD084305D0012004E0204639468F
:100EC00007B0F0BD0020C11705430E432C43374344
:100ED00000990E986305401A7905E40A00220C4334
:100EE000FD0A0A3002D500200146E9E70105101984
:100EF00069410C9C0D9D00196941FFF7A2FFDFE7D6
:100F00003A2800D23038202302469A43412A01D39E
:100F100010463738884201D30020C0437047000094
:100F2000F0B59646124AC000841800230025FF221F
:100F30009A4028460A4216D0002201269E40B44616
:100F40000E46D64067463E4206D097000F26BE406A
:100F500035437646BE403043521C082AF0D32268FF
:100F6000AA43024322600833241D082BDEDDF0BDB6
:100F70002020024070B5114D284600F035F8104C85
:100F8000012813D12078030001F0F7F806060406C3
:100F90000606091000F03CF800F0CAFC06E009491A
:100FA000002008700146284600F015F82078401C03
:100FB0002070284600F008F870BD0000006007406F
:100FC00018000020140000204168490849004160D1
:100FD000BFF34F8F704704220029016801D01143ED
:100FE00000E09143016070474068C00700D00120D5
:100FF00070470029016802D00122114301E049082D
:10100000490001607047C16070478160704700000F
:1010100010B50020012212040123014600F090F8CF
:1010200003210C2000F0A0F801200B4940040860C7
:101030000A4800680A4C81082046FFF7E4FF0021B7
:101040002046FFF7E2FF01212046FFF7D2FF0121F2
:101050002046FFF7C0FF10BD00E100E000000020C7
:101060000060074070B5184D0446686B4607760F60
:1010700000F02EF815492060330001F07EF80814C6
:1010800005070714140E1114606000E06160296AFE
:101090006068052909D3400908E00120C003F3E78F
:1010A0007D200002F0E70020EEE7C840A060A96ABA
:1010B0004903490F072902D0C840E06070BD0321F1
:1010C000FFF736F8F9E700000080084000127A00C8
:1010D0000C490868C869C20F4868400AC007C00FB9
:1010E0000ED00948002A0BD18869C00D0007000FF7
:1010F00000D110208969044A4902890F5043C84031
:10110000704700000080084000127A001FB54109B6
:101110000A4A89008A1800212E2800D10221C0061F
:10112000C00E1268032383401A40C2405418684618
:10113000FFF798FF029804B0E04010BD38800840E7
:10114000F0B5084F7D6AFE6A3C6B85438E4394433D
:10115000002B02D005430E4314437D62FE623C63C4
:10116000F0BD0000008008404209084B920010B515
:10117000D2182E2800D1891EC006C00E0324844038
:1011800013688140A3430B43136010BD38800840AF
:1011900030B5057B00240123002D0FD0002A02D09A
:1011A0000268521E02600288120451184268891AAD
:1011B0008160417B002909D0837308E0002A01D0B7
:1011C000036000E004604160037330BD4373047347
:1011D00030BD81627047002A026801D00A4300E0F6
:1011E0008A4302607047F0B5002694463346344681
:1011F0000322CD0706D067006546BD402E43154645
:10120000BD402B434908641C102CF2D3416999431B
:101210004161416931434161F0BD002A426801D01A
:101220000A4300E08A4342607047002A026901D005
:101230000A4300E08A4302617047002A08D0012A6D
:1012400009D082688A438260C2688A43C26070475C
:1012500082680A43F7E7C2680A43C26082688A4329
:1012600082607047C069084000D001207047416229
:101270007047002A01D041627047816270470000C8
:10128000F8B519490026C86B174A403215688B1506
:101290000446CF6B1C401F40BC4201D0C86B156890
:1012A000C243CA63114CC10506D5114A2168012603
:1012B000914201D0491C2160800714D50A4F403F5C
:1012C000384600F025FD002E03D0A84201D90122A6
:1012D00000E0002281B20548FFF75AFF227B01217E
:1012E000384600F00BFDF8BD40E00640000E00203F
:1012F000FFFF0000FEE70000012210B51146104676
:10130000FFF70EFE012202211046FFF709FE154CE1
:10131000022201212046FFF790FF012211462046BC
:10132000FFF761FF012211462046FFF754FF01221B
:1013300011462046FFF779FF022211462046FFF7AB
:101340007CFF012202212046FFF74DFF01220221EE
:101350002046FFF740FF012202212046FFF765FFEC
:1013600010BD000000200B4001235B041843DB107C
:1013700010B519430123FFF7E3FEFFF7BDFF10BDD2
:1013800070B51A4E0024224602213046FFF723FF93
:10139000012202213046FFF740FF00256006040EBF
:1013A00001213046FFF763FF022000F0DDFB002241
:1013B00002213046FFF70FFF012202213046FFF7DE
:1013C0002CFF02213046FFF74DFF002801D0641C9E
:1013D000E4B201213046FFF7FCFE022000F0C4FB1E
:1013E0006D1CEDB2082DD9D3204670BD00200B40F6
:1013F00070B5184E0546012202213046FFF7EBFE7C
:101400000024280604D502213046FFF730FF03E010
:1014100002213046FFF7DDFE022000F0A5FB01218E
:101420003046FFF724FF022000F09EFB01213046EA
:10143000FFF7CFFE072C03D102213046FFF717FF3D
:101440006806050E022000F08FFB641CE4B2082C35
:10145000D7D370BD00200B4010B5104C01220221E3
:101460002046FFF7B8FE01212046FFF700FF0221CA
:101470002046FFF7FCFE022000F076FB022120460A
:10148000FFF7A7FE022000F06FFB01212046FFF7C7
:10149000A0FE022000F068FB10BD000000200B4001
:1014A00010B50B4C012202212046FFF794FE0221C9
:1014B0002046FFF78EFE01212046FFF7D8FE0220CE
:1014C00000F052FB02212046FFF7D1FE10BD0000C4
:1014D00000200B4070B5154D01212846FFF7C7FECF
:1014E000022000F041FB02212846FFF7C0FE022047
:1014F00000F03AFB002202212846FFF76CFE012291
:1015000002212846FFF789FE02212846FFF7AAFE9E
:10151000002801D0012400E0002401212846FFF723
:1015200058FE022000F020FB204670BD00200B403A
:1015300070B501220F4D140221462846FFF74BFEDD
:1015400021462846FFF745FE022000F00DFB8021D2
:101550002846FFF78CFE022000F006FB802128467B
:10156000FFF737FE022000F0FFFA21462846FFF77A
:101570007EFE70BD00200B4070B501228021104618
:10158000FFF7CEFC0122140221461046FFF7C8FCEB
:10159000144D022280212846FFF74FFE01228021B0
:1015A0002846FFF720FE012280212846FFF713FE80
:1015B000012280212846FFF738FE022221462846D4
:1015C000FFF73BFE012221462846FFF70CFE0122D1
:1015D00021462846FFF7FFFD012221462846FFF756
:1015E00024FE70BD00200B4001235B041843DB1078
:1015F00010B519430123FFF7A3FDFFF7BDFF10BD91
:10160000F8B5FF271A4E00240137224639463046E6
:10161000FFF7E1FD012239463046FFF7FEFD0025C8
:101620006006040E80213046FFF721FE022000F004
:101630009BFA002239463046FFF7CDFD012239469C
:101640003046FFF7EAFD39463046FFF70BFE00282B
:1016500001D0641CE4B280213046FFF7BAFD0220BD
:1016600000F082FA6D1CEDB2082DD9D32046F8BDEA
:1016700000200B40F8B50122174E054617023946E7
:101680003046FFF7A8FD002428063946304602D52B
:10169000FFF7EDFD01E0FFF79CFD022000F064FA8A
:1016A00080213046FFF7E3FD022000F05DFA802143
:1016B0003046FFF78EFD072C03D139463046FFF741
:1016C000D6FD6806050E022000F04EFA641CE4B256
:1016D000082CD9D3F8BD000000200B4070B50122C2
:1016E0000F4D140221462846FFF775FD802128463C
:1016F000FFF7BDFD21462846FFF7B9FD022000F0A7
:1017000033FA21462846FFF764FD022000F02CFA48
:1017100080212846FFF75DFD022000F025FA70BD0C
:1017200000200B4070B501220A4D140221462846C4
:10173000FFF751FD21462846FFF74BFD8021284643
:10174000FFF795FD022000F00FFA21462846FFF72B
:101750008EFD70BD00200B4070B5164D80212846CF
:10176000FFF785FD022000F0FFF9AC152146284661
:10177000FFF77DFD022000F0F7F900222146284600
:10178000FFF729FD012221462846FFF746FD2146A5
:101790002846FFF767FD002801D0012400E000245F
:1017A00080212846FFF715FD022000F0DDF92046D4
:1017B00070BD000000200B4010B5FFF715FF0A2098
:1017C0000146401EC0B20029FAD10549002000F0B0
:1017D0002EF80521C902052000F029F810BD0000EF
:1017E0002745000070B50446FFF778FF8020FFF71B
:1017F00041FFFFF7B1FF2046FFF73CFFFFF7ACFFCB
:10180000FFF790FFFFF76AFF8120FFF733FFFFF735
:10181000A3FFFFF7F5FE0446FFF78AFE2402FFF759
:10182000EFFE20430546FFF77DFF284670BD70B5EB
:101830000C460546FFF752FF8020FFF71BFFFFF71E
:101840008BFF2846FFF716FFFFF786FF200AFFF7FA
:1018500011FFFFF781FFE0B2FFF70CFFFFF77CFFFE
:10186000FFF760FF70BD000070B50220FFF7BAFF00
:10187000FEF7DAFD184E04463146FEF78DFD0546AB
:101880001649FEF789FDFEF7D6FD014614A000F0CB
:1018900087FA2046FEF7CFFDFEF7BBFD3146FEF787
:1018A0007BFDFEF7C8FD0446FEF7B3FD0146284662
:1018B000FEF76AFD1149FEF76FFDFEF7BCFD054618
:1018C00021460FA000F06CFA294613A000F068FA38
:1018D0000120FFF787FF70BD0AD7A33A000020411F
:1018E00061646420636865636B562E73302E69648F
:1018F0002C302C2564FFFFFF0000000000007A441C
:10190000636865636B562E74302E7478743D22259F
:101910006422FFFFFF000000636865636B562E744E
:10192000322E7478743D22256422FFFFFF000000F0
:1019300010B50448C021017000214170022100F05F
:10194000EBF910BD302C002010B5024604210248EE
:10195000FFF78FFC10BD000000400B4010B50246A1
:1019600040210248FFF785FC10BD000000000B403D
:1019700010B5072001210022000489030123FFF78D
:10198000DFFB002240211046FFF7CAFA0122402166
:101990001748FFF720FC002204210220FFF7C0FABD
:1019A000144C012204212046FFF715FC00220821D7
:1019B0000220FFF7B5FA012208212046FFF70BFCB1
:1019C000002240210120FFF7ABFA0B4C00224021FE
:1019D0002046FFF700FC012240212046FFF71DFCB6
:1019E0000120FFF7BBFF0020FFF7AEFF10BD000096
:1019F00000000B4000400B4000200B4070470000EF
:101A000010B51121012000F01DF800280BD0112184
:101A1000012000F00BF840210022080600F086FAB1
:101A200001490020087010BD1000002010B5044AC4
:101A3000936A8400001981400B43936210BD00003B
:101A400000010940054A126A8300C01881400A4219
:101A500001D00120704700207047000000010940BC
:101A600070477047042204490428086902D0904353
:101A7000086170471043FBE700E000E007490028D9
:101A800006D00128086906D0400840000861704768
:101A900000208861704701221043F7E700E000E072
:101AA000044902220028086901D0104300E0904355
:101AB0000861704700E000E001494861704700009C
:101AC00000E000E010B50446FFF7C6FC5F20FFF71A
:101AD0008FFCFFF7FFFC002804D0FFF7E1FC00209B
:101AE000C04310BDFFF74CFC2070FFF7D9FC00206D
:101AF00010BD70B50546FFF7AFFC5E20FFF778FC20
:101B0000FFF7E8FC0024E443002806D12846FFF74D
:101B10006FFCFFF7DFFC002803D0FFF7C1FC204675
:101B200070BDFFF7BDFC002070BD000010B500F0D7
:101B300035F8E1246402204600F084FA204600F0E3
:101B40000DFAFFF711FCFFF737FE00F0D9FA01227A
:101B500092020349034801F003F901F05BFA10BD5A
:101B6000BC000020B000002070B50B4C0546606939
:101B70007D21C900FEF7DCFAA1696843A2698A42A7
:101B800002D2A2698A1A03E06269A3695218D21AC2
:101B90008242F3D370BD000000E000E010B50020E9
:101BA0000E4902468300401CC0B2CA500528F9D332
:101BB0000420C043FFF756FF09487D2189010068D2
:101BC000FEF7B6FAFFF778FF0120FFF769FF002064
:101BD000FFF754FF0120FFF751FF10BDBC040020A8
:101BE0000000002010B50949002082008B58002B0E
:101BF00001D05B1E8B50401CC0B20528F5D30448B1
:101C00000168491C016001F06DFA10BDBC040020A0
:101C100008000020F0B534491020C8603349012085
:101C200008603348016B40221143016331498B68DE
:101C3000272BFCD1416A03239B02994341624168EF
:101C40000123DB02194341608168C908C907FBD041
:101C50004168C908C900C91C4160416B4907490F67
:101C60000329FAD124490B68DB08DB005B1C0B60FD
:101C70000023036245684C15A543456006688D1531
:101C80002E43066046680F153E4346608668B608D8
:101C9000F607FBD0066B964306630268AA43026010
:101CA000032212068261426822434260826852081F
:101CB000D207FBD00A68D208D200921C0A600362E5
:101CC0004268D208D200521C4260426B5207520F47
:101CD000012AFAD10868102210430860086812022D
:101CE00010430860F0BD00000081084000830840F8
:101CF0000080084000A106400002084010B5436D76
:101D0000490001248C40A3438A401A43426510BD18
:101D1000803040697047000070B50C460A460B4D94
:101D200001462869801CFEF719FAE017000E011918
:101D30000A122869214602704170FF302D30286157
:101D4000A969884201D10248286170BD18000020AD
:101D50007017002038B50E4C2021204600F0A0F866
:101D6000002813D00B490A20C860204600F0E6F88E
:101D7000694608700122084801F038F807480178E0
:101D8000491C01702021204600F086F838BD000073
:101D900000100040BC040020A0300020A40000205F
:101DA0000FB410B503AA0548029900F0BDF9034825
:101DB00000F032F910BC08BC04B01847B031002064
:101DC00038B50E4C2021204600F06AF8002813D0C8
:101DD0000B490A204860204600F0B0F869460870B8
:101DE0000122084801F002F807480178491C0170F7
:101DF0002021204600F050F838BD000000100440BB
:101E0000BC040020D00400200C00002010B52021CC
:101E10004C06204600F044F801280FD108490A205A
:101E20008860204600F08AF8074A064B51885854CB
:101E3000491C51802021204600F02EF810BD0000E2
:101E4000BC040020E00500201000002038B50E4C36
:101E50002021204600F024F8002813D00B490A2046
:101E60000861204600F06AF86946087001220848B7
:101E700000F0BCFF07480178491C01702021204672
:101E800000F00AF838BD000000000440BC04002047
:101E9000B0350020A700002002690A4002617047A7
:101EA0000069084000D001207047000070B504466A
:101EB0000D46C8888988626808432989134B1A40EF
:101EC0001143084369890843606001229207104961
:101ED0001048114E944201D1182010E08C4207D1D5
:101EE0001A20FFF713F92968FEF722F9606203E070
:101EF000844201D11C2002E0B44206D11E20FFF72B
:101F000005F92968FEF714F9606270BDFCE0FFFF77
:101F1000000004400010004000100440002AC26885
:101F200001D00A4300E08A43C2607047002A426839
:101F300001D00A4300E08A4342607047006880B2E3
:101F400070470160704710238B404168002A01D020
:101F5000194300E099434160704700003EB50024FA
:101F6000054611212246890201231046FFF7E8F8B1
:101F7000062210210220FEF7D3FF06222021022094
:101F8000FEF7CEFF0095FF25013568468580C480A9
:101F9000048144810E4C69462046FFF787FF0D49B6
:101FA0002A4608460C3800F0DBFE012200212046BC
:101FB000FFF7C9FF012211462046FFF7C4FF0122A7
:101FC00011462046FFF7AAFF0349600308603EBDA3
:101FD00000100040AC30002000E100E010B50B48DC
:101FE000C068002810D10A490A78002A0CD00523BD
:101FF000481C03704270002008700222491C0548EA
:1020000000F0F4FE012010BD002010BDBC04002033
:10201000A4000020B000002070B5094D0446AE15A4
:1020200009E02846FFF78DFF31462846FFF738FFC5
:102030000028F9D0641C21780029F2D170BD00007D
:10204000001000403EB50024054609212246C90281
:1020500001231046FFF774F8062210210120FEF735
:102060005FFF062220210120FEF75AFF0095FF2581
:10207000013568468580C480048144810E4C6946E0
:102080002046FFF713FF0D492A4608460C3800F09A
:1020900067FE012200212046FFF755FF012211466D
:1020A0002046FFF750FF012211462046FFF736FF7A
:1020B0000349A00308603EBD00100440DC0400207A
:1020C00000E100E010B50B484068002810D10A4933
:1020D0000A78002A0CD00423481C037042700020A8
:1020E00008700222491C054800F080FE012010BD46
:1020F000002010BDBC0400200C000020B000002017
:1021000010B5FFF735FC10BD0FB410B503A9044B93
:10211000044A029800F00CF910BC08BC04B018473F
:10212000752A00000400002037B514460846064B07
:102130006A46214600F0FCF804466946002000F09B
:1021400093FC20463EBD0000692A00002021020CBD
:1021500001D010211046020A01D0104608390209A8
:1021600001D01046091F820801D01046891E42087E
:1021700001D0881E7047081A704730B47446641E38
:102180002578641CAB4200D21D46635D5B00E318FA
:1021900030BC184700487047AC00002002E008C877
:1021A000121F08C1002AFAD170477047002001E0D1
:1021B00001C1121F002AFBD170470000F0B51FB407
:1021C00086B00998089A030D0021024314D05148A3
:1021D000514A1818504305141198012810981AD024
:1021E000281A401C00264D4F4D490096019104903D
:1021F000002812DA444211E01198012449A3012871
:1022000001D11098C1430698119A84600360C2609E
:1022100041600BB0F0BD4042E4E7044621050020D8
:102220003F4A001C51410391029012E0E00707D0A1
:1022300032463B4601990098FEF7BCFA01910090A6
:1022400032463B4610461946FEF7B4FA06460F469C
:102250006410002CEAD10498039B0028029A099983
:10226000089806DAFEF7A6FA019B009AFEF7A2FA92
:1022700005E0FEF707FB019B009AFEF703FB04460F
:102280000E460022284BFEF795FB03D80020C043E2
:10229000014607E00022254B20463146FEF7D8F9DB
:1022A000FEF768FB102409E0002C0ADB0A22002359
:1022B000FEF7DAF8079B30321A55641E02460A43CD
:1022C000F2D11122641C079B121B1C19119B012BBC
:1022D00003D0012308430ED10AE0084304D01120A3
:1022E00010900020119077E71098151A6D1E0BE0E2
:1022F0001098824202DD00236D1C03E0824201DA65
:1023000000236D1E002BEED0069811998260C160EB
:1023100030C07EE701FCFFFF104D000000001440BC
:102320000000F03F300000000000F0430000E03FFC
:10233000FFB597B00646002518E2252877D100247E
:102340002746FD49049400E00443761C32780120BE
:10235000203A90400842F7D130782A280ED0022245
:10236000307801463039092916D804990A2359438F
:10237000303940181443761C0490F1E7189802C8CD
:1023800004911890002904DA0120400304434842D4
:10239000049002200443761C30782E2814D10420A7
:1023A00004437078761C2A2809D11898761C80C8B6
:1023B000189009E00A214F43303FC719761C307846
:1023C000014630390929F5D930786C2810D006DC5F
:1023D0004C281AD068280ED06A2817D104E0742837
:1023E00013D07A2812D110E00120400504430CE0FC
:1023F0000121090501E0032109050C43717881429F
:1024000003D1012000052418761C761C3078119029
:1024100066280BD013DC58287DD009DC00287BD03F
:102420004528F6D04628F4D047281AD1A5E118E06F
:10243000632835D0642870D0652812D19DE17028BA
:102440006CD008DC6728F1D069287BD06E280DD0CD
:102450006F2806D1BAE073282ED0752871D078285D
:1024600059D01A9A199990476D1C7EE16002400F6D
:10247000022809D003280DD00428189801680DD02F
:102480000D60001D189070E11898EA1701680D6042
:102490004A60F6E7189801680D80F2E70D70F0E7E2
:1024A00018986A4601781172001D18900020507229
:1024B00002A80090012005E0189802C8189000209A
:1024C0000091C04361070DD5002101E00199491C2D
:1024D0000191B94212DA8142F8DB009A515C00297D
:1024E000F4D10BE0002101E00199491C01918142E6
:1024F000FADB019A0099895C0029F5D101990498C9
:102500001A9B471A21463846199A00F097FA019902
:10251000401945180BE04FE02CE113E04EE0009825
:1025200000990078491C00911A9A199990470198CE
:10253000401E0190401CF2D1214638461A9B199A40
:1025400010E137E00A200021009001916002410F64
:10255000022907D0189A01CA1892C2179446032973
:1025600008D00AE01898C01DC108C90005C9189113
:10257000944607E000B2C2179446042902D140B243
:10258000C1178C4600226146944506DA0A460021AE
:10259000404291418C462D2102E0210504D52B219A
:1025A0006A461173012103E0E10701D02021F7E71A
:1025B000029155E00A200AE0102008E01020009067
:1025C0000021042004430191082703E00820002192
:1025D000019100906002410F022907D0189A01CAA8
:1025E000189200229446032908D008E01898C01DCC
:1025F000C108C90005C91891944603E080B20429B6
:1026000000D1C0B200210291210729D5119970296A
:1026100006D0009A1021019B4A401A4305D00EE0D3
:1026200040216A461173012108E06146014306D04A
:1026300030216A4611731199517302210291009A57
:102640000821019B4A401A430AD16146014301D146
:10265000610705D530216A46117301217F1E029161
:102660001199582904D035A10E910DA90D910DE0B5
:1026700037A1F9E76146019B009AFDF7F5FE0E9B35
:102680008C469B5C0D9A521E0D921370614601435D
:10269000F0D10D9805A9081A20300190600703D5E4
:1026A00001200004844300E001270198874201DDF6
:1026B000381A00E00020019900904118029809188A
:1026C0000498401A0490E00306D421461A9B199AF4
:1026D000049800F0B3F94519002706E003A81A9AF8
:1026E000C05D199990476D1C7F1C02988742F5DBED
:1026F000E0030CD521461A9B199A049800F09EF924
:10270000451904E01A9A3020199990476D1C0099D8
:10271000481E00900029F5DC08E00D980D9900781E
:10272000491C0D911A9A199990476D1C0199481EE0
:1027300001900029F1DC63E10928010030313233D6
:1027400034353637383961626364656600000000ED
:1027500030313233343536373839414243444546D7
:102760000000000000F05AF94519761C3078002866
:1027700000D0E2E528461BB0F0BD600700D4062774
:102780001898C01DC108C90048680A680831C30FFD
:10279000DB071891190001D09CA108E0210501D5A3
:1027A0009BA104E0E10701D09AA100E09AA14300B7
:1027B00011985B08109165280CD006DC452809D0DB
:1027C00046281DD0472841D141E0662818D0672807
:1027D0003CD13CE00021112F01DB112000E0781CEE
:1027E0000191009008A911A8FFF7E8FC1399059141
:1027F0000021119A15927F1C12980197009150E0C8
:102800000120C00703900120019008A9009711A89A
:10281000FFF7D4FC139A149905920022119B0092A1
:1028200012981593059A0192002901D0104602E0F2
:10283000791C40180190381A01D5019804E04042F3
:10284000401E0090781C0190C01B029043E0012FB5
:1028500000DA01270021112F01DD112000E03846A8
:102860000191009008A911A8FFF7A8FC1399059100
:10287000119A0021129815920091019721070CD40A
:102880000599B94201DB019900E00191012904DDBC
:10289000159A491E515C302906D0B84201DA011D53
:1028A00005DA0121029115E00199491EEDE70028A2
:1028B00005DC0099411800910199091A03E0019A79
:1028C000411C914200DD01910099401A401C029088
:1028D0000120C0070390200706D402990198814285
:1028E00002DB0020C043029000206946C87707AF92
:1028F000012103980337C907884224D00220119090
:102900002B201290039800280CDA404203902D20CF
:10291000129007E00A210398FDF70AFC30317F1E70
:10292000039039701199481E11900029F2DC039828
:102930000028EFD1791E12980870307820210840C5
:102940004530BF1E387006A8C01BC01D03901098EC
:102950000078002800D00120019941180298C01782
:102960000918039809180498401A401E0490E003BF
:1029700006D421461A9B199A049800F05FF845196D
:1029800010980078002803D01A9A199990476D1C66
:10299000E00324D521461A9B199A049800F04EF8BA
:1029A00045191CE00098002807DB0099059888422B
:1029B00003DD1598405C199901E0199930201A9AA5
:1029C000904700986D1C401C00900298401E029099
:1029D000002804D11A9A2E20199990476D1C01994C
:1029E000481E01900029DDDC05E038781A9A7F1C2A
:1029F000199990476D1C0399481E03900029F4DC37
:102A000021461A9B199A0498ACE600002D0000009C
:102A10002B0000002000000000000000F8B5044674
:102A200000251E461746880404D405E039462020B8
:102A3000B0476D1C641EF9D52846F8BDFFB50446A5
:102A4000002581B01E46C80301D5302700E02027AD
:102A5000880404D505E038460399B0476D1C641E10
:102A6000F9D5284605B0F0BD0A68531C0B601070FC
:102A70007047000070B5074D044681B22846FFF745
:102A800060FAAE1531462846FFF70AFA0028F9D059
:102A9000204670BD00100440FFF748F800F0D6FA59
:102AA000FCE7000038B5484800F0E0F8002819D0ED
:102AB00002226946444800F0EDF868460078032891
:102AC00010D0424C002504280DD0052819D0062826
:102AD00008D16846427821463D4800F0DBF8684658
:102AE0004078255438BD684642783849394800F066
:102AF000D1F8684640783549255437A0FFF750F99A
:102B000038BD6846427831493A4800F0C3F8684613
:102B1000407839A125542D48FDF732FB384C002868
:102B20002FD035A12948FDF72BFB364A36A1801D51
:102B3000FDF73AFB3348FDF7C9FB6060314926A039
:102B4000FFF72EF932A06168FFF7DEFA3348002262
:102B50000570334D11462846FFF7F5F90022012193
:102B60002846FFF7F0F96068FFF76CFA01220021B0
:102B70002846FFF7E8F9012211462846FFF7E3F956
:102B800038BD28A11148FDF7FBFA0028F8D025A18F
:102B90000E48FDF7F5FA1A4A1BA10832801DFDF711
:102BA00003FB17480830FDF791FBC0B22070FEF719
:102BB000A0FF2078FEF79DFF002801D01BA000E0B9
:102BC00022A0FFF7EDF838BDB00000209C2D0020BA
:102BD000B0350020D004002073657269616C2E73DB
:102BE0006C74312E7478742B3D2225730D0A22FFEC
:102BF000FFFF0000A030002042544C534554000019
:102C0000640000209C2E0020255B5E0A5D00000011
:102C1000B2A8CCD8C2CAA3BA256400000C00002018
:102C2000001004405265735365740000706F77653F
:102C3000722E74312E7478742B3D22D4CBD0D0D721
:102C4000B4CCACD2ECB3A322FFFFFF00706F77656A
:102C5000722E74312E7478742B3D22D4CBD0D0D701
:102C6000B4CCACD5FDB3A322FFFFFF0010B50446E2
:102C700000F024F900280AD0012809D0E088410892
:102C8000A0884008814201D8401A2189081A10BD45
:102C9000208910BD70B515460E46040005D19E234F
:102CA0001D4A1EA120A0FFF72FFA2046FFF7DEFFE6
:102CB00000282FD0A84200D285B2A08821894008E0
:102CC0000A1A2168AA420BDD09182A463046FDF788
:102CD00045FAA088C1074008C90F4019400016E016
:102CE00009183046FDF73AFAA18820894908401AA8
:102CF0002A1A80192168FDF731FAA088012148407D
:102D000021894208891A691A4900C007C00F014386
:102D1000A180284670BD0000413100007262202170
:102D20003D204E554C4C00002825732920617373BB
:102D3000657274696F6E206661696C656420617488
:102D40002066756E6374696F6E3A25732C206C690A
:102D50006E65206E756D6265723A2564200A00000A
:102D600070B515460E46040005D121230A4A0BA171
:102D70000DA0FFF7C9F9002D05D12223064A18A19D
:102D800009A0FFF7C1F90020A080E080A80880001A
:102D90002660208170BD0000043100007262202195
:102DA0003D204E554C4C000028257329206173733B
:102DB000657274696F6E206661696C656420617408
:102DC0002066756E6374696F6E3A25732C206C698A
:102DD0006E65206E756D6265723A2564200A00008A
:102DE00073697A65203E20300000000070B51546FA
:102DF0000E46040005D137231E4A1FA121A0FFF76C
:102E000083F92046FFF732FF2189081A0004000CDD
:102E10002ED0A84200D20546E08840080A1A216850
:102E2000AA420BDD08182A463146FDF797F9E088DB
:102E3000C1074008C90F4019400016E00818314684
:102E4000FDF78CF9E18820894908401A2A1A81196E
:102E50002068FDF783F9E088012148402189420874
:102E6000891A691A4900C007C00F0143E18028464A
:102E700070BD000017310000726220213D204E55C8
:102E80004C4C0000282573292061737365727469A6
:102E90006F6E206661696C65642061742066756E72
:102EA0006374696F6E3A25732C206C696E65206EB1
:102EB000756D6265723A2564200A00008188C088B9
:102EC0004A0843089A4209D1C907C007C90FC00F71
:102ED000814201D1002070470120704702207047D5
:102EE00008B50020694608706846FEF7EBFD00064D
:102EF000000E04D014A0FFF707F917A008E01EA0E9
:102F0000FFF702F9684601781FA0FFF7FDF821A03E
:102F1000FEF746FF7F2069460870FEF7EAFD0006CF
:102F2000000E04D023A0FFF7EFF826A008E02DA0A4
:102F3000FFF7EAF86846017813A0FFF7E5F82DA03F
:102F4000FEF72EFF08BD0000D7E8D6B5B6C1C8A170
:102F5000CAA7B0DC00000000706F7765722E743174
:102F60002E7478742B3D22D4CBD0D0D7B4CCACD235
:102F7000ECB3A322FFFFFF00D7E8D6B5B6C1C8A1C6
:102F8000B3C9B9A60000000076616C3D25640D0A46
:102F900000000000706F7765722E74312E747874A3
:102FA0002B3D22D4CBD0D0D7B4CCACD5FDB3A3220B
:102FB000FFFFFF00D0B4B5E7D7E8CAA7B0DC0D0A21
:102FC00000000000706F7765722E74312E74787473
:102FD0002B3D22B5E7D1B9D0DEB8C4D2ECB3A322E1
:102FE000FFFFFF00D0B4B5E7D7E8B3C9B9A60D0A13
:102FF00000000000706F7765722E74312E74787443
:103000002B3D22B5E7D1B9D0DEB8C4D5FDB3A3229C
:10301000FFFFFF00F8B50B4E0B4F00240C2161435E
:103020008819836842682001C0197158054600F06C
:1030300015F8284600F034F8641CE4B2042CEDD3F3
:103040000020F8BD740000205C2D002010B500F0B9
:103050000DF8FFF727FD002010BD00008160024938
:10306000496889180AC070475C00002070B50B4D94
:103070002C680CE020686968401A002806DC60684B
:10308000002807D040182060A0688047E468002C22
:10309000F0D170BD204600F015F8F5E75C00002087
:1030A000074A11680B4605E0814202D10020C04367
:1030B0007047C9680029F7D1C360106000207047CD
:1030C0005C000020064A06E0814202D1C968116016
:1030D00001E00A460C3211680029F5D17047000062
:1030E0005C00002002484168491C416070470000B4
:1030F0005C00002010B5FEF771FF10BD10B5FEF7A3
:10310000E1FF10BD72745F72696E67627566666515
:10311000725F696E69740072745F72696E6762755E
:10312000666665725F7075740072745F72696E674F
:103130006275666665725F7075745F666F726365EF
:103140000072745F72696E676275666665725F674A
:1031500065740072745F72696E6762756666657227
:103160005F707574636861720072745F72696E6714
:103170006275666665725F707574636861725F66BA
:103180006F7263650072745F72696E6762756666FE
:1031900065725F676574636861720072745F7269FB
:1031A0006E676275666665725F726573657400004E
:1031B000404040404040404040414141414140400A
:1031C00040404040404040404040404040404040FF
:1031D00005020202020202020202020202020202CC
:1031E0002020202020202020202002020202020293
:1031F00002909090909090101010101010101010DD
:103200001010101010101010101010020202020204
:103210000288888888888808080808080808080834
:1032200008080808080808080808080202020240FE
:10323000B03100005432000000000020B000000057
:103240009C21000004330000B0000020103E00006C
:10325000AC210000006CDC02000000000000000057
:10326000000000000000000000000000000000005E
:10327000000000000000000000000000000000004E
:10328000000000000000000000000000000000003E
:10329000000000000000000000000000000000002E
:1032A000000000000000000000000000000000001E
:1032B000000000000000000000000000000000000E
:1032C0000000000000000000FD300000320000009F
:1032D00032000000F5300000320000003200000033
:1032E000E12E0000E8030000E80300006918000078
:1032F000320000003200000000000000000000006A
:0433000000000000C9
:04000005000000C136
:00000001FF
